:100000000C9435010C9466010C9466010C94660105
:100010000C9466010C9466010C9466010C946601C4
:100020000C9466010C9466010C9466010C946601B4
:100030000C9466010C9466010C9466010C946601A4
:100040000C9466010C9466010C9466010C94660194
:100050000C9466010C9466010C9466010C9456078E
:100060000C9466010C9466010C9466010C94660174
:100070000C9466010C9466010C9466010C94660164
:100080000C9466010C9466010C9466010C94660154
:100090000C9466010C9466010C9466010C94660144
:1000A0000C9466010C9466010C9466010C94660134
:1000B0000C9466010C9466010C9466010C94660124
:1000C0000C9466010C9466010C9466010C94660114
:1000D0000C9466010C9466010C9466010C94660104
:1000E0000C9466010C942B050C9484030C94CB01A6
:1000F0000C94AF010C9443070C9494010C94AB0145
:100100000C94BD010C94C7010C94B9010C948C03A0
:100110000C9498010C9488030C94C1010C94B301C5
:100120000C941F0B0C949B010C942C050C948C01CB
:100130000C94A5010C9486010C94A1010C949001DF
:100140000C94C5020C94C601000021002400270075
:100150002A002D00300033000101000004010701D6
:100160000A0100002200250028002B002E0031008B
:10017000340002010000050108010B01000020000D
:100180002300260029002C002F003200000100006F
:10019000030106010901050505050705080808080A
:1001A000020202020A0A080804040404010101010F
:1001B000010101010303030303030303040707070A
:1001C0000C0C0C0C0C0C0C0C0202020206060606AF
:1001D000060606060B0B0B0B0B0B0B0B010210207C
:1001E000200808102040102040800201020108046D
:1001F0000201010204081020408080402010080401
:100200000201800402018040201008040201080459
:10021000020101020408102040800102040810209D
:10022000408000000A0B02090C0D0E0807030401B0
:1002300000000000000000000000000000000000BE
:10024000000000000000000000000000000012118B
:10025000100000000000000000000000000000008E
:1002600000000000000000001F0B11241FBECFEF94
:10027000D1E2DEBFCDBF00E00CBF12E0A0E0B2E0F3
:10028000ECE0FAE100E00BBF02C007900D92A83746
:10029000B107D9F723E0A8E7B2E001C01D92A93D5C
:1002A000B207E1F711E0C5E3D1E000E006C0219715
:1002B0000109802FFE010E94FC0CC433D10780E0AD
:1002C0000807A9F70E94A0070C94040D0C940000E5
:1002D0008150823108F05AC0E82FF0E08827EC58AE
:1002E000FE4F8F4F0C94FC0C9401980186018C01F9
:1002F0009001C6019B01A101A501AB01AF01B301B2
:10030000B901BD01C601C101C701CB0180918000C7
:100310008F77809380000895809180008F7DF9CF42
:1003200080918000877FF5CF84B58F7784BD089555
:1003300084B58F7DFBCF8091B0008F778093B00024
:1003400008958091B0008F7DF9CF809190008F77D4
:10035000809390000895809190008F7DF9CF8091D7
:100360009000877FF5CF8091A0008F778093A000C9
:1003700008958091A0008F7DF9CF8091A000877FA4
:10038000F5CF809120018F7780932001089580918F
:1003900020018F7DF9CF80912001877FF5CFCF930A
:1003A000DF93282F30E0F901EE5DFD4F8491F901D4
:1003B000E452FE4FD491F901EA56FE4FC491CC238A
:1003C000A1F081110E946801EC2FF0E0EE0FFF1FF9
:1003D000E458FE4FA591B491EC91ED2381E090E0BB
:1003E00009F480E0DF91CF91089580E090E0FACFAA
:1003F0001F93CF93DF93282F30E0F901EE5DFD4F7F
:100400008491F901E452FE4FD491F901EA56FE4F6E
:10041000C491CC23A9F0162F81110E946801EC2F02
:10042000F0E0EE0FFF1FEE59FE4FA591B4918FB78C
:10043000F894EC91111108C0D095DE23DC938FBFA6
:10044000DF91CF911F910895DE2BF8CFCF93DF93EB
:1004500090E0FC01E452FE4F24918A569E4FFC012D
:1004600084918823C9F090E0880F991FFC01E85B14
:10047000FE4FA591B491FC01EE59FE4FC591D49168
:1004800061110DC09FB7F8948C91209582238C93B5
:100490008881282328839FBFDF91CF910895623000
:1004A00051F49FB7F8943C91822F809583238C93CD
:1004B000E8812E2BEFCF8FB7F894EC912E2B2C9355
:1004C0008FBFEACF3FB7F8948091650390916603A0
:1004D000A0916703B091680326B5A89B05C02F3F84
:1004E00019F00196A11DB11D3FBFBA2FA92F982F5A
:1004F0008827BC01CD01620F711D811D911D42E055
:10050000660F771F881F991F4A95D1F708958F921C
:100510009F92AF92BF92CF92DF92EF92FF924B01E8
:100520005C010E9462026B017C010E9462026C19F4
:100530007D098E099F09683E734081059105A8F3E6
:1005400021E0821A9108A108B10888EEC80E83E064
:10055000D81EE11CF11C81149104A104B10429F7F7
:10056000FF90EF90DF90CF90BF90AF909F908F90D3
:1005700008952FB7F89460916103709162038091A0
:100580006303909164032FBF0895AF92BF92CF92FF
:10059000DF92EF92FF920F931F93CF93DF936C0143
:1005A0007B018B01040F151FEB015E01AE18BF0824
:1005B000C017D10759F06991D601ED91FC910190D6
:1005C000F081E02DC6011995892B79F7C501DF91DE
:1005D000CF911F910F91FF90EF90DF90CF90BF9040
:1005E000AF900895CF93DF93DC0126E0629FA00DCA
:1005F000B11D112490965C934E935F9721E09196E4
:100600002C939197FC01E359FF4F0190F081E02D6D
:10061000EC01C459DF4F2881222341F0309719F0B3
:10062000DC01662329F0DF91CF9108953097D9F34B
:100630005C968C91DF91CF911994CF92DF92EF92DB
:10064000FF920F931F93CF93DF93EC01162F042F8C
:10065000FC0186E0689FE00DF11D112411A2878D39
:1006600090A18130910509F180F08230910509F463
:1006700043C0039709F445C0DF91CF911F910F91BB
:10068000FF90EF90DF90CF9008954423A9F341E0CD
:1006900050E0CE010E94F2020E94B902C85ADF4F18
:1006A000688379838A839B83E7CF0E94B902FE0126
:1006B000E85AFF4FC080D180E280F380AB01BC01DB
:1006C0004C195D096E097F09729680819181B0E0B5
:1006D000A0E084179507A607B70770F442E050E042
:1006E000612FCE01DF91CF911F910F91FF90EF907D
:1006F000DF90CF900C94F20243E050E00111BCCFA8
:10070000EFCF50E040E0ECCF862F642F0C94260210
:10071000862F642F0C94F801862F0C94CF012F9212
:100720003F924F925F926F927F928F929F92AF9281
:10073000BF92CF92DF92EF92FF920F931F93CF93CE
:10074000DF93CDB7DEB72C970FB6F894DEBF0FBEA0
:10075000CDBF9C878B8784599F4F9A83898381E083
:10076000A981BA818C930E94B902EB85FC85E45A79
:10077000FF4FFC83EB830081118122813381AB0128
:10078000BC01401B510B620B730BEB85FC85E859D8
:10079000FF4F80819181B0E0A0E084179507A60704
:1007A000B70708F04FC110E0CB84DC84F6E6CF0E2B
:1007B000D11CEB84FC8422E6E20EF11CD6018C9164
:1007C000181758F4D701ED91FC91E10FF11D62E08B
:1007D00080810E9426021F5FF1CF312C4B845C8404
:1007E000B7E64B0E511CEB84FC84E4E6EE0EF11CE4
:1007F000812C912C540183942B853C852E593F4F9D
:100800003A872987D2018C91381608F063C0032DEE
:1008100010E0D701ED91FC91E00FF11F61E08081C4
:100820000E942602D701ED91FC91E00FF11F60E0DC
:1008300080810E94F801D501C401032C04C0880FF7
:10084000991FAA1FBB1F0A94D2F79E838D83FC01B8
:10085000E095F095F887EF83212CD6018C9128162E
:1008600020F5622C712CA985BA85ED91FC91E60DDD
:10087000F71D80810E94CF01660C771CEB85FC85FB
:10088000E60DF71D892B51F4808591852D813E81E0
:10089000822B932B918780872394DFCF808591854E
:1008A000AF81B8858A239B23F5CFD701ED91FC91C9
:1008B000E00FF11F61E080810E94F801F701808163
:1008C0009181080F191F60E0D8018C910E942602C7
:1008D000339498CF0B851C85C801CC9678012FEFF7
:1008E0003FEFF701478D50A1452B21F4148E368F31
:1008F000258F11A2F6E0EF0EF11CE816F90689F734
:10090000A12C8B849C8420E6820E911C96E0392ECB
:10091000D6018C91A81608F058C0B12C6A2C712C05
:10092000B4E06B0E711C660C771CEB85FC856E0EBB
:100930007F1ED2018C91B81608F045C0F3014081AA
:1009400051810B2C02C0569547950A94E2F7A89E58
:10095000C00111248B0D911DEB85FC8560E0258D78
:10096000368D8217930709F472C06F5F36966A302E
:10097000B1F740FF26C0EB85FC8570E060E0248D78
:10098000211119C0D401ED91FC91E80FF91F4081AC
:10099000369EF001379EF00D11242B853C85E20F29
:1009A000F31F448F968F858F10A2178E41E0C901E7
:1009B0000E941D0306C06F5F7F4F36966A30710537
:1009C000F1F6B394B6CFA394A3CFD12CD8019196CE
:1009D0008C918111D82E0A5F1F4FE016F106B1F7F6
:1009E0000E94B902EB81FC816083718382839383CF
:1009F000DD2041F1AB85BC8591968C919197882340
:100A000009F15F968D919C9190970197D9F45C962E
:100A10008C912C960FB6F894DEBF0FBECDBFDF9140
:100A2000CF911F910F91FF90EF90DF90CF90BF90EB
:100A3000AF909F908F907F906F905F904F903F907E
:100A40002F900895E981FA81108280E0E2CF417011
:100A50008B859C85ADCF089590E080E0089560E09F
:100A600081E30E94F80160E082E30C94F801CF92E8
:100A7000DF92EF92FF920F931F93CF93DF931F921A
:100A80001F92CDB7DEB769834A83880F991F009103
:100A9000BF031091C003000F111FE9E6F3E09F01AF
:100AA000295633402017310714F41192F8CF2981C9
:100AB000FC01E759FC4F21838A81808360E08091AB
:100AC000BD030E94F8011016110604F5015011092A
:100AD000F801E759FC4FE080D090BB03C090B90308
:100AE00088E0F82E6E2D661F6627661F8C2D0E94EB
:100AF000F801EE0C61E08D2D0E94F80160E08D2D73
:100B00000E94F801FA94F110EDCFDDCF61E0809101
:100B1000BD030F900F90DF91CF911F910F91FF9028
:100B2000EF90DF90CF900C94F801EF92FF920F932B
:100B30001F93CF937C018C0183E0000F111F8A95D6
:100B4000E1F707581C4FC1E0F80111928F0140E016
:100B50006C2FC7010E943705CF5FC930A9F7CF912D
:100B60001F910F91FF90EF900895E091BF03F091D6
:100B7000C0038E179F072CF56830710511F14830BE
:100B80005105F9F0E0E8F0E0DF0102C0B595A79566
:100B90004A95E2F7AD01FC0133E0EE0FFF1F3A95F5
:100BA000E1F7E60FF71FE759FC4F3089222331F0B8
:100BB000432B408B6F5F40890C943705409543234E
:100BC000F8CF0895CF93DF93EC0160E08E810E940F
:100BD000F80161E08E810E94F80160E08E810E9440
:100BE000F8018BE891E00197F1F7DF91CF9108953B
:100BF000CF92DF92EF92FF920F931F93CF93DF93E9
:100C00006C017C0187E0E80EF11CD0E0C0E0062F0B
:100C100010E0B8010C2E02C0759567950A94E2F7B2
:100C20006170F70181917F010E94F8012196C43023
:100C3000D10579F7C601DF91CF911F910F91FF90F8
:100C4000EF90DF90CF900C94E205CF92DF92EF927D
:100C5000FF920F931F93CF93DF93EC01F62E642F37
:100C60008C810E94F8018D818F3F19F060E00E9415
:100C7000F8010F2D10E08F8584FF25C06E0187E0FD
:100C8000C80ED11CF12CE12CB8010E2C02C07595B8
:100C900067950A94E2F76170F60181916F010E94F5
:100CA000F801FFEFEF1AFF0A88E0E816F10461F798
:100CB000CE01DF91CF911F910F91FF90EF90DF90C8
:100CC000CF900C94E205B80184E0759567958A95FC
:100CD000E1F7CE010E94F8056F2DCE01DF91CF9193
:100CE0001F910F91FF90EF90DF90CF900C94F8053B
:100CF00040E0682F81EC93E00C94250681E00E948F
:100D000078068BE39FE10197F1F708950E947E0634
:100D10000E942F0560E086E20E94F80160E085E213
:100D20000E94F80160E084E20E94F80160E083E242
:100D30000E94F80160E082E20E94F80160E081E236
:100D40000C94F801CF93DF93823029F49091D00373
:100D500098609093D0038093D4031092D50380E4DD
:100D60008093D60380E18093D70380E58093D803F6
:100D700061E08091C5030E9426028091C6038F3FE7
:100D800019F061E00E94260261E08091C7030E9491
:100D90002602C1ECD3E09E01215C33408091D00358
:100DA00084FD0BC084E090E021962817390744F4B5
:100DB00061E08E810E942602EECF88E090E0F4CFC1
:100DC0008BE39DE00197F1F760E08091C5030E94FD
:100DD000F80160E08091C7030E94F8018091C6038A
:100DE0008F3F19F060E00E94F8018091D00384FDEC
:100DF00034C063E081EC93E00E94F805CBE4D6E4D4
:100E0000CE010197F1F763E081EC93E00E94F805D1
:100E10002197F1F763E081EC93E00E94F80583E508
:100E200092E00197F1F762E081EC93E00E94F8050F
:100E30008091D00380620E94780684E08093D10381
:100E40008CE00E9478060E947E0682E08093D203A6
:100E500086E0DF91CF910C94780680620E9478063C
:100E60008BE496E40197F1F78091D00380620E94B1
:100E7000780683E592E00197F1F78091D0038062D4
:100E80000E947806D5CF41E00E94250681E090E0DF
:100E90000895FC0101900020E9F73197AF01481B4C
:100EA000590BBC0181EC93E00C94C5021F920F9288
:100EB0000FB60F9211242F933F938F939F93AF936D
:100EC000BF938091610390916203A0916303B091FD
:100ED00064033091600323E0230F2D3758F501960A
:100EE000A11DB11D20936003809361039093620361
:100EF000A0936303B09364038091650390916603AC
:100F0000A0916703B09168030196A11DB11D809364
:100F1000650390936603A0936703B0936803BF9142
:100F2000AF919F918F913F912F910F900FBE0F9096
:100F30001F90189526E8230F0296A11DB11DD2CF50
:100F4000789484B5826084BD84B5816084BD85B5A4
:100F5000826085BD85B5816085BD80916E008160B0
:100F600080936E0010928100809181008260809356
:100F70008100809181008160809381008091800058
:100F80008160809380008091B10084608093B10083
:100F90008091B00081608093B00080919100826068
:100FA0008093910080919100816080939100809165
:100FB00090008160809390008091A1008260809376
:100FC000A1008091A10081608093A1008091A00088
:100FD00081608093A0008091210182608093210133
:100FE00080912101816080932101809120018160A5
:100FF0008093200180917A00846080937A008091B0
:101000007A00826080937A0080917A008160809378
:101010007A0080917A00806880937A001092C100F3
:10102000D0E0C0E08091BF039091C003C817D907FA
:101030002CF441E06CE0CE010E9437058091BF03A3
:101040009091C003C817D9072CF44AE06AE0CE019A
:101050000E9437058091BF039091C003C817D9073C
:101060001CF4CE010E9495052196C830D105D1F619
:1010700061E081E30E94260261E082E30E94260291
:1010800082E00E94A20662E370E080E090E00E94AD
:1010900087020E947E0660E080E30E94260260E0F4
:1010A0008FE20E94260260E08EE20E94260261E04A
:1010B00086E20E94260261E085E20E94260261E04B
:1010C00084E20E94260261E083E20E94260261E03F
:1010D00082E20E94260261E081E20E9426020E94D2
:1010E0008606D1E040E6842E4AEE942EA12CB12C47
:1010F00053E0252E00E010E0C1E032E0332E80E323
:101100000E94CF0120915F03892B91F0822F8D27C0
:1011100080935F038111BDC010927E0210927D0208
:101120000E9486066CE271E080E090E00E948702F7
:1011300080915F03882309F4A5C08FE20E94CF014C
:10114000892BC1F0C0937E0210927D02109278022A
:101150000E94B9026093790270937A0280937B02B5
:1011600090937C020E947E066CE271E080E090E049
:101170000E94870280917E02882391F08EE20E9475
:10118000CF01892B69F080917D028D2780937D02AC
:101190000E942F056CE271E080E090E00E948702DF
:1011A00080EF92E00E948F03F82E81E892E00E9487
:1011B0008F035FE6F51281C090918002923018F49F
:1011C0009F5F9093800290917F02803709F07FC0EB
:1011D000923018F49F5F90937F02F090800261E05C
:1011E000F11060E086E20E94F80161E0F61260E032
:1011F00085E20E94F80161E032E0F31260E084E2EF
:101200000E94F801F0907F0261E0F11060E083E25B
:101210000E94F80161E0F61260E082E20E94F801AB
:1012200061E042E0F41260E081E20E94F801809106
:101230007E02882339F180917D02811123C00E94B2
:10124000B902C0907902D0907A02E0907B02F090CF
:101250007C029B01AC012C193D094E095F09690113
:101260007A0130E6C3163AEED306E104F104B8F190
:1012700010927E020E942F050E947E068EE292E06E
:101280000E9449070115110509F439CF0E94000099
:1012900034CF0E947E06E1E08091D4038111E0E02A
:1012A000E195F0E0EF53FC4F848980680E94780656
:1012B00080E292E00E94490735CF909180022BE6B0
:1012C000F21281CF992309F47ECF91507ACF8C36D8
:1012D00009F083CF992309F480CF91507CCFC701C7
:1012E000B6010E949B0C2B013C0120E030E64AE64F
:1012F00056E40E94960C87FFA9C010927802E1E0A4
:101300008091D4038111E0E0E195F0E0EF53FC4FD0
:10131000848980680E94780680917802813009F47F
:10132000B7C008F4B0C0823009F4B5C0833009F406
:10133000B5C0E091D403E23008F0B3C0E150F0E072
:10134000EF53FC4F848980680E947806C701B6017C
:1013500024E0660F771F881F991F2A95D1F7A501F2
:1013600094010E94550C6901F12CE12C6FEFEC14F3
:10137000FD040CF060E241E081EC93E00E94250660
:101380004FEFE41AF40A50E1E516F10479F7809181
:101390007F02811188C060E082E30E94F80161E071
:1013A00081E30E94F801D0E0C0E010E000E021E01D
:1013B000A801BE0187E090E00E94B50521E0A801E8
:1013C000BE0186E090E00E94B50587E090E07C01D8
:1013D000E01AF10A21E0A701BE0190E080E00E943E
:1013E000B50521E0A701BE0181E090E00E94B505AE
:1013F00060E570E080E090E00E94870220E0A801B4
:10140000BE0187E090E00E94B50520E0A801BE0182
:1014100086E090E00E94B50520E0A701BE0190E0C3
:1014200080E00E94B50520E0A701BE0181E090E0C8
:101430000E94B5050F5F1F4F0830110509F0B7CFA7
:101440002196C830D10509F0B0CFA5CF20E030E615
:101450004AEE56E4C301B2010E94960C87FF03C016
:10146000C09378024CCF20E038EC4FE257E4C30140
:10147000B2010E94960C87FF03C0309278023FCFE2
:10148000209278023CCF8BE392E00E94490751CF33
:101490008AE492E0FACF89E592E0F7CF88E692E01D
:1014A000F4CFE1E04CCF813009F077C061E082E316
:1014B0000E94F80160E081E30E94F801D0E0C0E002
:1014C00010E000E021E0A801BE0187E090E00E946A
:1014D000B50521E0A801BE0186E090E00E94B505B7
:1014E00021E0A801BE0185E090E00E94B50587E0FB
:1014F00090E07C01E01AF10A21E0A701BE0190E032
:1015000080E00E94B50521E0A701BE0181E090E0E6
:101510000E94B50521E0A701BE0182E090E00E9493
:10152000B50562E370E080E090E00E94870220E071
:10153000A801BE0187E090E00E94B50520E0A80167
:10154000BE0186E090E00E94B50520E0A801BE0142
:1015500085E090E00E94B50520E0A701BE0190E083
:1015600080E00E94B50520E0A701BE0181E090E087
:101570000E94B50520E0A701BE0182E090E00E9434
:10158000B5050F5F1F4F0830110509F09BCF21965D
:10159000C830D10509F094CF89CF823009F072CEDE
:1015A00087E0C82ED12C61E082E30E94F80161E05F
:1015B00081E30E94F801D0E0C0E007E010E05601AE
:1015C000A01AB10AF12CE12C21E0A501BE01C6014F
:1015D0008E199F090E94B50521E0A801BE01C7012F
:1015E0000E94B5058FEFE81AF80A94E0E916F104B5
:1015F00059F76EE170E080E090E00E948702F12CE4
:10160000E12C20E0A501BE01C6018E199F090E94B0
:10161000B50520E0A801BE01C7010E94B5052FEF66
:10162000E21AF20A34E0E316F10459F70150110905
:1016300030F62196C830D10509F0BFCFB4CFCF9393
:10164000DF93C3E3D0E0D093BA03C093B90384E33C
:1016500090E09093BC038093BB0385E390E090936C
:10166000BE038093BD0388E090E09093C003809315
:10167000BF0361E083E30E94260261E08091BB0327
:101680000E94260261E08091BD030E94260261E073
:101690008091BD030E94F801D093BA03C093B903AF
:1016A000E9E7F3E0119283E0E93BF807D9F7D0E0EE
:1016B000C0E08091BF039091C003C817D90774F5AB
:1016C00040E06FE0CE010E9437058091BF0390910A
:1016D000C003C817D9072CF447E06BE0CE010E9485
:1016E000370540E069E0CE010E9437058091BF03D5
:1016F0009091C003C817D9071CF4CE010E9495052C
:101700008091BF039091C003C817D9072CF440E023
:101710006CE0CE010E9437052196CBCF1092C40316
:101720001092C30388E192E09093C2038093C103B7
:1017300088E28093C5038FEF8093C60389E280938C
:10174000C7038AE28093C8038BE28093C9038CE2CB
:101750008093CA038DE28093CB031092CC03109246
:10176000CD031092CE031092CF031092D00381E0EC
:101770000E94A2061092F2021092F6021092F50256
:101780001092F7028EE092E09093F1028093F002C3
:10179000ECE0F3E088E493E0108214821382158277
:1017A00036968E179F07C1F786E092E09093530319
:1017B0008093520385E092E0909355038093540305
:1017C00082E08093560381E08093570388E092E0A3
:1017D00090935103809350038AE090E090935903D3
:1017E0008093580384EF91E090935B0380935A03B6
:1017F00010925E0310925D0310924C0310924D0301
:1018000010924E0310924F0310925C0310928302C9
:101810001092870210928602109288028EE092E067
:101820009093820280938102EDE9F2E089ED92E0EB
:10183000108214821382158236968E179F07C1F785
:1018400081E092E09093E4028093E30280E092E0F2
:101850009093E6028093E50282E08093E70281E0C4
:101860008093E80283E092E09093E2028093E102A9
:101870008AE090E09093EA028093E90284EF91E09D
:101880009093EC028093EB021092EF021092EE0222
:101890001092DD021092DE021092DF021092E0023E
:1018A0001092ED02DF91CF910895052E97FB1EF463
:1018B00000940E946C0C57FD07D00E94740C07FC2A
:1018C00003D04EF40C946C0C5095409530952195B6
:1018D0003F4F4F4F5F4F089590958095709561955C
:1018E0007F4F8F4F9F4F0895A1E21A2EAA1BBB1B5B
:1018F000FD010DC0AA1FBB1FEE1FFF1FA217B307DC
:10190000E407F50720F0A21BB30BE40BF50B661FF1
:10191000771F881F991F1A9469F7609570958095B5
:1019200090959B01AC01BD01CF0108950E94D80C98
:1019300008F481E00895E89409C097FB3EF490957F
:101940008095709561957F4F8F4F9F4F9923A9F098
:10195000F92F96E9BB279395F69587957795679527
:10196000B795F111F8CFFAF4BB0F11F460FF1BC06B
:101970006F5F7F4F8F4F9F4F16C0882311F096E9FE
:1019800011C0772321F09EE8872F762F05C06623AC
:1019900071F096E8862F70E060E02AF09A95660F65
:1019A000771F881FDAF7880F9695879597F908951E
:1019B000990F0008550FAA0BE0E8FEEF1616170660
:1019C000E807F907C0F012161306E407F50798F0C8
:1019D000621B730B840B950B39F40A2661F0232BE1
:1019E000242B252B21F408950A2609F4A140A6955D
:1019F0008FEF811D811D0895EE0FFF1F881F8BBF84
:0C1A00000790F691E02D1994F894FFCFA8
:101A0C001D1C1B706C201F1E6F6B000000008403DC
:101A1C0088038C03000000004307C5022C052B052E
:101A2C004C617661706C61746F73204F4E004C6129
:101A3C007661646F206C6973746F005052454C4131
:101A4C005641444F2020202020004C415641444F09
:101A5C00202020202020202000454E4A554147556B
:101A6C00452020202020200053454341444F202076
:081A7C002020202020200000A2
:00000001FF
