:100000000C9430010C9461010C9461010C94610119
:100010000C9461010C9461010C9461010C946101D8
:100020000C9461010C9461010C9461010C946101C8
:100030000C9461010C94D8090C9461010C94610139
:100040000C9461010C9461010C9461010C946101A8
:100050000C9461010C9461010C9461010C948E0963
:100060000C9461010C9461010C9461010C94610188
:100070000C9461010C9461010C9461010C94610178
:100080000C9461010C9461010C9461010C94610168
:100090000C9461010C9461010C9461010C94610158
:1000A0000C9461010C9461010C9461010C94610148
:1000B0000C9461010C9461010C9461010C94610138
:1000C0000C9461010C9461010C9461010C94610128
:1000D0000C9461010C9461010C9461010C94610118
:1000E0000C9461010C94B8010C948F010C94C50719
:1000F0000C94BC010C9493010C94AA010C94A001E3
:100100000C9401050C94B4010C942E050C948101FF
:100110000C94A6010C94C6010C942F050C94AE010E
:100120000C949C010C944D0E0C94C1010C9487010D
:100130000C9496010C94C2010C948B0100002100D8
:10014000240027002A002D003000330001010000A8
:10015000040107010A0100002000230026002900F5
:100160002C002F00320000010000030106010901EC
:1001700000000A0B02090C0D0E0807030401000021
:10018000000000000000000000000000000000006F
:10019000000000000000000000000000121110002C
:1001A000000000000000000000000000000000004F
:1001B000000000000000010210202008081020406C
:1001C000102040800201020108040201010204081B
:1001D00010204080804020100804020180040201A9
:1001E00080402010080402010804020101020408F2
:1001F00010204080010204081020408000002200EE
:10020000250028002B002E003100340002010000E0
:10021000050108010B010505050507050808080883
:10022000020202020A0A080804040404010101018E
:100230000101010103030303030303030407070789
:100240000C0C0C0C0C0C0C0C02020202060606062E
:10025000060606060B0B0B0B0B0B0B0B02004D0ED1
:1002600011241FBECFEFD1E2DEBFCDBF00E00CBF37
:1002700012E0A0E0B2E0EAE6FFE100E00BBF02C05E
:1002800007900D92A03CB107D9F723E0A0ECB2E0B3
:1002900001C01D92A736B207E1F711E0C0E3D1E03B
:1002A00000E006C021970109802FFE010E94AB0FDC
:1002B000CF32D10780E00807A9F70E94770A0C9493
:1002C000B30F0C9400008150823108F05AC0E82F1F
:1002D000F0E08827E159FE4F8F4F0C94AB0F8F0150
:1002E0009301810187018B01C10196019C01A0014D
:1002F000A601AA01AE01B401B801C101BC01C2014D
:10030000C601809180008F7780938000089580914E
:1003100080008F7DF9CF80918000877FF5CF84B5F5
:100320008F7784BD089584B58F7DFBCF8091B00019
:100330008F778093B00008958091B0008F7DF9CFC2
:10034000809190008F778093900008958091900025
:100350008F7DF9CF80919000877FF5CF8091A000AD
:100360008F778093A00008958091A0008F7DF9CFB2
:100370008091A000877FF5CF809120018F778093B7
:1003800020010895809120018F7DF9CF8091200177
:10039000877FF5CFCF93DF93282F30E0F901E05925
:1003A000FE4F8491F901EA54FE4FD491F901EA5EBF
:1003B000FD4FC491CC23A1F081110E946301EC2F69
:1003C000F0E0EE0FFF1FEA5AFE4FA591B491EC91B9
:1003D000ED2381E090E009F480E0DF91CF91089572
:1003E00080E090E0FACF1F93CF93DF93282F30E087
:1003F000F901E059FE4F8491F901EA54FE4FD4917E
:10040000F901EA5EFD4FC491CC23A9F0162F8111AA
:100410000E946301EC2FF0E0EE0FFF1FE450FE4F4F
:10042000A591B4918FB7F894EC91111108C0D095B3
:10043000DE23DC938FBFDF91CF911F910895DE2BD8
:10044000F8CFCF93DF9390E0FC01EA54FE4F249164
:100450008A5E9D4FFC0184918823C9F090E0880F4B
:10046000991FFC01E45CFE4FA591B491FC01E4509E
:10047000FE4FC591D49161110DC09FB7F8948C9136
:10048000209582238C938881282328839FBFDF9126
:10049000CF910895623051F49FB7F8943C91822F28
:1004A000809583238C93E8812E2BEFCF8FB7F89420
:1004B000EC912E2B2C938FBFEACF4F925F926F92CD
:1004C0007F928F929F92AF92BF92CF92DF92EF92E4
:1004D000FF920F931F93CF938C014A015B01809190
:1004E0000102893099F08F3F09F46FC0CF911F91BD
:1004F0000F91FF90EF90DF90CF90BF90AF909F90C3
:100500008F907F906F905F904F900895ECE5F2E0B0
:10051000C491C7FDEBCF61E089E00E942102280170
:10052000712C612CCC23E9F0980150E040E0C230FE
:1005300009F01FC128013A0160E970ED83E090E005
:100540000E94EA0E69017A0181E0C81AD108E10827
:10055000F1088FEFC816D104E104F10409F00CF49E
:1005600095C168E478EE81E090E0A30192010E94D9
:10057000EA0E69017A0181E0C81AD108E108F108A0
:10058000CC2309F4A1C1C23009F094C18FEFC81681
:10059000D104E104F10409F00CF494C164E274EFB5
:1005A00080E090E0A30192010E94EA0E69017A01C5
:1005B00081E0C81AD108E108F10885E09091B10006
:1005C000987F892B8093B1009BC189E080930102C1
:1005D000ECE5F2E0C4918C2FCF3F09F487CFC23015
:1005E00009F468C060F4CC2379F1C13009F444C047
:1005F00087FD7CCF61E089E00E94210295CFC43065
:1006000009F499C008F478C0C53091F71092200120
:1006100010922101809121018860809321018091B5
:100620002101816080932101EFE1F2E0E491F0E0AB
:10063000EE0FFF1FE450FE4F85919491EFEBF1E038
:10064000E491E093D70267CF14BC15BC84B58260F7
:1006500084BD85B5816085BDEFE1F2E0E491F0E015
:10066000EE0FFF1FE450FE4F85919491EFEBF1E008
:10067000E491E093DE024FCF10928000109281004F
:1006800080918100886080938100809181008160E9
:1006900080938100EFE1F2E0E491F0E0EE0FFF1FC4
:1006A000E450FE4F85919491EFEBF1E0E491E093FB
:1006B000DD0231CF1092B0001092B1008091B000F5
:1006C00082608093B0008091B10081608093B1001E
:1006D000EFE1F2E0E491F0E0EE0FFF1FE450FE4F97
:1006E000859194919093DC028093DB02EFEBF1E033
:1006F000E491E093DA020FCF1092900010929100F3
:100700008091910088608093910080919100816038
:1007100080939100EFE1F2E0E491F0E0EE0FFF1F33
:10072000E450FE4F85919491EFEBF1E0E491E0937A
:10073000D902C3E0F0CE1092A0001092A1008091E7
:10074000A10088608093A1008091A10081608093C6
:10075000A100EFE1F2E0E491F0E0EE0FFF1FE450C2
:10076000FE4F85919491EFEBF1E0E491E093D80294
:10077000D2CE60E072E18AE790E00E94EA0E690161
:100780007A0181E0C81AD108E108F108C13039F4D2
:1007900080918100887F816080938100B1C0C330E7
:1007A00039F480919100887F816080939100A8C086
:1007B000C43039F48091A100887F81608093A100CA
:1007C0009FC0C53009F09CC080912101887F816065
:1007D0008093210195C0C7BC2093F3023093F402AB
:1007E0004093F5025093F60280916E0082608093F0
:1007F0006E007CCEC092B3002093EB023093EC02EB
:100800004093ED025093EE028091700082608093DD
:1008100070006CCED0929900C09298002093E702AD
:100820003093E8024093E9025093EA02809171000C
:100830008260809371005ACED092A900C092A80025
:100840002093E3023093E4024093E5025093E602E2
:100850008091720082608093720048CEC43061F350
:10086000CCF2C53009F042CED0922901C0922801C5
:100870002093DF023093E0024093E1025093E202C2
:100880008091730082608093730030CE83E096CEB7
:1008900062E17AE780E090E0A30192010E94EA0E13
:1008A00069017A0181E0C81AD108E108F108C1E0C4
:1008B00086E084CE8FEFC816D104E104F10409F07C
:1008C0003CF7C1E084E07ACE93E08FEFC816D10404
:1008D000E104F10489F084F062E17AE780E090E0DD
:1008E000A30192010E94EA0E69017A0181E0C81A0F
:1008F000D108E108F10894E085B5887F892B85BD92
:10090000D801AA0FBB1FA50194010E94090F28EE70
:1009100033E040E050E00E94140FC23009F46ACF87
:100920000CF09CCFCC2309F456CFC13009F0DECDBA
:10093000D0928900C09288002093EF023093F00299
:100940004093F1025093F20280916F008260809395
:100950006F00CCCD3FB7F8948091D3029091D40230
:10096000A091D502B091D60226B5A89B05C02F3F15
:1009700019F00196A11DB11D3FBFBA2FA92F982FC5
:100980008827BC01CD01620F711D811D911D42E0C0
:10099000660F771F881F991F4A95D1F708958F9288
:1009A0009F92AF92BF92CF92DF92EF92FF924B0154
:1009B0005C010E94AA046B017C010E94AA046C19CC
:1009C0007D098E099F09683E734081059105A8F352
:1009D00021E0821A9108A108B10888EEC80E83E0D0
:1009E000D81EE11CF11C81149104A104B10429F763
:1009F000FF90EF90DF90CF90BF90AF909F908F903F
:100A00000895AF92BF92CF92DF92EF92FF920F9331
:100A10001F93CF93DF936C017B018B01040F151F94
:100A2000EB015E01AE18BF08C017D10759F06991FC
:100A3000D601ED91FC910190F081E02DC601199550
:100A4000892B79F7C501DF91CF911F910F91FF900D
:100A5000EF90DF90CF90BF90AF900895089590E011
:100A600080E0089560E081E30E94F30160E082E3AA
:100A70000C94F301CF938091CD02882369F1C0914A
:100A8000CB0261E0C11160E086E20E94F30161E007
:100A9000C13009F060E085E20E94F30161E0C230FC
:100AA00009F060E084E20E94F301C091CA0261E0B3
:100AB000C11160E083E20E94F30161E0C13009F0FE
:100AC00060E082E20E94F30161E0C23009F060E080
:100AD00081E2CF910C94F301CF9108950F931F936E
:100AE000CF93DF93D82FC62F61E00E94210260E0F0
:100AF0008D2F0E94F30162E08C2F0E94210265E09D
:100B000070E080E090E00E94CF048C2F0E94CA0128
:100B10008C0160E08D2F0E94210260E08C2F0E94EA
:100B2000210281E0012B09F080E0DF91CF911F913C
:100B30000F910895CF92DF92EF92FF920F931F9340
:100B4000CF93DF931F921F92CDB7DEB769834A839D
:100B5000880F991F00914D0310914E03000F111F34
:100B6000E7EFF2E09F01275F32402017310714F4CE
:100B70001192F8CF2981FC01E950FD4F21838A8130
:100B8000808360E080914B030E94F30110161106F0
:100B900004F501501109F801E950FD4FE080D090B3
:100BA0004903C090470388E0F82E6E2D661F662724
:100BB000661F8C2D0E94F301EE0C61E08D2D0E94CA
:100BC000F30160E08D2D0E94F301FA94F110EDCF56
:100BD000DDCF61E080914B030F900F90DF91CF91BB
:100BE0001F910F91FF90EF90DF90CF900C94F30145
:100BF000EF92FF920F931F93CF937C018C0183E0C0
:100C0000000F111F8A95E1F7095F1C4FC1E0F80141
:100C100011928F0140E06C2FC7010E949A05CF5FAF
:100C2000C930A9F7CF911F910F91FF90EF900895D0
:100C3000E0914D03F0914E038E179F072CF568301D
:100C4000710511F148305105F9F0E0E8F0E0DF01FD
:100C500002C0B595A7954A95E2F7AD01FC0133E0D6
:100C6000EE0FFF1F3A95E1F7E60FF71FE950FD4F32
:100C70003089222331F0432B408B6F5F40890C94E5
:100C80009A0540954323F8CF0895CF93DF93EC0165
:100C900060E08E810E94F30161E08E810E94F30189
:100CA00060E08E810E94F3018BE891E00197F1F7FB
:100CB000DF91CF910895CF92DF92EF92FF920F9341
:100CC0001F93CF93DF936C017C0187E0E80EF11C4A
:100CD000D0E0C0E0062F10E0B8010C2E02C07595E0
:100CE00067950A94E2F76170F70181917F010E9494
:100CF000F3012196C430D10579F7C601DF91CF9178
:100D00001F910F91FF90EF90DF90CF900C944506CC
:100D1000CF92DF92EF92FF920F931F93CF93DF93C7
:100D2000EC01F62E642F8C810E94F3018D818F3FA0
:100D300019F060E00E94F3010F2D10E08F8584FF11
:100D400025C06E0187E0C80ED11CF12CE12CB80142
:100D50000E2C02C0759567950A94E2F76170F60152
:100D600081916F010E94F301FFEFEF1AFF0A88E003
:100D7000E816F10461F7CE01DF91CF911F910F9139
:100D8000FF90EF90DF90CF900C944506B80184E07F
:100D9000759567958A95E1F7CE010E945B066F2DE8
:100DA000CE01DF91CF911F910F91FF90EF90DF90D7
:100DB000CF900C945B0640E0682F8FE493E00C9496
:100DC000880681E00E94DB068BE39FE10197F1F743
:100DD0000895CF93DF93823029F490915E03986059
:100DE00090935E03809362031092630380E4809388
:100DF000640380E18093650380E58093660361E08E
:100E0000809153030E942102809154038F3F19F077
:100E100061E00E94210261E0809155030E9421025D
:100E2000CFE4D3E09E012F54334080915E0384FDD4
:100E30000BC084E090E021962817390744F461E064
:100E40008E810E942102EECF88E090E0F4CF8BE308
:100E50009DE00197F1F760E0809153030E94F30158
:100E600060E0809155030E94F301809154038F3F0D
:100E700019F060E00E94F30180915E0384FD34C0AC
:100E800063E08FE493E00E945B06CBE4D6E4CE01FE
:100E90000197F1F763E08FE493E00E945B062197EE
:100EA000F1F763E08FE493E00E945B0683E592E054
:100EB0000197F1F762E08FE493E00E945B06809176
:100EC0005E0380620E94DB0684E080935F038CE017
:100ED0000E94DB060E94E10682E08093600386E0C8
:100EE000DF91CF910C94DB0680620E94DB068BE4DD
:100EF00096E40197F1F780915E0380620E94DB0621
:100F000083E592E00197F1F780915E0380620E9491
:100F1000DB06D5CF90916203691710F06FEF690F70
:100F2000E62FF0E0E15BFC4F9489890F80680C9418
:100F3000DB060E94E106EFE4F3E080898B7F808B83
:100F400088600E94DB060E94320560E086E20E9413
:100F5000F30160E085E20E94F30160E084E20E9418
:100F6000F30160E083E20E94F30160E082E20E940C
:100F7000F30160E081E20E94F3011092CC02109232
:100F8000C90281E080930002089541E00E94880632
:100F900081E090E008958F929F92AF92BF920F935D
:100FA0001F93CF93DF93CDB7DEB7A1970FB6F89419
:100FB000DEBF0FBECDBF19A2423008F44AE08E0159
:100FC0000F5D1F4F842E912CB12CA12CA5019401F3
:100FD0000E94140FE62FB901CA01EA3044F5E05D22
:100FE000D801EE938D01232B242B252B79F790E04C
:100FF00080E0109769F0FD0101900020E9F731973A
:10100000AF014A1B5B0BBD018FE493E00E94010519
:10101000A1960FB6F894DEBF0FBECDBFDF91CF9182
:101020001F910F91BF90AF909F908F900895E95CB2
:10103000D7CF009769F0FC0101900020E9F73197C4
:10104000AF01481B590BBC018FE493E00C940105E0
:1010500090E080E0089580910002811137C0809176
:10106000CC02811133C060E00E948A078DE192E0DA
:101070000E9419088091CB028823E1F08130E9F0C9
:1010800088E192E00E94190880E292E00E9419082B
:101090008091CA028823A1F08130A9F088E192E012
:1010A0000E94190861E080E00E948A0784E292E0D1
:1010B0000C9419088EE092E0E5CF83E192E0E2CF54
:1010C0008EE092E0EDCF83E192E0EACF0895CF93F6
:1010D00080E30E94CA01892B09F459C0C091CD0256
:1010E00062E370E080E090E00E94CF0480E30E9421
:1010F000CA01892B09F44BC0C1119AC081E08093C9
:10110000CD0244E650E060E070E088EE93E00E949B
:101110005D0266E970E080E090E00E94CF044CE25E
:1011200051E060E070E08CED95E00E945D028091FE
:101130005F03982F946090935F038C600E94DB069E
:101140000E94E10660E080E00E948A0785E392E069
:101150000E94190861E085E00E948A0782E492E01B
:101160000E9419086CED75E080E090E00E94CF04C9
:10117000109200020E94E10688E492E00E941908A1
:101180000E942B0880E30E94CA01892BD9F7809125
:10119000CD02882309F44AC08FE20E94CA01892B3C
:1011A00009F444C062E370E080E090E00E94CF0464
:1011B0008FE20E94CA01892BC9F144E650E060E049
:1011C00070E080E293E00E945D0264E670E080E0FF
:1011D00090E00E94CF0444E650E060E070E080E2DE
:1011E00093E00E945D028091CC02811145C081E0B4
:1011F0008093CC021092C9022FB7F8948091CF024D
:101200009091D002A091D102B091D2022FBF8093D1
:10121000C5029093C602A093C702B093C8020E9471
:10122000E1068FE20E94CA01892BD9F7CF91089578
:101230008091CC02882329F08091C902882309F487
:10124000A1CF4CE251E060E070E084EF91E00E94B9
:101250005D026CE271E080E090E00E94CF0440E922
:1012600051E060E070E08CE291E00E945D0210923B
:10127000CD020E94990786CF8091C90291E089270B
:101280008093C9028823F1F00E9432052FB7F894A9
:101290008091CF029091D002A091D102B091D20260
:1012A0002FBF8093C0029093C102A093C202B0935B
:1012B000C30260E080E00E948A0789E592E00E9414
:1012C0001908AFCF2FB7F8948091CF029091D00238
:1012D000A091D102B091D2022FBF4091C50250918E
:1012E000C6026091C7027091C802840F951FA61FA5
:1012F000B71F4091C0025091C1026091C20270912B
:10130000C302841B950BA60BB70B8093C502909369
:10131000C602A093C702B093C80283CF1F920F9258
:101320000FB60F9211242F933F938F939F93AF93F8
:10133000BF938091CF029091D002A091D102B09141
:10134000D2023091CE0223E0230F2D3758F50196BB
:10135000A11DB11D2093CE028093CF029093D002A5
:10136000A093D102B093D2028091D3029091D40283
:10137000A091D502B091D6020196A11DB11D809316
:10138000D3029093D402A093D502B093D602BF911A
:10139000AF919F918F913F912F910F900FBE0F9022
:1013A0001F90189526E8230F0296A11DB11DD2CFDC
:1013B0001F920F920FB60F9211240BB60F922F931C
:1013C0003F934F935F936F937F938F939F93AF93CD
:1013D000BF93EF93FF938091EB029091EC02A09169
:1013E000ED02B091EE02892B8A2B8B2BE1F19091CB
:1013F000DA02E091DB02F091DC02808189278083B0
:101400008091EB029091EC02A091ED02B091EE027E
:10141000181619061A061B069CF48091EB0290918F
:10142000EC02A091ED02B091EE020197A109B10981
:101430008093EB029093EC02A093ED02B093EE0246
:10144000FF91EF91BF91AF919F918F917F916F919C
:101450005F914F913F912F910F900BBE0F900FBE58
:101460000F901F90189580910102ECE5F2E0E49155
:101470009FEF90930102E230E9F040F4EE2389F00F
:10148000E13091F060E00E94F301DACFE43049F1FD
:1014900010F1E530B9F7909173009D7F9093730040
:1014A000F1CF10926E00EECF90916F009D7F9093E0
:1014B0006F00E8CF909170009D7F9093700091E055
:1014C0009093B0009091B100987F94609093B10098
:1014D0001092B300D7CF909171009D7F90937100CF
:1014E000D1CF909172009D7F90937200CBCFCF931C
:1014F000DF9300D01F92CDB7DEB7789484B58260B9
:1015000084BD84B5816084BD85B5826085BD85B5A7
:10151000816085BD80916E00816080936E00109225
:1015200081008091810082608093810080918100A0
:101530008160809381008091800081608093800031
:101540008091B10084608093B1008091B00081608F
:101550008093B0008091910082608093910080918F
:1015600091008160809391008091900081608093D0
:1015700090008091A10082608093A1008091A100E1
:1015800081608093A1008091A00081608093A00081
:1015900080912101826080932101809121018160ED
:1015A00080932101809120018160809320018091AE
:1015B0007A00846080937A0080917A0082608093C0
:1015C0007A0080917A00816080937A0080917A001D
:1015D000806880937A001092C1001A8219828091EB
:1015E0004D0390914E0329813A81281739072CF435
:1015F00041E06CE0C9010E949A0580914D039091F1
:101600004E0329813A812817390734F44AE06AE009
:1016100089819A810E949A0580914D0390914E0391
:1016200029813A812817390724F489819A810E94F7
:10163000F80589819A8101969A838983089779F6BA
:1016400061E081E30E94210261E082E30E942102C5
:1016500082E00E94E9060E94E10660E080E30E94C9
:10166000210260E08FE20E94210261E089E00E9495
:10167000210261E086E20E94210261E085E20E948F
:10168000210261E084E20E94210261E083E20E9483
:10169000210261E082E20E94210261E081E20E9477
:1016A00021020E94990750E6852E5AEE952EA12C14
:1016B000B12C60E0262E60E0362E0E9467088091F3
:1016C000CD02882309F4ACC08091CC02811144C0C2
:1016D00060E270E08FE190E00E946E058823D1F017
:1016E0008091CB028F5F833008F0A1C08093CB0242
:1016F00042E350E060E070E080ED97E00E945D0220
:101700000E943A050E942B086AEF70E080E090E0AA
:101710000E94CF046DE170E08CE190E00E946E05C4
:101720008823D1F08091CA028F5F833008F082C095
:101730008093CA0242E350E060E070E080ED97E001
:101740000E945D020E943A050E942B086AEF70E039
:1017500080E090E00E94CF040E943A058091CC0284
:10176000882309F45DC08091C902811159C08FB7E7
:10177000F8944090CF025090D0026090D1027090C7
:10178000D2028FBF8091C5029091C602A091C7027C
:10179000B091C802481A590A6A0A7B0A90E64916AB
:1017A0009AEE59066104710408F447C01092CC0205
:1017B0000E9432054CE251E060E070E084EF91E07D
:1017C0000E945D026CE271E080E090E00E94CF0434
:1017D00040E951E060E070E08CE291E00E945D023F
:1017E0000E94E1068AE692E00E94190860ED77E027
:1017F00080E090E00E94CF040E94990781E08093EE
:10180000CD0280915F03982F946090935F038C606A
:101810000E94DB0688E492E00E9419080E942B08CF
:101820002114310409F449CF0E94000046CF1092E0
:10183000CB025ECF1092CA027DCFC301B2010E94DB
:101840004A0F6B017C0120E030E64AE656E40E9434
:10185000450F87FFF4C11092C40260E080E00E944F
:101860008A078091C402813009F40EC208F407C2CD
:10187000823009F40CC2833009F40CC260E08CE0C1
:101880000E948A07C501B401641975098609970980
:1018900028EE33E040E050E00E94140F29833A83A1
:1018A0004B835C832A30310524F48BEB92E00E9459
:1018B00019084AE069817A818B819C810E94CB075B
:1018C0008DEB92E00E94190861E080E00E948A0797
:1018D000C301B20144E0660F771F881F991F4A9524
:1018E000D1F7A50194010E94EA0E89011A8219829A
:1018F00089819A816FE5801791070CF46FEF41E0C1
:101900008FE493E00E94880629813A812F5F3F4F40
:101910003A8329832031310559F78091CA02811118
:101920007AC060E082E30E94F30161E081E30E94FB
:10193000F3011A8219820E9467088091C9028111FD
:101940006AC08091CD02882309F465C010E000E0F0
:1019500021E0A80169817A8187E090E00E94180661
:1019600021E0A80169817A8186E090E00E94180652
:1019700021E037E0E32EF12CE01AF10AA70169819A
:101980007A8190E080E00E94180621E0A701698139
:101990007A8181E090E00E94180660E570E080E0C6
:1019A00090E00E94CF0420E0A80169817A8187E05D
:1019B00090E00E94180620E0A80169817A8186E003
:1019C00090E00E94180620E0A70169817A8190E0EA
:1019D00080E00E94180620E0A70169817A8181E0F9
:1019E00090E00E9418060E9467088091C902811148
:1019F00012C08091CD02882371F00F5F1F4F083015
:101A0000110509F0A5CF89819A8101969A8389836E
:101A1000089709F090CF8091CA02813009F09CC0EC
:101A200061E082E30E94F30160E081E30E94F30140
:101A30001A8219820E9467088091C90281118CC0A4
:101A40008091CD02882309F487C010E000E021E0F6
:101A5000A80169817A8187E090E00E94180621E060
:101A6000A80169817A8186E090E00E94180621E051
:101A7000A80169817A8185E090E00E94180621E042
:101A800097E0E92EF12CE01AF10AA70169817A8129
:101A900090E080E00E94180621E0A70169817A8128
:101AA00081E090E00E94180621E0A70169817A8117
:101AB00082E090E00E94180662E370E080E090E02F
:101AC0000E94CF0420E0A80169817A8187E090E03C
:101AD0000E94180620E0A80169817A8186E090E0E2
:101AE0000E94180620E0A80169817A8185E090E0D3
:101AF0000E94180620E0A70169817A8190E080E0C9
:101B00000E94180620E0A70169817A8181E090E0B7
:101B10000E94180620E0A70169817A8182E090E0A6
:101B20000E9418060E9467088091C902811114C0A2
:101B30008091CD02882381F00F5F1F4F083011057F
:101B400009F085CF29813A812F5F3F4F3A8329835E
:101B50002830310509F06ECF8091CA02823009F039
:101B60005FCE61E082E30E94F30161E081E30E94C5
:101B7000F3011A8219820E9467088091C9028111BB
:101B80004FCE8091CD02882309F44ACE07E010E0C1
:101B900087E0682E712C601A710AF12CE12C21E08B
:101BA000A30169817A8187E090E08E199F090E94E4
:101BB000180621E0A80169817A81C7010E941806F0
:101BC0003FEFE31AF30A84E0E816F10441F76EE10F
:101BD00070E080E090E00E94CF04F12CE12C20E046
:101BE000A30169817A8187E090E08E199F090E94A4
:101BF000180620E0A80169817A81C7010E941806B1
:101C00009FEFE91AF90A24E0E216F10441F70E9475
:101C100067088091C902811103CE8091CD0288238B
:101C200009F4FECD0150110908F0B2CF89819A81E3
:101C300001969A838983089709F09DCFF1CD20E022
:101C400030E64AEE56E4C701B6010E94450F87FF11
:101C500004C081E08093C40200CE20E038EC4FE263
:101C600057E4C701B6010E94450F87FF04C022E078
:101C70002093C402F2CD33E03093C402EECD8BE763
:101C800092E00E941908FACD8BE892E0FACF8BE936
:101C900092E0F7CF8BEA92E0F4CFCF93DF93C3E3E8
:101CA000D0E0D0934803C093470384E390E090933F
:101CB0004A038093490385E390E090934C0380931B
:101CC0004B0388E090E090934E0380934D0361E0D6
:101CD00083E30E94210261E0809149030E94210276
:101CE00061E080914B030E94210261E080914B03EF
:101CF0000E94F301D0934803C0934703E7E0F3E069
:101D0000119283E0E734F807D9F7D0E0C0E0809182
:101D10004D0390914E03C817D90774F540E06FE06A
:101D2000CE010E949A0580914D0390914E03C817F1
:101D3000D9072CF447E06BE0CE010E949A0540E001
:101D400069E0CE010E949A0580914D0390914E0367
:101D5000C817D9071CF4CE010E94F80580914D03E5
:101D600090914E03C817D9072CF440E06CE0CE01E7
:101D70000E949A052196CBCF1092520310925103E4
:101D800086E092E09093500380934F0388E2809323
:101D900053038FEF8093540389E2809355038AE2C3
:101DA000809356038BE2809357038CE28093580311
:101DB0008DE28093590310925A0310925B031092A4
:101DC0005C0310925D0310925E0381E0DF91CF917E
:101DD0000C94E906052E97FB1EF400940E94010F57
:101DE00057FD07D00E94140F07FC03D04EF40C944B
:101DF000010F50954095309521953F4F4F4F5F4FC4
:101E0000089590958095709561957F4F8F4F9F4F66
:101E100008950E94360FA59F900DB49F900DA49F2A
:101E2000800D911D11240895A1E21A2EAA1BBB1B3F
:101E3000FD010DC0AA1FBB1FEE1FFF1FA217B30796
:101E4000E407F50720F0A21BB30BE40BF50B661FAC
:101E5000771F881F991F1A9469F760957095809570
:101E600090959B01AC01BD01CF010895A29FB001E7
:101E7000B39FC001A39F700D811D1124911DB29FBE
:101E8000700D811D1124911D08950E94870F08F483
:101E900081E00895E89409C097FB3EF49095809501
:101EA000709561957F4F8F4F9F4F9923A9F0F92F20
:101EB00096E9BB279395F695879577956795B7959E
:101EC000F111F8CFFAF4BB0F11F460FF1BC06F5F84
:101ED0007F4F8F4F9F4F16C0882311F096E911C096
:101EE000772321F09EE8872F762F05C0662371F0B7
:101EF00096E8862F70E060E02AF09A95660F771FCB
:101F0000881FDAF7880F9695879597F90895990FA6
:101F10000008550FAA0BE0E8FEEF16161706E807B3
:101F2000F907C0F012161306E407F50798F0621BD4
:101F3000730B840B950B39F40A2661F0232B242BA9
:101F4000252B21F408950A2609F4A140A6958FEFC8
:101F5000811D811D0895EE0FFF1F881F8BBF079005
:0A1F6000F691E02D1994F894FFCFDC
:101F6A0001FF00000000C50701052F052E054241AB
:101F7A004A20004D45442000414C542000543A0068
:101F8A0020413A004D4F44453A20434F4E46494777
:101F9A0020202020004C41564156414A494C4C4190
:101FAA005300554C545241004C4953544F20502F22
:101FBA0020494E49434941520050415553412E2E22
:101FCA002E2020202020202020004C415641444F22
:101FDA00205445524D494E41444F005052454C41C0
:101FEA005641444F202020202020004C4156414495
:101FFA004F20202020202020202000454E4A5541F5
:10200A0047554520202020202020005345434144A5
:10201A004F202020202020202020003000730000A4
:00000001FF
