:020000040000FA
:100000000C9436010C9467010C9467010C94670101
:100010000C9467010C9467010C9467010C946701C0
:100020000C9467010C9467010C9467010C946701B0
:100030000C9467010C94F50C0C9467010C94670107
:100040000C9467010C9467010C9467010C94670190
:100050000C9467010C9467010C9467010C94AB0C31
:100060000C9467010C9467010C9467010C94670170
:100070000C9467010C9467010C9467010C94670160
:100080000C9467010C9467010C9467010C94670150
:100090000C9467010C9467010C9467010C94670140
:1000A0000C9467010C9467010C9467010C94670130
:1000B0000C9467010C9467010C9467010C94670120
:1000C0000C9467010C9467010C9467010C94670110
:1000D0000C9467010C9467010C9467010C94670100
:1000E0000C9467010C94DA050C94C2010C949901EC
:1000F0000C94CC010C94C8010C9487010C948D01D4
:100100000C94910A0C94A2010C94C7010C94311424
:100110000C949C010C94D6050C9495010C94BE0192
:100120000C9479070C9413050C94D2050C94BA0125
:100130000C947A070C94B0010C94A6010C94AC01B9
:100140000C9491010C94B4010000210024002700BC
:100150002A002D00300033000101000004010701D6
:100160000A01000020002300260029002C002F0097
:1001700032000001000003010601090100000A0B22
:1001800002090C0D0E080703040100000000000026
:10019000000000000000000000000000000000005F
:1001A000000000000000000012111000000000001C
:1001B000000000000000000000000000000000003F
:1001C000000001021020200808102040102040806C
:1001D000020102010804020101020408102040800B
:1001E0008040201008040201800402018040201099
:1001F00008040201080402010102040810204080E2
:100200000102040810204080000022002500280080
:100210002B002E003100340002010000050108010E
:100220000B0105050505070508080808020202027A
:100230000A0A080804040404010101010101010182
:100240000303030303030303040707070C0C0C0C4D
:100250000C0C0C0C02020202060606060606060636
:100260000B0B0B0B0B0B0B0B0200311411241FBEDD
:10027000CFEFD1E2DEBFCDBF00E00CBF12E0A0E0C7
:10028000B2E0EAE3FDE200E00BBF02C007900D928E
:10029000AE3EB107D9F724E0AEEEB2E001C01D9248
:1002A000A43EB207E1F711E0C6E3D1E000E006C0EA
:1002B00021970109802FFE010E947F16C533D107C7
:1002C00080E00807A9F70E94940D0C949B160C94EB
:1002D00000008150823108F05AC0E82FF0E08827F2
:1002E000EB58FE4F8F4F0C947F16950199018701B3
:1002F0008D019101C7019C01A201A601AC01B001D1
:10030000B401BA01BE01C701C201C801CC0180918C
:1003100080008F77809380000895809180008F7D8A
:10032000F9CF80918000877FF5CF84B58F7784BD2A
:10033000089584B58F7DFBCF8091B0008F77809337
:10034000B00008958091B0008F7DF9CF809190002A
:100350008F77809390000895809190008F7DF9CFE2
:1003600080919000877FF5CF8091A0008F77809358
:10037000A00008958091A0008F7DF9CF8091A0000A
:10038000877FF5CF809120018F778093200108959A
:10039000809120018F7DF9CF80912001877FF5CF5B
:1003A000CF93DF93282F30E0F901E458FE4F84917A
:1003B000F901EE53FE4FD491F901EE5DFD4FC4916A
:1003C000CC23A1F081110E946901EC2FF0E0EE0F27
:1003D000FF1FEE59FE4FA591B491EC91ED2381E002
:1003E00090E009F480E0DF91CF91089580E090E003
:1003F000FACF1F93CF93DF93282F30E0F901E45811
:10040000FE4F8491F901EE53FE4FD491F901EE5D58
:10041000FD4FC491CC23A9F0162F81110E946901D0
:10042000EC2FF0E0EE0FFF1FE85FFD4FA591B491B8
:100430008FB7F894EC91111108C0D095DE23DC93AE
:100440008FBFDF91CF911F910895DE2BF8CFCF930F
:10045000DF9390E0FC01EE53FE4F24918E5D9D4FA3
:10046000FC0184918823C9F090E0880F991FFC015A
:10047000E85BFE4FA591B491FC01E85FFD4FC5918B
:10048000D49161110DC09FB7F8948C91209582236F
:100490008C938881282328839FBFDF91CF91089573
:1004A000623051F49FB7F8943C91822F809583235A
:1004B0008C93E8812E2BEFCF8FB7F894EC912E2BF5
:1004C0002C938FBFEACF4F925F926F927F928F9261
:1004D0009F92AF92BF92CF92DF92EF92FF920F93D3
:1004E0001F93CF938C014A015B01809110028A31E6
:1004F00099F08F3F09F46FC0CF911F910F91FF903A
:10050000EF90DF90CF90BF90AF909F908F907F90B3
:100510006F905F904F900895E8E6F2E0C491C7FDB8
:10052000EBCF61E08AE10E9427022801712C612C47
:10053000CC23E9F0980150E040E0C23009F01FC13F
:1005400028013A0160E970ED83E090E00E94AA156D
:1005500069017A0181E0C81AD108E108F1088FEF3A
:10056000C816D104E104F10409F00CF495C168E463
:1005700078EE81E090E0A30192010E94AA15690142
:100580007A0181E0C81AD108E108F108CC2309F406
:10059000A1C1C23009F094C18FEFC816D104E104A3
:1005A000F10409F00CF494C164E274EF80E090E08F
:1005B000A30192010E94AA1569017A0181E0C81A7B
:1005C000D108E108F10885E09091B100987F892B6E
:1005D0008093B1009BC18AE180931002E8E6F2E0CB
:1005E000C4918C2FCF3F09F487CFC23009F468C083
:1005F00060F4CC2379F1C13009F444C087FD7CCF8D
:1006000061E08AE10E94270295CFC43009F499C0C5
:1006100008F478C0C53091F71092200110922101A2
:100620008091210188608093210180912101816066
:1006300080932101ECE3F2E0E491F0E0EE0FFF1F84
:10064000E85FFD4F85919491ECEDF1E0E491E0934A
:10065000540467CF14BC15BC84B5826084BD85B5D5
:10066000816085BDECE3F2E0E491F0E0EE0FFF1F66
:10067000E85FFD4F85919491ECEDF1E0E491E0931A
:100680005B044FCF10928000109281008091810016
:1006900088608093810080918100816080938100D7
:1006A000ECE3F2E0E491F0E0EE0FFF1FE85FFD4FB6
:1006B00085919491ECEDF1E0E491E0935A0431CF0F
:1006C0001092B0001092B1008091B00082608093CF
:1006D000B0008091B10081608093B100ECE3F2E062
:1006E000E491F0E0EE0FFF1FE85FFD4F85919491DC
:1006F0009093590480935804ECEDF1E0E491E09379
:1007000057040FCF109290001092910080919100A9
:100710008860809391008091910081608093910026
:10072000ECE3F2E0E491F0E0EE0FFF1FE85FFD4F35
:1007300085919491ECEDF1E0E491E0935604C3E0EF
:10074000F0CE1092A0001092A1008091A1008860CC
:100750008093A1008091A10081608093A100ECE3CF
:10076000F2E0E491F0E0EE0FFF1FE85FFD4F8591AE
:100770009491ECEDF1E0E491E0935504D2CE60E089
:1007800072E18AE790E00E94AA1569017A0181E08E
:10079000C81AD108E108F108C13039F4809181000C
:1007A000887F816080938100B1C0C33039F480912B
:1007B0009100887F816080939100A8C0C43039F493
:1007C0008091A100887F81608093A1009FC0C53087
:1007D00009F09CC080912101887F81608093210174
:1007E00095C0C7BC20937004309371044093720489
:1007F0005093730480916E00826080936E007CCE73
:10080000C092B300209368043093690440936A0453
:1008100050936B04809170008260809370006CCE66
:10082000D0929900C092980020936404309365049C
:1008300040936604509367048091710082608093B6
:1008400071005ACED092A900C092A80020936004F3
:10085000309361044093620450936304809172006A
:1008600082608093720048CEC43061F3CCF2C53010
:1008700009F042CED0922901C092280120935C0455
:1008800030935D0440935E0450935F048091730045
:1008900082608093730030CE83E096CE62E17AE787
:1008A00080E090E0A30192010E94AA1569017A01FB
:1008B00081E0C81AD108E108F108C1E086E084CEE1
:1008C0008FEFC816D104E104F10409F03CF7C1E050
:1008D00084E07ACE93E08FEFC816D104E104F104EE
:1008E00089F084F062E17AE780E090E0A301920170
:1008F0000E94AA1569017A0181E0C81AD108E108AD
:10090000F10894E085B5887F892B85BDD801AA0FB1
:10091000BB1FA50194010E94C91528EE33E040E0F9
:1009200050E00E94D415C23009F46ACF0CF09CCF7D
:10093000CC2309F456CFC13009F0DECDD092890026
:10094000C092880020936C0430936D0440936E0431
:1009500050936F0480916F00826080936F00CCCDC4
:100960003FB7F8948091500490915104A0915204A3
:10097000B091530426B5A89B05C02F3F19F00196EE
:10098000A11DB11D3FBFBA2FA92F982F8827BC01E9
:10099000CD01620F711D811D911D42E0660F771F11
:1009A000881F991F4A95D1F708958F929F92AF9211
:1009B000BF92CF92DF92EF92FF924B015C010E94B7
:1009C000B0046B017C010E94B0046C197D098E0992
:1009D0009F09683E734081059105A8F321E0821AC2
:1009E0009108A108B10888EEC80E83E0D81EE11C6A
:1009F000F11C81149104A104B10429F7FF90EF9038
:100A0000DF90CF90BF90AF909F908F9008952FB7B9
:100A1000F89460914C0470914D0480914E04909133
:100A20004F042FBF0895AF92BF92CF92DF92EF9203
:100A3000FF920F931F93CF93DF936C017B018B0188
:100A4000040F151FEB015E01AE18BF08C017D107D8
:100A500059F06991D601ED91FC910190F081E02D62
:100A6000C6011995892B79F7C501DF91CF911F91A7
:100A70000F91FF90EF90DF90CF90BF90AF900895CF
:100A8000CF93DF93DC0126E0629FA00DB11D1124FE
:100A900090965C934E935F9721E091962C9391975B
:100AA000FC01E359FF4F0190F081E02DEC01C459A6
:100AB000DF4F2881222341F0309719F0DC016623B3
:100AC00029F0DF91CF9108953097D9F35C968C91FE
:100AD000DF91CF911994CF92DF92EF92FF920F9313
:100AE0001F93CF93DF93EC01162F042FFC0186E0B8
:100AF000689FE00DF11D112411A2878D90A1813016
:100B0000910509F180F08230910509F443C0039703
:100B100009F445C0DF91CF911F910F91FF90EF90A5
:100B2000DF90CF9008954423A9F341E050E0CE0137
:100B30000E9440050E940705C85ADF4F68837983E9
:100B40008A839B83E7CF0E940705FE01E85AFF4F87
:100B5000C080D180E280F380AB01BC014C195D09FB
:100B60006E097F09729680819181B0E0A0E08417C0
:100B70009507A607B70770F442E050E0612FCE0159
:100B8000DF91CF911F910F91FF90EF90DF90CF9069
:100B90000C94400543E050E00111BCCFEFCF50E092
:100BA00040E0ECCF862F642F0C942702862F642F11
:100BB0000C94F901862F0C94D0012F923F924F9202
:100BC0005F926F927F928F929F92AF92BF92CF92DD
:100BD000DF92EF92FF920F931F93CF93DF93CDB7E6
:100BE000DEB72C970FB6F894DEBF0FBECDBF9C8743
:100BF0008B8784599F4F9A83898381E0A981BA8129
:100C00008C930E940705EB85FC85E45AFF4FFC831B
:100C1000EB830081118122813381AB01BC01401B38
:100C2000510B620B730BEB85FC85E859FF4F8081FC
:100C30009181B0E0A0E084179507A607B70708F0F8
:100C40004FC110E0CB84DC84F6E6CF0ED11CEB84E0
:100C5000FC8422E6E20EF11CD6018C91181758F4A0
:100C6000D701ED91FC91E10FF11D62E080810E94BE
:100C700027021F5FF1CF312C4B845C84B7E64B0E0B
:100C8000511CEB84FC84E4E6EE0EF11C812C912CCB
:100C9000540183942B853C852E593F4F3A872987F1
:100CA000D2018C91381608F063C0032D10E0D701F3
:100CB000ED91FC91E00FF11F61E080810E9427021D
:100CC000D701ED91FC91E00FF11F60E080810E945F
:100CD000F901D501C401032C04C0880F991FAA1F74
:100CE000BB1F0A94D2F79E838D83FC01E095F0959B
:100CF000F887EF83212CD6018C91281620F5622CE1
:100D0000712CA985BA85ED91FC91E60DF71D8081C6
:100D10000E94D001660C771CEB85FC85E60DF71D63
:100D2000892B51F4808591852D813E81822B932BD7
:100D3000918780872394DFCF80859185AF81B885A7
:100D40008A239B23F5CFD701ED91FC91E00FF11F92
:100D500061E080810E94F901F70180819181080F93
:100D6000191F60E0D8018C910E942702339498CF1C
:100D70000B851C85C801CC9678012FEF3FEFF7015A
:100D8000478D50A1452B21F4148E368F258F11A24B
:100D9000F6E0EF0EF11CE816F90689F7A12C8B841A
:100DA0009C8420E6820E911C96E0392ED6018C910F
:100DB000A81608F058C0B12C6A2C712CB4E06B0E48
:100DC000711C660C771CEB85FC856E0E7F1ED201B4
:100DD0008C91B81608F045C0F301408151810B2C6D
:100DE00002C0569547950A94E2F7A89EC0011124C7
:100DF0008B0D911DEB85FC8560E0258D368D82176E
:100E0000930709F472C06F5F36966A30B1F740FFFE
:100E100026C0EB85FC8570E060E0248D211119C0AF
:100E2000D401ED91FC91E80FF91F4081369EF0014D
:100E3000379EF00D11242B853C85E20FF31F448F64
:100E4000968F858F10A2178E41E0C9010E946B0515
:100E500006C06F5F7F4F36966A307105F1F6B39426
:100E6000B6CFA394A3CFD12CD80191968C918111A8
:100E7000D82E0A5F1F4FE016F106B1F70E94070552
:100E8000EB81FC816083718382839383DD2041F158
:100E9000AB85BC8591968C919197882309F15F96DB
:100EA0008D919C9190970197D9F45C968C912C969A
:100EB0000FB6F894DEBF0FBECDBFDF91CF911F916B
:100EC0000F91FF90EF90DF90CF90BF90AF909F90E9
:100ED0008F907F906F905F904F903F902F900895EC
:100EE000E981FA81108280E0E2CF41708B859C8598
:100EF000ADCF089590E080E0089560E081E30E9426
:100F0000F90160E082E30C94F901CF9360E086E29E
:100F10000E94F90160E085E20E94F90160E084E24C
:100F20000E94F901C091670361E086E2CC2341F0A1
:100F300061E085E2C13021F0C23021F461E084E259
:100F40000E94F90160E083E20E94F90160E082E220
:100F50000E94F90160E081E20E94F9018091F702AC
:100F6000811127C061E083E20E94F90160E089E11C
:100F70000E94F90160E088E10E94F90160E087E1E8
:100F80000E94F901809149048823E9F08091480486
:100F9000811119C061E089E1CC2341F061E088E171
:100FA000C13021F0C23079F461E087E1CF910C9437
:100FB000F901813019F461E082E2D6CF8230B1F6D6
:100FC00061E081E2D1CFCF9108958091D703813044
:100FD00059F020F0823019F00C94850781E080935D
:100FE000F70280936703F8CF1092F702109267031D
:100FF000F3CF8330910511F184309105A1F102976F
:10100000B1F044E650E060E070E088EE93E00E94CA
:10101000630266E970E080E090E00E94D5044CE253
:1010200051E060E070E08CED95E00C94630242E3E7
:1010300050E060E070E080ED97E0F7CF44E650E0EC
:1010400060E070E080E293E00E94630264E670E09A
:1010500080E090E00E94D50444E650E060E070E05B
:1010600080E293E0E2CF4CE251E060E070E084EF98
:1010700091E00E9463026CE271E080E090E00E94E7
:10108000D50440E951E060E070E08CE291E0CDCF22
:10109000CF92DF92EF92FF920F931F93CF93DF9344
:1010A0001F921F92CDB7DEB769834A83880F991FBD
:1010B0000091CA041091CB04000F111FE4E7F4E083
:1010C0009F01245734402017310714F41192F8CFB0
:1010D0002981FC01EC58FB4F21838A81808360E0E9
:1010E0008091C8040E94F9011016110604F5015000
:1010F0001109F801EC58FB4FE080D090C604C09075
:10110000C40488E0F82E6E2D661F6627661F8C2D9E
:101110000E94F901EE0C61E08D2D0E94F90160E062
:101120008D2D0E94F901FA94F110EDCFDDCF61E031
:101130008091C8040F900F90DF91CF911F910F9174
:10114000FF90EF90DF90CF900C94F901EF92FF9217
:101150001F93CF93DF932091CA043091CB04821761
:101160009307B4F4EC0123E0880F991F2A95E1F767
:101170009C012C573B4F790111E0F70111927F013F
:1011800040E0612FCE010E9448081F5F1930A9F787
:10119000DF91CF911F91FF90EF900895CF93DF9350
:1011A000D0E0C0E0CE010E94A6082196C830D1054B
:1011B000C9F7DF91CF910895E091CA04F091CB0473
:1011C0008E179F073CF56830710520F557FD22C04A
:1011D00048305105F9F0E0E8F0E0DF0102C0B595D4
:1011E000A7954A95E2F7AD01FC0133E0EE0FFF1F32
:1011F0003A95E1F7E60FF71FEC58FB4F30892223B1
:1012000031F0432B408B6F5F40890C944808409528
:101210004323F8CF0895CF93DF93EC0160E08E81F4
:101220000E94F90161E08E810E94F90160E08E81E7
:101230000E94F9018BE891E00197F1F7DF91CF91DE
:101240000895CF92DF92EF92FF920F931F93CF9367
:10125000DF936C017C0187E0E80EF11CD0E0C0E078
:10126000062F10E0B8010C2E02C0759567950A9400
:10127000E2F76170F70181917F010E94F9012196E7
:10128000C430D10579F7C601DF91CF911F910F913D
:10129000FF90EF90DF90CF900C940B09CF92DF92EC
:1012A000EF92FF920F931F93CF93DF93EC01F62EF3
:1012B000642F8C810E94F9018D818F3F19F060E0CD
:1012C0000E94F9010F2D10E08F8584FF25C06E016B
:1012D00087E0C80ED11CF12CE12CB8010E2C02C005
:1012E000759567950A94E2F76170F60181916F0137
:1012F0000E94F901FFEFEF1AFF0A88E0E816F104F7
:1013000061F7CE01DF91CF911F910F91FF90EF9088
:10131000DF90CF900C940B09B80184E07595679528
:101320008A95E1F7CE010E9421096F2DCE01DF9150
:10133000CF911F910F91FF90EF90DF90CF900C9481
:10134000210940E0682F8CEC94E00C944E0981E078
:101350000E94A1098BE39FE10197F1F70895CF93D4
:10136000DF93823029F49091DB0498609093DB0442
:101370008093DF041092E00480E48093E10480E134
:101380008093E20480E58093E30461E08091D004DF
:101390000E9427028091D1048F3F19F061E00E94E2
:1013A000270261E08091D2040E942702CCECD4E0B5
:1013B0009E012C5C34408091DB0484FD0BC084E0F2
:1013C00090E021962817390744F461E08E810E944D
:1013D0002702EECF88E090E0F4CF8BE39DE0019709
:1013E000F1F760E08091D0040E94F90160E0809103
:1013F000D2040E94F9018091D1048F3F19F060E07E
:101400000E94F9018091DB0484FD34C063E08CEC20
:1014100094E00E942109CBE4D6E4CE010197F1F7D4
:1014200063E08CEC94E00E9421092197F1F763E0DE
:101430008CEC94E00E94210983E592E00197F1F79A
:1014400062E08CEC94E00E9421098091DB048062D0
:101450000E94A10984E08093DC048CE00E94A10931
:101460000E94A70982E08093DD0486E0DF91CF919E
:101470000C94A10980620E94A1098BE496E4019773
:10148000F1F78091DB0480620E94A10983E592E07C
:101490000197F1F78091DB0480620E94A109D5CF0A
:1014A0009091DF04691710F06FEF690FE62FF0E0FD
:1014B000E453FB4F9489890F80680C94A1090E9422
:1014C000A709ECECF4E080898B7F808B88600E9418
:1014D000A1090E947D070E94CE0860E086E20E947A
:1014E000F90160E085E20E94F90160E084E20E9477
:1014F000F90160E083E20E94F90160E082E20E946B
:10150000F90160E081E20E94F90110924904109211
:10151000480481E080930002109267031092F70262
:10152000089541E00E944E0981E090E008958F9275
:101530009F92AF92BF920F931F93CF93DF93CDB73C
:10154000DEB7A1970FB6F894DEBF0FBECDBF19A2CC
:10155000423008F44AE08E010F5D1F4F842E912C1B
:10156000B12CA12CA50194010E94D415E62FB9013C
:10157000CA01EA3044F5E05DD801EE938D01232BDA
:10158000242B252B79F790E080E0109769F0FD017E
:1015900001900020E9F73197AF014A1B5B0BBD01B9
:1015A0008CEC94E00E941305A1960FB6F894DEBF70
:1015B0000FBECDBFDF91CF911F910F91BF90AF9024
:1015C0009F908F900895E95CD7CF009769F0FC0158
:1015D00001900020E9F73197AF01481B590BBC017E
:1015E0008CEC94E00C94130590E080E008958091D9
:1015F00047048823C1F061E080E00E94500A8FE236
:1016000092E00E94E50A8091D703811104C086E32D
:1016100092E00C94E50A813019F482E492E0F9CF6B
:101620008EE492E0F6CF8091000281113EC080915D
:101630004904882321F0809148048823B1F161E0B6
:1016400080E00E94500A8AE592E00E94E50A8091BB
:10165000670381111AC08DE592E00E94E50A8CE6CD
:1016600092E00E94E50A8091F702811116C08DE593
:1016700092E00E94E50A80914904811116C060E061
:101680000E94500A8FE692E0C4CF813019F482E6BE
:1016900092E0E3CF87E692E0E0CF813019F482E672
:1016A00092E0E7CF87E692E0E4CF08950F931F938F
:1016B000CF938EE20E94D001892B99F180914A0448
:1016C000882379F180914904882321F0809148048E
:1016D000882339F162E370E080E090E00E94D50455
:1016E0008EE20E94D001892BE1F0C091470481E095
:1016F000C827C093470482E090E00E94F907CC23FA
:1017000009F48AC00E94A70980E892E00E94E50AD5
:101710000E94E5070E94F70A8EE20E94D001892B01
:10172000D9F780E30E94D001892B09F444C062E319
:1017300070E080E090E00E94D50480E30E94D00138
:10174000892BC9F180914A0481116DC081E0809399
:101750004A0481E090E00E94F9078091DC04982F10
:1017600094609093DC048C600E94A1090E94A709F8
:101770008AE992E00E94E50A61E085E00E94500A51
:1017800087EA92E00E94E50A6CED75E080E090E067
:101790000E94D504109200020E94A7098FE692E0F1
:1017A0000E94E50A0E94F70A0E94850780E30E94D2
:1017B000D001892BD9F78FE20E94D001892B09F43F
:1017C0006BC080914A04882309F466C062E370E02C
:1017D00080E090E00E94D5048FE20E94D001892B26
:1017E00009F45AC083E090E00E94F907809149040F
:1017F00081112BC081E080934904109248040E941B
:1018000007056093F3027093F4028093F5029093BE
:10181000F6020E94A7093BC00E94A7098CE892E04B
:101820000E94E50A77CF80914904882329F08091AE
:101830004804882309F4BACF84E090E00E94F907B5
:1018400010924A040E945F0AB1CF8091480491E04F
:10185000892780934804882319F10E947D070E94FC
:10186000CE080E9407056093EE027093EF0280930A
:10187000F0029093F1020E94A70960E080E00E94CC
:10188000500A8DEA92E00E94E50A0E94F70A8FE270
:101890000E94D001892BD9F7CF911F910F91089504
:1018A0000E940705AB01BC018091F3029091F40204
:1018B000A091F502B091F6020091EE021091EF02B4
:1018C0002091F0023091F102801B910BA20BB30B1F
:1018D000840F951FA61FB71F8093F3029093F40205
:1018E000A093F502B093F60294CF8F929F92AF929D
:1018F000BF92CF92DF92EF92FF924B015C010E9468
:1019000007056B017C010E9407056C197D098E0992
:101910009F09681579058A059B0588F40E94560B76
:1019200080914804811115C080914A04882341F0B8
:1019300061E070E080E090E00E94D504E4CF81E0B7
:10194000FF90EF90DF90CF90BF90AF909F908F90DF
:10195000089580E0F5CF1F920F920FB60F921124D9
:101960002F933F938F939F93AF93BF9380914C049A
:1019700090914D04A0914E04B0914F0430914B04CE
:1019800023E0230F2D3758F50196A11DB11D20939B
:101990004B0480934C0490934D04A0934E04B09359
:1019A0004F048091500490915104A0915204B09141
:1019B00053040196A11DB11D8093500490935104CE
:1019C000A0935204B0935304BF91AF919F918F9114
:1019D0003F912F910F900FBE0F901F90189526E802
:1019E000230F0296A11DB11DD2CF1F920F920FB6E9
:1019F0000F9211240BB60F922F933F934F935F9347
:101A00006F937F938F939F93AF93BF93EF93FF93C6
:101A10008091680490916904A0916A04B0916B046C
:101A2000892B8A2B8B2BE1F190915704E09158047C
:101A3000F091590480818927808380916804909176
:101A40006904A0916A04B0916B04181619061A066D
:101A50001B069CF48091680490916904A0916A042B
:101A6000B0916B040197A109B10980936804909328
:101A70006904A0936A04B0936B04FF91EF91BF9146
:101A8000AF919F918F917F916F915F914F913F9116
:101A90002F910F900BBE0F900FBE0F901F901895B7
:101AA00080911002E8E6F2E0E4919FEF909310023B
:101AB000E230E9F040F4EE2389F0E13091F060E0AB
:101AC0000E94F901DACFE43049F110F1E530B9F7BD
:101AD000909173009D7F90937300F1CF10926E00F0
:101AE000EECF90916F009D7F90936F00E8CF909123
:101AF00070009D7F9093700091E09093B000909162
:101B0000B100987F94609093B1001092B300D7CF4A
:101B1000909171009D7F90937100D1CF9091720050
:101B20009D7F90937200CBCFCF93DF93CDB7DEB77D
:101B300064970FB6F894DEBF0FBECDBF789484B51E
:101B4000826084BD84B5816084BD85B5826085BDB9
:101B500085B5816085BD80916E00816080936E0047
:101B60001092810080918100826080938100809139
:101B700081008160809381008091800081608093EA
:101B800080008091B10084608093B1008091B000AA
:101B900081608093B0008091910082608093910079
:101BA000809191008160809391008091900081608C
:101BB000809390008091A10082608093A100809129
:101BC000A10081608093A1008091A000816080933A
:101BD000A0008091210182608093210180912101E8
:101BE0008160809321018091200181608093200198
:101BF00080917A00846080937A0080917A0082607C
:101C000080937A0080917A00816080937A0080913D
:101C10007A00806880937A001092C10061E089E1C7
:101C20000E94270261E088E10E94270261E087E1CB
:101C30000E94270210E000E08091CA049091CB043A
:101C4000081719072CF441E06CE0C8010E9448080D
:101C50008091CA049091CB04081719072CF44AE02C
:101C60006AE0C8010E944808C8010E94A6080F5FE8
:101C70001F4F0830110501F761E081E30E94270240
:101C800061E082E30E94270282E00E94AF0960E0E7
:101C900080E30E94270260E08FE20E94270261E059
:101CA0008AE10E94270261E086E20E94270261E049
:101CB00085E20E94270261E084E20E94270261E03F
:101CC00083E20E94270261E082E20E94270261E033
:101CD00081E20E9427020E945F0A0E94560B8091B7
:101CE0004A04882309F47DC080914904882321F0A7
:101CF00080914804882331F180914704882309F4B6
:101D000080C088ED93E00E94DD058823D9F08936F4
:101D100009F06FC08091D70390E0019663E070E016
:101D20000E946B168093D7030E94E50782E090E043
:101D30000E94F9070E94F70A68EC70E080E090E0EA
:101D40000E94D5040E94850780914904882309F4E4
:101D500048C080914804811144C00E940705009149
:101D6000F3021091F4022091F5023091F6026B011A
:101D70007C01C01AD10AE20AF30A20E6C2162AEE52
:101D8000D206E104F10408F485C0109249040E94CF
:101D90007D070E94CE0884E090E00E94F9070E942F
:101DA000A7098EEB92E00E94E50A60ED77E080E003
:101DB00090E00E94D5040E945F0A81E080934A046B
:101DC0008091DC04982F94609093DC048C600E94D6
:101DD000A1098FE692E00E94E50A0E94F70A0E949C
:101DE000850780E090E0892B09F477CF0E940000FE
:101DF00074CF8A3609F098CF8091D70390E002968D
:101E00008DCF88E693E00E94DD058823B9F08F36F8
:101E100071F580916703823040F58F5F809367038F
:101E200082E090E00E94F9070E9485070E94F70A6D
:101E300068EC70E080E090E00E94D50488EF92E0CA
:101E40000E94DD05882309F47DCF8037D1F480918D
:101E5000F7028230A0F48F5F8093F70282E090E077
:101E60000E94F9070E94850765CF82E0D7CF8B36A5
:101E700029F780916703882399F28150CFCF82E0C0
:101E8000EBCF8C3609F05ECF8091F702882331F3D7
:101E90008150E2CFC701B6010E940A164B015C01D6
:101EA00020E030E64AE656E40E94051687FFE2C0CD
:101EB0001092F20260E080E00E94500A88E0E1E1C6
:101EC000F2E0DE01119601900D928A95E1F7809182
:101ED000F20290E0880F991FE1E0F0E0EC0FFD1FA7
:101EE0008E0F9F1FFC01808191810E94E50A85EB86
:101EF00092E00E94E50A60E08CE00E94500A60E6F1
:101F00007AEE80E090E06C197D098E099F0928EE39
:101F100033E040E050E00E94D41549015A012A30D4
:101F2000310524F48FEC92E00E94E50A4AE0C501F5
:101F3000B4010E94970A81ED92E00E94E50A61E0F7
:101F400080E00E94500AC701B60124E0660F771FA7
:101F5000881F991F2A95D1F720E63AEE40E050E01D
:101F60000E94AA158901F12CE12C6FE5E016F1061B
:101F70000CF46FEF41E08CEC94E00E944E092FEFDF
:101F8000E21AF20A30E1E316F10479F78091F702E0
:101F9000811122C060E082E30E94F90161E081E3E7
:101FA0000E94F9011AEFE12EFF24FA940CEFC02EE3
:101FB000DD24DA940EEF1FEF580182E0A80EB11C69
:101FC00080914804811104C080914A0481116EC03F
:101FD0000E947D070E94CE088091F702813011F5A2
:101FE00061E082E30E94F90160E081E30E94F9016F
:101FF000EAEFEE2EFF24FA94FCEFCF2EDD24DA94E4
:102000000EEF1FEF580192E0A90EB11C8091480419
:10201000811104C080914A04811181C10E947D0711
:102020000E94CE088091F702823009F0DACE61E09A
:1020300082E30E94F90161E081E30E94F9014AEF25
:10204000C42EDD24DA945CEFA52EBB24BA940EEFE7
:102050001FEF2801F2E04F0E511C809148048111BE
:1020600004C080914A0481110CC30E947D070E9424
:10207000CE08B7CE20E030E64AEE56E4C501B40102
:102080000E94051687FF04C081E08093F20212CF00
:1020900020E038EC4FE257E4C501B4010E94051678
:1020A00087FF02C082E0F1CF83E0EFCF312C212CFB
:1020B0008091480481118CCF80914A04882309F4CF
:1020C00087CF21E0A101B50187E090E00E94DC0804
:1020D000410193E0891A910821E0A401B80187E049
:1020E00090E00E94DC08F1013697FC87EB8721E045
:1020F000AF01B60187E090E00E94DC089101295011
:102100003109388B2F8721E04F855889B70187E047
:1021100090E00E94DC0821E0A101B50186E090E09A
:102120000E94DC0821E0A401B80186E090E00E9452
:10213000DC0821E04B855C85B60186E090E00E94DA
:10214000DC0821E04F855889B70186E090E00E94C5
:10215000DC08A7E06A2E712C6218730821E0A30145
:10216000B50190E080E00E94DC08B4E04B2E512CD9
:102170004218530821E0A201B80190E080E00E94DB
:10218000DC0881E090E0821993099E878D8721E029
:10219000AC01B60190E080E00E94DC08EEEFFFEFBA
:1021A000E219F309FA87E98721E0AF01B70190E06E
:1021B00080E00E94DC0821E0A301B50181E090E00D
:1021C0000E94DC0821E0A201B80181E090E00E94B9
:1021D000DC0821E04D855E85B60181E090E00E943B
:1021E000DC0821E049855A85B70181E090E00E9432
:1021F000DC0860E570E080E090E00E94750C8823C8
:1022000009F4E6CE20E0A101B50187E090E00E944C
:10221000DC0820E0A401B80187E090E00E94DC081F
:1022200020E04B855C85B60187E090E00E94DC08E9
:1022300020E04F855889B70187E090E00E94DC08D4
:1022400020E0A101B50186E090E00E94DC0820E0DA
:10225000A401B80186E090E00E94DC0820E04B85F4
:102260005C85B60186E090E00E94DC0820E04F85A6
:102270005889B70186E090E00E94DC0820E0A301C5
:10228000B50190E080E00E94DC0820E0A201B801E6
:1022900090E080E00E94DC0820E04D855E85B6017C
:1022A00090E080E00E94DC0820E049855A85B70173
:1022B00090E080E00E94DC0820E0A301B50181E00D
:1022C00090E00E94DC0820E0A201B80181E090E0EB
:1022D0000E94DC0820E04D855E85B60181E090E03B
:1022E0000E94DC0820E049855A85B70181E090E032
:1022F0000E94DC08FFEF2F1A3F0A28E02216310463
:1023000009F0D6CE0F5F1F4F3FEFC31AD30A8FEFEE
:10231000E81AF80A0630110509F04ECE5DCE312CD0
:10232000212C80914804811179CE80914A04882320
:1023300009F474CE21E0A101B50187E090E00E948C
:10234000DC084101E3E08E1A910821E0A401B80104
:1023500087E090E00E94DC089101265031093A871D
:10236000298721E049855A85B60187E090E00E94DF
:10237000DC08C1010997988B8F8721E0AC01B70178
:1023800087E090E00E94DC0821E0A101B50186E031
:1023900090E00E94DC0821E0A401B80186E090E012
:1023A0000E94DC0821E049855A85B60186E090E06C
:1023B0000E94DC0821E04F855889B70186E090E053
:1023C0000E94DC0821E0A101B50185E090E00E94B7
:1023D000DC0821E0A401B80185E090E00E94DC085F
:1023E00021E049855A85B60185E090E00E94DC082D
:1023F00021E04F855889B70185E090E00E94DC0814
:1024000067E0662E712C6218730821E0A301B50104
:1024100090E080E00E94DC0874E0472E512C4218C6
:10242000530821E0A201B80190E080E00E94DC089E
:10243000E1E0F0E0E219F309FE87ED8721E0AF016A
:10244000B60190E080E00E94DC082EEF3FEF2219F9
:1024500033093C872B8721E04B855C85B70190E0F1
:1024600080E00E94DC0821E0A301B50181E090E05A
:102470000E94DC0821E0A201B80181E090E00E9406
:10248000DC0821E04D855E85B60181E090E00E9488
:10249000DC0821E04B855C85B70181E090E00E947B
:1024A000DC0821E0A301B50182E090E00E94DC0895
:1024B00021E0A201B80182E090E00E94DC0821E066
:1024C0004D855E85B60182E090E00E94DC0821E047
:1024D0004B855C85B70182E090E00E94DC0862E3F6
:1024E00070E080E090E00E94750C882309F496CD9E
:1024F00020E0A101B50187E090E00E94DC0820E027
:10250000A401B80187E090E00E94DC0820E0498542
:102510005A85B60187E090E00E94DC0820E04F85F4
:102520005889B70187E090E00E94DC0820E0A10113
:10253000B50186E090E00E94DC0820E0A401B8012B
:1025400086E090E00E94DC0820E049855A85B601CB
:1025500086E090E00E94DC0820E04F855889B701B2
:1025600086E090E00E94DC0820E0A101B50185E052
:1025700090E00E94DC0820E0A401B80185E090E032
:102580000E94DC0820E049855A85B60185E090E08C
:102590000E94DC0820E04F855889B70185E090E073
:1025A0000E94DC0820E0A301B50190E080E00E94D9
:1025B000DC0820E0A201B80190E080E00E94DC0885
:1025C00020E04D855E85B60190E080E00E94DC0849
:1025D00020E04B855C85B70190E080E00E94DC083C
:1025E00020E0A301B50181E090E00E94DC0820E03A
:1025F000A201B80181E090E00E94DC0820E04D8556
:102600005E85B60181E090E00E94DC0820E04B8509
:102610005C85B70181E090E00E94DC0820E0A30126
:10262000B50182E090E00E94DC0820E0A201B80140
:1026300082E090E00E94DC0820E04D855E85B601D6
:1026400082E090E00E94DC0820E04B855C85B701C9
:1026500082E090E00E94DC083FEF231A330A88E012
:102660002816310409F05DCE0F5F1F4F9FEFC91A86
:10267000D90AEFEFEE1AFE0A0630110509F0C2CCB6
:10268000D1CC2EEF222E33243A9421E030E0388B47
:102690002F8784E090E09A8B898BE7EFFFEFFA8732
:1026A000E9872AEF3FEF3C872B878DEF9FEF9E87CF
:1026B0008D8737E0632E712CE7E0F0E0E619F7092B
:1026C000FC8BEB8B809148048111CFCC80914A0424
:1026D000882309F4CACCF12CE12C97E0892E912CA7
:1026E0008E189F0821E04B895C89B201C4010E94C9
:1026F000DC0821E04D855E85B801C4010E94DC083C
:1027000021E04B855C85B501C4010E94DC0821E015
:1027100049855A85B601C4010E94DC0821E0A30165
:10272000B201C7010E94DC0821E049895A89B80139
:10273000C7010E94DC0821E04F855889B501C70117
:102740000E94DC0821E0A101B601C7010E94DC085B
:10275000FFEFEF1AFF0A24E0E216F10409F0BDCF03
:102760006EE170E080E090E00E94750C882309F42F
:102770007CCCF12CE12C87E0882E912C8E189F08C0
:1027800020E04B895C89B201C4010E94DC0820E092
:102790004D855E85B801C4010E94DC0820E04B85B0
:1027A0005C85B501C4010E94DC0820E049855A859A
:1027B000B601C4010E94DC0820E0A301B201C701F8
:1027C0000E94DC0820E049895A89B801C7010E94AB
:1027D000DC0820E04F855889B501C7010E94DC085C
:1027E00020E0A101B601C7010E94DC083FEFE31A17
:1027F000F30A84E0E816F10409F0BDCF91E0691A0C
:102800007108ED85FE853196FE87ED872B853C8529
:102810002F5F3F4F3C872B8789859A8501969A8742
:102820008987E989FA893197FA8BE98B2F8538896D
:1028300021503109388B2F8731E0231A31088FEF6F
:102840006816780609F038CF0F5F1F4F9FEFA91A5F
:10285000B90AEFEFCE1ADE0A0630110509F0F9CBFE
:10286000C0CACF93DF93C3E3D0E0D093C504C09335
:10287000C40484E390E09093C7048093C60485E386
:1028800090E09093C9048093C80488E090E090930E
:10289000CB048093CA0461E083E30E94270261E0D5
:1028A0008091C6040E94270261E08091C8040E94C2
:1028B000270261E08091C8040E94F901D093C50409
:1028C000C093C404E4E8F4E0119284E0E43CF80727
:1028D000D9F7D0E0C0E08091CA049091CB04C8172A
:1028E000D9073CF540E06FE0CE010E944808809196
:1028F000CA049091CB04C817D9072CF447E06BE0C9
:10290000CE010E94480840E069E0CE010E944808DC
:10291000CE010E94A6088091CA049091CB04C817EA
:10292000D9072CF440E06CE0CE010E9448082196C3
:10293000D2CF1092CF041092CE0487E292E090930F
:10294000CD048093CC0488E28093D0048FEF8093F1
:10295000D10489E28093D2048AE28093D3048BE28B
:102960008093D4048CE28093D5048DE28093D604C6
:102970001092D7041092D8041092D9041092DA045D
:102980001092DB0481E00E94AF0910926A0310925A
:102990006E0310926D0310926F038DE192E090939D
:1029A000690380936803E4E8F3E0108214821382E1
:1029B0001582369683E0E03CF807B9F78CE092E0A8
:1029C0009093CB038093CA038BE092E09093CD0366
:1029D0008093CC0382E08093CE0381E08093CF0389
:1029E0008EE092E09093C9038093C8038AE090E060
:1029F0009093D1038093D00384EF91E09093D3031D
:102A00008093D2031092D6031092D5031092C40380
:102A10001092C5031092C6031092C7031092D403FC
:102A20001092FA021092FE021092FD021092FF0222
:102A30008DE192E09093F9028093F802E4E1F3E0F3
:102A400080E593E0108214821382158236968E17E9
:102A50009F07C1F787E092E090935B0380935A034E
:102A600086E092E090935D0380935C0382E0809324
:102A70005E0381E080935F0389E092E090935903C5
:102A8000809358038AE090E0909361038093600301
:102A900084EF91E090936303809362031092660346
:102AA000109265031092540310925503109256032E
:102AB00010925703109264031092DA031092DE030F
:102AC0001092DD031092DF038DE192E09093D90321
:102AD0008093D803E4EFF3E010821482138215820E
:102AE000369684E0E033F807B9F782E092E09093FD
:102AF0003B0480933A0481E092E090933D048093FC
:102B00003C0482E080933E0481E080933F0484E0B3
:102B100092E090933904809338048AE090E0909397
:102B200041048093400484EF91E0909343048093A8
:102B300042041092460410924504109234041092FC
:102B40003504109236041092370410924404DF9139
:102B5000CF910895052E97FB1EF400940E94C11595
:102B600057FD07D00E94D41507FC03D04EF40C94F7
:102B7000C11550954095309521953F4F4F4F5F4F70
:102B8000089590958095709561957F4F8F4F9F4FD9
:102B900008950E94F615A59F900DB49F900DA49FD7
:102BA000800D911D11240895A1E21A2EAA1BBB1BB2
:102BB000FD010DC0AA1FBB1FEE1FFF1FA217B30709
:102BC000E407F50720F0A21BB30BE40BF50B661F1F
:102BD000771F881F991F1A9469F7609570958095E3
:102BE00090959B01AC01BD01CF010895A29FB0015A
:102BF000B39FC001A39F700D811D1124911DB29F31
:102C0000700D811D1124911D08950E94471608F42E
:102C100081E00895E89409C097FB3EF49095809573
:102C2000709561957F4F8F4F9F4F9923A9F0F92F92
:102C300096E9BB279395F695879577956795B79510
:102C4000F111F8CFFAF4BB0F11F460FF1BC06F5FF6
:102C50007F4F8F4F9F4F16C0882311F096E911C008
:102C6000772321F09EE8872F762F05C0662371F029
:102C700096E8862F70E060E02AF09A95660F771F3D
:102C8000881FDAF7880F9695879597F90895990F19
:102C90000008550FAA0BE0E8FEEF16161706E80726
:102CA000F907C0F012161306E407F50798F0621B47
:102CB000730B840B950B39F40A2661F0232B242B1C
:102CC000252B21F408950A2609F4A140A6958FEF3B
:102CD000811D811D089597FB072E16F4009407D0DF
:102CE00077FD09D00E94871607FC05D03EF4909529
:102CF00081959F4F0895709561957F4F0895EE0FD0
:102D0000FF1F881F8BBF0790F691E02D1994AA1B17
:102D1000BB1B51E107C0AA1FBB1FA617B70710F0C6
:102D2000A61BB70B881F991F5A95A9F780959095F8
:102D3000BC01CD010895F894FFCF01151413696A01
:102D40001D1C1B706C201F1E6F6BFFD3028502DDE4
:102D500002E60200000000D205D605DA05000000F8
:102D600000910A13057A0779074D4F444F3A200026
:102D70004E4F524D414C20202020200045434F4CC7
:102D80004F4749434F20200050524553494F4E2052
:102D900020202000543A0042414A20004D45442062
:102DA00000414C542000413A004C4953544F2050AC
:102DB0002F20494E4943494152004D4F444F204C2A
:102DC000415641444F00434F4E464947204D414EE6
:102DD00055414C004C41564156414A494C4C415397
:102DE00000554C5452410050415553412E2E2E2037
:102DF00020202020202020004C415641444F2054C8
:102E000045524D494E41444F0030007300505245E9
:102E10004C415641444F00454E4A554147554500A7
:082E200053454341444F0000FB
:020000040003F7
:10E000000D9489F10D94B2F10D94B2F10D94B2F129
:10E010000D94B2F10D94B2F10D94B2F10D94B2F1F0
:10E020000D94B2F10D94B2F10D94B2F10D94B2F1E0
:10E030000D94B2F10D94B2F10D94B2F10D94B2F1D0
:10E040000D94B2F10D94B2F10D94B2F10D94B2F1C0
:10E050000D94B2F10D94B2F10D94B2F10D94B2F1B0
:10E060000D94B2F10D94B2F10D94B2F10D94B2F1A0
:10E070000D94B2F10D94B2F10D94B2F10D94B2F190
:10E080000D94B2F10D94B2F10D94B2F10D94B2F180
:10E090000D94B2F10D94B2F10D94B2F10D94B2F170
:10E0A0000D94B2F10D94B2F10D94B2F10D94B2F160
:10E0B0000D94B2F10D94B2F10D94B2F10D94B2F150
:10E0C0000D94B2F10D94B2F10D94B2F10D94B2F140
:10E0D0000D94B2F10D94B2F10D94B2F10D94B2F130
:10E0E0000D94B2F141546D656761323536300041AF
:10E0F000726475696E6F206578706C6F72657220DE
:10E1000073746B3530305632206279204D4C530099
:10E11000426F6F746C6F616465723E004875683F52
:10E1200000436F6D70696C6564206F6E203D200048
:10E130004350552054797065202020203D20005FF9
:10E140005F4156525F415243485F5F3D2000415658
:10E1500052204C696243205665723D20004743437C
:10E160002056657273696F6E203D20004350552024
:10E1700049442020202020203D20004C6F7720663D
:10E18000757365202020203D20004869676820665F
:10E190007573652020203D200045787420667573D6
:10E1A00065202020203D20004C6F636B2066757336
:10E1B000652020203D20004D617220203720323024
:10E1C000313300312E362E3800342E332E350056A2
:10E1D00023202020414444522020206F7020636F70
:10E1E00064652020202020696E73747275637469E1
:10E1F0006F6E2061646472202020496E74657272B3
:10E20000757074006E6F20766563746F7200726A49
:10E210006D702020006A6D70200057686174207056
:10E220006F72743A00506F7274206E6F7420737541
:10E2300070706F72746564004D7573742062652030
:10E2400061206C6574746572002000577269747483
:10E25000696E672045450052656164696E672045B7
:10E26000450045452065727220636E743D00504F35
:10E27000525400303D5A65726F2061646472003FF1
:10E280003D43505520737461747300403D454550C3
:10E29000524F4D207465737400423D426C696E6B41
:10E2A000204C454400453D44756D70204545505215
:10E2B0004F4D00463D44756D7020464C415348001B
:10E2C000483D48656C70004C3D4C69737420492F83
:10E2D0004F20506F72747300513D51756974005234
:10E2E0003D44756D702052414D00563D73686F7707
:10E2F00020696E7465727275707420566563746FF0
:10E30000727300593D506F727420626C696E6B00BD
:10E310002A0011241FBECFEFD1E2DEBFCDBF01E046
:10E320000CBF12E0A0E0B2E0EEE1FDEF03E00BBFB6
:10E3300002C007900D92A030B107D9F712E0A0E01B
:10E34000B2E001C01D92AE30B107E1F70F9460F367
:10E350000D948DFE01E20EBF0FEF0DBF11241FBE05
:10E360000D9460F30D9400F020E030E040ED57E0B4
:10E3700005C0FA013197F1F72F5F3F4F2817390792
:10E38000C0F308959C01260F311DC901A0E0B0E043
:10E390002F5F3F4FABBFFC018791882361F08093D3
:10E3A000C6008091C00086FFFCCF8091C0008064D1
:10E3B0008093C000EACF08958DE08093C6008091DD
:10E3C000C00086FFFCCF8091C00080648093C000B5
:10E3D0008AE08093C6008091C00086FFFCCF8091C8
:10E3E000C00080648093C00008950F94C2F10F9420
:10E3F000DCF10895FC019081992359F09093C600B7
:10E400008091C00086FFFCCF8091C0008064809323
:10E41000C0003196992379F70895282F982F929567
:10E420009F70892F805D8A3308F0895F8093C600D2
:10E430008091C00086FFFCCF8091C00080648093F3
:10E44000C000822F8F70982F905D9A3308F0995FEB
:10E450009093C6008091C00086FFFCCF8091C000E1
:10E4600080648093C00008959C01FB01853691056E
:10E470001CF46330710594F0C90164E670E00F94F8
:10E480002EFE605D7F4F6093C6008091C00086FFC6
:10E49000FCCF8091C00080648093C0002B30310598
:10E4A00014F43297B4F0C90164E670E00F942EFEC4
:10E4B0006AE070E00F942EFE605D7F4F6093C600AF
:10E4C0008091C00086FFFCCF8091C0008064809363
:10E4D000C000C9016AE070E00F942EFEC0968093E0
:10E4E000C6008091C00086FFFCCF8091C000806490
:10E4F0008093C00008951F93182F8EE692EE60E07F
:10E500000F94C2F11093C6008091C00086FFFCCF2B
:10E510008091C00080648093C0000F94DCF11F9153
:10E5200008952F923F924F925F926F927F928F92B7
:10E530009F92AF92BF92CF92DF92EF92FF920F9392
:10E540001F93DF93CF93CDB7DEB762970FB6F894E2
:10E55000DEBF0FBECDBF382E622ECA01DB015C01CB
:10E560006D01772420E2222E2E010894411C511CBB
:10E570008BC081E0A81680E0B80681E0C80680E084
:10E58000D80628F0C601AA27BB270F940DF2BB2797
:10E59000AD2D9C2D8B2D0F940DF28A2D0F940DF225
:10E5A0002092C6008091C00086FFFCCF8091C00001
:10E5B00080648093C0009DE29093C6008091C0006B
:10E5C00086FFFCCF8091C00080648093C0002092C1
:10E5D000C6008091C00086FFFCCF8091C00080649F
:10E5E0008093C00019828601750188249924A1E0D6
:10E5F0003A1651F03A1620F0B2E03B1661F409C029
:10E600000BBFF701779007C0C7010F9477FE782EF4
:10E6100002C0F7017080872D0F940DF22092C60082
:10E620008091C00086FFFCCF8091C0008064809301
:10E63000C000872D8052F401EF70F0708F3520F408
:10E64000E40DF51D708204C0E40DF51D8EE280839B
:10E650000894E11CF11C011D111D0894811C911CE2
:10E6600090E18916910409F0C2CF80E190E0A0E02A
:10E67000B0E0A80EB91ECA1EDB1E198AC2010F9493
:10E68000FAF10F94DCF16A94662009F072CF629679
:10E690000FB6F894DEBF0FBECDBFCF91DF911F91B3
:10E6A0000F91FF90EF90DF90CF90BF90AF909F9031
:10E6B0008F907F906F905F904F903F902F90089534
:10E6C0002F923F924F925F926F927F928F929F9282
:10E6D000AF92BF92CF92DF92EF92FF920F931F9370
:10E6E000DF93CF93CDB7DEB7CD53D1400FB6F894BB
:10E6F000DEBF0FBECDBF01E20EBF0FEF0DBF94B75F
:10E70000F894A89514BE80916000886180936000A1
:10E7100010926000789493FF05C0E0910002F091A0
:10E7200001021995279A2F9A8091C00082608093E8
:10E73000C00080E18093C40088E18093C1000000A4
:10E74000EE24FF24870144E0A42EB12CCC24DD2448
:10E7500024C0C5010197F1F70894E11CF11C011DCB
:10E76000111D21E2E2162EE4F20620E0020720E06D
:10E77000120718F031E0C32ED12CC801B70127ECE5
:10E780003BE140E050E00F9441FE611571058105C9
:10E79000910519F485B1805885B98091C00087FD35
:10E7A00003C0C114D104A9F2A6014F5F5F4FC25E3E
:10E7B000DE4F59834883CE51D140C25EDE4F8881FF
:10E7C0009981CE51D140019711F00D9410FEC05D9A
:10E7D000DE4F19821882C053D14060E0C15DDE4F28
:10E7E0001882CF52D14088249924C35DDE4F19820C
:10E7F0001882CD52D140C05EDE4F188219821A8233
:10E800001B82C052D140CE5CDE4F188219821A8220
:10E810001B82C253D140EE24FF2487010BBFF701B6
:10E8200007911691C45CDE4F19830883CC53D14005
:10E830000D940BFEC25EDE4F28813981CE51D1404E
:10E840002130310509F52091C600C25EDE4F1982E4
:10E850001882CE51D14022C02F5F3F4F4F4F5F4FA4
:10E86000213082E138078AE7480780E0580780F0C6
:10E87000C45CDE4FE881F981CC53D140EF5FFF4F9C
:10E8800019F0EE27FF27099420E030E040E050E047
:10E890008091C00087FFE0CF2091C600C35DDE4FAE
:10E8A00048815981CD52D1404F5F5F4FC35DDE4FEC
:10E8B00059834883CD52D140213209F063C64A3092
:10E8C000510508F05FC60894811C911C53E0851621
:10E8D000910409F059C600E010E018C081E280936D
:10E8E000C6008091C00086FFFCCF8091C00080648C
:10E8F0008093C0002F5F3F4F2931310579F70F9486
:10E90000DCF10F5F1F4F0530110519F020E030E0FA
:10E91000E5CF10920A0210920B0210920C02109294
:10E920000D02109206021092070210920802109235
:10E930000902109202021092030210920402109235
:10E9400005028FEE90EE60E00F94F5F180E191EE1C
:10E9500060E00F94C2F18091C00087FFFCCF9091DE
:10E96000C600903608F09F759032B8F09093C600BC
:10E970008091C00086FFFCCF8091C00080648093AE
:10E98000C000A0E2A093C6008091C00086FFFCCF2B
:10E990008091C00080648093C000983409F4D7C18E
:10E9A0009934B8F4923409F459C1933458F490333B
:10E9B00019F1903308F4E3C59F33A1F1903409F0C5
:10E9C000DEC5BDC0953409F470C1963409F0D7C5D1
:10E9D00098C1923509F42BC2933538F49C3409F46C
:10E9E000F5C1913509F0CBC518C2963509F445C279
:10E9F000993509F0C4C567C483E792EE62E00F94CD
:10EA0000F5F110920602109207021092080210927D
:10EA1000090210920A0210920B0210920C0210923C
:10EA20000D0213C18FE792EE62E00F94F5F18FEEC5
:10EA300090EE60E00F94F5F181E291EE60E00F94CA
:10EA4000C2F187EB91EE60E00F94F5F180E391EE77
:10EA500060E00F94C2F184EE90EE60E00F94F5F167
:10EA60008FE391EE60E00F94C2F186E090E061E008
:10EA700070E00F9434F20F94DCF18DE591EE60E0DC
:10EA80000F94C2F189EC91EE60E00F94F5F18EE401
:10EA900091EE60E00F94C2F183EC91EE60E00F9490
:10EAA000F5F18CE691EE60E00F94C2F18EE10F94E7
:10EAB0000DF288E90F940DF281E00F940DF20F949E
:10EAC000DCF18BE791EE60E00F94C2F119E0E0E039
:10EAD000F0E010935700E4918E2F0F940DF20F94F5
:10EAE000DCF18AE891EE60E00F94C2F1E3E0F0E03F
:10EAF00010935700E4918E2F0F940DF20F94DCF1D8
:10EB000089E991EE60E00F94C2F1E2E0F0E0109349
:10EB10005700E4918E2F0F940DF20F94DCF188EAE8
:10EB200091EE60E00F94C2F1E1E0F0E01093570045
:10EB30001491812F0F940DF20F94DCF107CF8BE825
:10EB400092EE62E00F94F5F18BE492EE60E00F94A8
:10EB5000F5F10F94DCF100E010E019C0C8016F2D51
:10EB60000F947FFEFF2031F489E492EE60E00F9471
:10EB7000C2F10BC0F092C6008091C00086FFFCCFAE
:10EB80008091C00080648093C0000F5F1F4FC80158
:10EB900081519F41A0E0B0E0ABBFFC01F790BAE229
:10EBA000FB1621F0E2E000301E07C1F60F94DCF105
:10EBB0000F94DCF187E592EE60E00F94F5F10F948D
:10EBC000DCF1CC24DD2400E010E01EC0C8010F946D
:10EBD00077FEF82E882331F489E492EE60E00F94FA
:10EBE000C2F10BC08093C6008091C00086FFFCCFAD
:10EBF0008091C00080648093C000FE1419F00894D6
:10EC0000C11CD11C0F5F1F4FC80181519F41A0E063
:10EC1000B0E0ABBFFC01E790FAE2EF1621F022E092
:10EC20000030120799F60F94DCF10F94DCF182E6C4
:10EC300092EE60E00F94C2F1C60161E070E00F94C3
:10EC400034F20F94DCF10F94DCF110920202109276
:10EC50000302109204021092050278CE89E992EE26
:10EC600062E00F94F5F1279A2F9A16C02F9880E052
:10EC700090E0E0EDF7E03197F1F7019684369105E9
:10EC8000C1F72F9A80E090E0E0EDF7E03197F1F7DF
:10EC9000019684369105C1F78091C00087FFE6CFC9
:10ECA0008091C00087FFFCCF64C485EA92EE62E0E9
:10ECB0000F94F5F140910202509103026091040219
:10ECC0007091050281E020E10F9491F2809102029F
:10ECD00090910302A0910402B091050280509F4FD1
:10ECE000AF4FBF4F8093020290930302A0930402A0
:10ECF000B093050280509041A040B04008F426CE69
:10ED0000A4CF83EB92EE62E00F94F5F140910602FE
:10ED100050910702609108027091090280E020E1A1
:10ED20000F9491F28091060290910702A09108023F
:10ED3000B091090280509F4FAF4FBF4F80930602A2
:10ED400090930702A0930802B0930902FFCD80ECD4
:10ED500092EE62E00F94F5F183E792EE60E00F949B
:10ED6000F5F18FE792EE60E00F94F5F18BE892EE0B
:10ED700060E00F94F5F189E992EE60E00F94F5F10F
:10ED800085EA92EE60E00F94F5F183EB92EE60E09D
:10ED90000F94F5F180EC92EE60E00F94F5F187ECC2
:10EDA00092EE60E00F94F5F188ED92EE60E00F9442
:10EDB000F5F18FED92EE60E00F94F5F18AEE92EEB0
:10EDC00060E00F94F5F183E093EEBDCD87EC92EE19
:10EDD00062E00F94F5F181E40F947BF282E40F94EA
:10EDE0007BF283E40F947BF284E40F947BF285E45E
:10EDF0000F947BF286E40F947BF287E40F947BF20E
:10EE000088E40F947BF28AE40F947BF28BE40F94F6
:10EE10007BF28CE40F947BF299CD88ED92EE62E068
:10EE20000F94F5F1772473948824992409C48FED05
:10EE300092EE62E00F94F5F140910A0250910B02BC
:10EE400060910C0270910D0282E020E10F9491F22A
:10EE500080910A0290910B02A0910C02B0910D02D8
:10EE600080509F4FAF4FBF4F80930A0290930B0289
:10EE7000A0930C02B0930D0269CD8AEE92EE62E08F
:10EE80000F94F5F184EE90EE60E00F94F5F18FECC5
:10EE900091EE60E00F94F5F1662477244301CC5D98
:10EEA000DE4F19821882C452D140D401C301B695F5
:10EEB000A79597958795CA5DDE4F88839983AA8326
:10EEC000BB83C652D140CC5DDE4FA881B981C4520C
:10EED000D1401196CC5DDE4FB983A883C452D14096
:10EEE000CD0162E070E00F9434F2B0E2B093C6005E
:10EEF0008091C00086FFFCCF8091C0008064809329
:10EF0000C000EDE2E093C6008091C00086FFFCCF18
:10EF10008091C00080648093C000F0E2F093C6004E
:10EF20008091C00086FFFCCF8091C00080648093F8
:10EF3000C000CA5DDE4FE880F9800A811B81C6529D
:10EF4000D140BB27A12F902F8F2D0F940DF2CA5DBA
:10EF5000DE4F8881C652D1400F940DF2B0E2FB2EF5
:10EF6000F092C6008091C00086FFFCCF8091C00067
:10EF700080648093C0000DE30093C6008091C000C0
:10EF800086FFFCCF8091C00080648093C00010E2B7
:10EF90001093C6008091C00086FFFCCF8091C00016
:10EFA00080648093C0008BBEF3012791C65DDE4F65
:10EFB0002883CA52D140A22EBB24CC24DD2408943D
:10EFC000611C711C811C911C8BBEF3018791282E42
:10EFD0003324442455240894611C711C811C911C09
:10EFE0008BBEF3013791C55DDE4F3883CB52D140E4
:10EFF0000894611C711C811C911C8BBEF30147910C
:10F00000C45DDE4F4883CC52D140ADEFEA2EAFEF66
:10F01000FA2EAFEF0A2FAFEF1A2F6E0C7F1C801E57
:10F02000911E142D032DF22CEE24EA0CFB1C0C1D5A
:10F030001D1D0F940DF220E22093C6008091C000A8
:10F0400086FFFCCF8091C00080648093C000C65DC5
:10F05000DE4F8881CA52D1400F940DF230E23093D6
:10F06000C6008091C00086FFFCCF8091C000806404
:10F070008093C000C45DDE4F8881CC52D1400F9494
:10F080000DF240E24093C6008091C00086FFFCCFA5
:10F090008091C00080648093C000C55DDE4F888190
:10F0A000CB52D1400F940DF250E25093C6008091A4
:10F0B000C00086FFFCCF8091C00080648093C000B8
:10F0C0008FEFE8168FEFF80680E0080780E018075A
:10F0D00031F484E092EE60E00F94C2F1DFC0D80119
:10F0E000C7018070907CA070B0708050904CA040A0
:10F0F000B040D1F52FEF3FE340E050E0E222F322B1
:10F1000004231523CA5DDE4FA880B980CA80DB8046
:10F11000C652D140AE0CBF1CC01ED11EAA0CBB1CD7
:10F12000CC1CDD1C8EE092EE60E00F94C2F1BB2798
:10F13000A12F902F8F2D0F940DF28E2D0F940DF285
:10F1400030E23093C6008091C00086FFFCCF8091F2
:10F15000C00080648093C0004EE34093C60080915D
:10F16000C00086FFFCCF87C08EE09EEFA0E0B0E03D
:10F17000E822F9220A231B239CE0E91694E9F90608
:10F1800090E0090790E0190709F088C0C45DDE4FE0
:10F19000A881CC52D140EA2EFF2400E010E0102FCD
:10F1A0000F2DFE2CEE24C55DDE4FB881CB52D14031
:10F1B000EB0EF11C011D111DD601C501817090706F
:10F1C000A070B070DC0199278827E80EF91E0A1F8D
:10F1D0001B1F20EF30E040E050E0A222B322C42207
:10F1E000D52241E1AA0CBB1CCC1CDD1C4A95D1F7F1
:10F1F000EA0CFB1C0C1D1D1D81E090E0A0E0B0E0BE
:10F20000282239224A225B2235E1220C331C441C7D
:10F21000551C3A95D1F7E20CF31C041D151D57013E
:10F220006801AA0CBB1CCC1CDD1C85E192EE60E0E1
:10F230000F94C2F1C801AA27BB270F940DF2BB2778
:10F24000A12F902F8F2D0F940DF28E2D0F940DF274
:10F2500090E29093C6008091C00086FFFCCF809121
:10F26000C00080648093C000AEE3A093C60080918C
:10F27000C00086FFFCCF8091C00080648093C000F6
:10F28000C601AA27BB270F940DF2BB27AD2D9C2DDD
:10F290008B2D0F940DF28A2D0F940DF20F94DCF14B
:10F2A000CC5DDE4FE881F981C452D140F99709F471
:10F2B0004DCBF4E0EF2EF12C012D112D6E0C7F1CA7
:10F2C000801E911EF2CD83E093EE62E00F94F5F183
:10F2D0008AE192EE60E00F94C2F18091C00087FF56
:10F2E000FCCF1091C6001F751093C6008091C0001E
:10F2F00086FFFCCF8091C00080648093C0000F9493
:10F30000DCF1812F81548A3108F036C1163409F4BA
:10F3100095C0173490F4133409F44EC0143430F40B
:10F320001134F1F0123409F01DC130C0143409F465
:10F3300059C0153409F016C16BC01A3409F4C4C0A1
:10F340001B3438F4173409F48FC0183409F00AC19B
:10F35000A1C01B3409F4D2C01C3409F003C1E8C0B9
:10F360008FEF81B90DC082B1809582B980E090E0C5
:10F37000E0EDF7E03197F1F70196883C9105C1F790
:10F380008091C00087FFEFCF12B8EFC08FEF84B934
:10F390000DC085B1809585B980E090E0E0EDF7E0A3
:10F3A0003197F1F70196883C9105C1F78091C00033
:10F3B00087FFEFCF15B8D9C08FEF87B90DC088B1DF
:10F3C000809588B980E090E0E0EDF7E03197F1F7C3
:10F3D0000196883C9105C1F78091C00087FFEFCF6F
:10F3E00018B8C3C08FEF8AB90DC08BB180958BB9A7
:10F3F00080E090E0E0EDF7E03197F1F70196883C8E
:10F400009105C1F78091C00087FFEFCF1BB8ADC059
:10F410008FEF8DB90DC08EB180958EB980E090E0F0
:10F42000E0EDF7E03197F1F70196883C9105C1F7DF
:10F430008091C00087FFEFCF1EB897C08FEF80BBD1
:10F440000DC081B3809581BB80E090E0E0EDF7E0F6
:10F450003197F1F70196883C9105C1F78091C00082
:10F4600087FFEFCF11BA81C08FEF83BB0DC084B38C
:10F47000809584BB80E090E0E0EDF7E03197F1F714
:10F480000196883C9105C1F78091C00087FFEFCFBE
:10F4900014BA6BC08FEF809301010FC080910201FD
:10F4A00080958093020180E090E0E0EDF7E03197F5
:10F4B000F1F70196883C9105C1F78091C00087FF64
:10F4C000EDCF1092020151C08FEF809304010FC065
:10F4D0008091050180958093050180E090E0E0ED4A
:10F4E000F7E03197F1F70196883C9105C1F78091DB
:10F4F000C00087FFEDCF1092050137C08FEF8093DA
:10F5000007010FC08091080180958093080180E079
:10F5100090E0E0EDF7E03197F1F70196883C910536
:10F52000C1F78091C00087FFEDCF109208011DC088
:10F530008FEF80930A010FC080910B01809580931B
:10F540000B0180E090E0E0EDF7E03197F1F70196F4
:10F55000883C9105C1F78091C00087FFEDCF1092E4
:10F560000B0103C085E292EEEEC98091C00087FFD7
:10F57000FCCF8091C600EAC988E392EEE4C98CE131
:10F5800091EEE1C988249924933011F1943028F444
:10F59000913089F09230B8F408C0953061F195301F
:10F5A000F0F0963009F048C043C02B3109F042C951
:10F5B00091E06BE13FC96227C15DDE4F2883CF52E6
:10F5C000D14092E037C9B22FA0E0622793E032C960
:10F5D000822F90E0A82BB92B622794E02BC92E3004
:10F5E00009F039C3622795E0C05DDE4F19821882A9
:10F5F000C053D1401FC9E1E0F0E0EC0FFD1FC05D3A
:10F60000DE4F08811981C053D140E00FF11F2083E4
:10F610000F5F1F4FC05DDE4F19830883C053D14079
:10F6200062270A171B0709F005C9D80196E002C92D
:10F63000261709F010C303C0973009F0FBC87724E0
:10F640009981933109F412C19431C8F4963009F4C8
:10F65000D8C0973050F4923009F406C1933009F4C1
:10F660006DC0913009F059C253C0913109F477C08F
:10F67000923108F0BBC0903109F04FC2F5C098310B
:10F6800009F487C0993150F4953109F4EFC09531F0
:10F6900008F4C6C1963109F040C2C2C19A3109F4DA
:10F6A0006CC09A3108F491C09B3109F45BC09D3164
:10F6B00009F033C29D81903359F48F81882311F46E
:10F6C0009EE11CC0813011F091E018C098E916C08D
:10F6D000892F807591F0903539F4E0E0F0E089E011
:10F6E0008093570094910AC0983539F4E3E0F0E034
:10F6F00089E080935700949101C090E01A821B82A8
:10F700008D818C831D829E831F8227E030E009C299
:10F710001A8288E08B8381E48C8386E58D8382E581
:10F720008E8389E48F8383E5888780E589878FE5E9
:10F730008A8782E38B872BE030E0F3C18A818139AD
:10F7400041F0823941F0803911F48FE005C080E04A
:10F7500003C082E001C08AE01A828B8344C0772410
:10F76000739482C08D81882311F48EE12CC0813086
:10F7700011F081E028C088E926C01A82E1E0F0E0BB
:10F7800089E08093570084918B831C8224E030E0D1
:10F79000C8C18B81803589F48C81883039F4E2E0EE
:10F7A000F0E089E08093570084910DC0E0E0F0E044
:10F7B00089E080935700849106C0E3E0F0E089E09F
:10F7C0008093570084911A82DFCF8D81836C99E0FA
:10F7D000E1E0F0E0082E90935700E89507B600FCB2
:10F7E000FDCF1A821B8223E030E09BC180EC8A832C
:10F7F000CE5CDE4F188219821A821B82C253D1401E
:10F800008EC18A8190E0A0E0B0E0582F44273327D2
:10F8100022278B8190E0A0E0B0E0DC0199278827C7
:10F82000282B392B4A2B5B2B8D8190E0A0E0B0E098
:10F83000282B392B4A2B5B2B8C8190E0A0E0B0E089
:10F84000BA2FA92F982F8827282B392B4A2B5B2BCF
:10F85000220F331F441F551FC05EDE4F288339839C
:10F860004A835B83C052D1401A8259C13A81C95C34
:10F87000DE4F3883C753D140CA5CDE4F1882C6536F
:10F88000D1408B81C82EDD24CA5CDE4F488159816E
:10F89000C653D140C42AD52A933109F082C0CE5C28
:10F8A000DE4F88819981AA81BB81C253D1408050AB
:10F8B000904CA340B04030F583E0CE5CDE4FE88052
:10F8C000F9800A811B81C253D140F70100935B008C
:10F8D00080935700E89507B600FCFDCFCE5CDE4F65
:10F8E000088119812A813B81C253D14000501F4FAA
:10F8F0002F4F3F4FCE5CDE4F088319832A833B8313
:10F90000C253D140C05EDE4F488159816A817B81FC
:10F91000C052D140DE011B9631E08C9111962C91A2
:10F9200011971296C75CDE4F2883C953D140C85C3B
:10F93000DE4F1882C853D14090E0C85CDE4FE881AA
:10F94000F981C853D1408E2B9F2B0C01FA01609393
:10F950005B0030935700E89511244E5F5F4F6F4F67
:10F960007F4F0EEFE02E0FEFF02ECE0CDF1CC114F8
:10F97000D10499F685E0C05EDE4F088119812A81A5
:10F980003B81C052D140F80120935B008093570027
:10F99000E89507B600FCFDCF81E180935700E8951C
:10F9A00035C0C05EDE4F88819981AA81BB81C0527B
:10F9B000D140B695A795979587957C018601ABE0D8
:10F9C000AA2EB12CAC0EBD1E0BC0D5016D915D01F0
:10F9D000C7010F947FFE0894E11CF11C01501040F8
:10F9E0000115110591F7A60160E070E0440F551F65
:10F9F000661F771FC05EDE4FE880F9800A811B8199
:10FA0000C052D1404E0D5F1D601F711F1A82C05E33
:10FA1000DE4F488359836A837B83C052D1407FC0C5
:10FA2000FA80C55CDE4FF882CB53D140C65CDE4F16
:10FA30001882CA53D1408B81C82EDD24C65CDE4FAC
:10FA400008811981CA53D140C02AD12A1A828981DA
:10FA5000BE016D5F7F4F843121F59601C05EDE4FA0
:10FA6000E880F9800A811B81C052D1400BBFF701A9
:10FA700087919691DB018C9311969C936E5F7F4FDB
:10FA8000D801C7010296A11DB11DC05EDE4F88835B
:10FA90009983AA83BB83C052D14022503040F1F6F3
:10FAA00036C0C05EDE4F288139814A815B81C052F9
:10FAB000D1400894C108D108760100E010E0089414
:10FAC000C11CD11C0894E11CF11C011D111DE20E8A
:10FAD000F31E041F151F21BDBB27A52F942F832FB5
:10FAE00082BD2F5F3F4F4F4F5F4FF89A80B5DB01CC
:10FAF0008D93BD012E153F054007510761F7C05E8C
:10FB0000DE4F288339834A835B83C052D1409601FC
:10FB10002D5F3F4FFB01108204C080EC8A8322E0FE
:10FB200030E08BE18093C6008091C00086FFFCCF5F
:10FB30008091C00080648093C000C15DDE4FF88179
:10FB4000CF52D140F093C6008091C00086FFFCCF19
:10FB50008091C00080648093C000432F3093C60022
:10FB60008091C00086FFFCCF8091C00080648093AC
:10FB7000C000922F2093C6008091C00086FFFCCF6A
:10FB80008091C00080648093C0008EE08093C600A6
:10FB90008091C00086FFFCCF8091C000806480937C
:10FBA000C00065E1C15DDE4FE880CF52D1406E25D7
:10FBB00069276427FE01319610C090819093C6009A
:10FBC0008091C00086FFFCCF31968091C000806498
:10FBD0008093C0006927215030402115310569F715
:10FBE0006093C6008091C00086FFFCCF8091C0006A
:10FBF00080648093C00085B1805885B9772081F4F6
:10FC0000C15DDE4F0881CF52D1400F5FC15DDE4F35
:10FC10000883CF52D14090E0A0E0B0E00D941AF4F8
:10FC200027982F9880E090E020ED37E0F901319798
:10FC3000F1F7019684369105C9F700008091C00064
:10FC40008D7F8093C00081E180935700E895EE2777
:10FC5000FF270994FFCF90E00D941AF497FB092E2B
:10FC600007260AD077FD04D02ED006D000201AF443
:10FC7000709561957F4F0895F6F7909581959F4F08
:10FC80000895A1E21A2EAA1BBB1BFD010DC0AA1FDD
:10FC9000BB1FEE1FFF1FA217B307E407F50720F0F5
:10FCA000A21BB30BE40BF50B661F771F881F991F70
:10FCB0001A9469F760957095809590959B01AC01B9
:10FCC000BD01CF010895AA1BBB1B51E107C0AA1FAC
:10FCD000BB1FA617B70710F0A61BB70B881F991FED
:10FCE0005A95A9F780959095BC01CD010895F99991
:10FCF000FECF92BD81BDF89A992780B50895262F31
:10FD0000F999FECF1FBA92BD81BD20BD0FB6F89400
:0EFD1000FA9AF99A0FBE01960895F894FFCF63
:00000001FF
