:020000040000FA
:100000000C9435010C9466010C9466010C94660105
:100010000C9466010C9466010C9466010C946601C4
:100020000C9466010C9466010C9466010C946601B4
:100030000C9466010C9466010C9466010C946601A4
:100040000C9466010C9466010C9466010C94660194
:100050000C9466010C9466010C9466010C9456078E
:100060000C9466010C9466010C9466010C94660174
:100070000C9466010C9466010C9466010C94660164
:100080000C9466010C9466010C9466010C94660154
:100090000C9466010C9466010C9466010C94660144
:1000A0000C9466010C9466010C9466010C94660134
:1000B0000C9466010C9466010C9466010C94660124
:1000C0000C9466010C9466010C9466010C94660114
:1000D0000C9466010C9466010C9466010C94660104
:1000E0000C9466010C942B050C9484030C94CB01A6
:1000F0000C94AF010C9443070C9494010C94AB0145
:100100000C94BD010C94C7010C94B9010C948C03A0
:100110000C9498010C9488030C94C1010C94B301C5
:100120000C941F0B0C949B010C942C050C948C01CB
:100130000C94A5010C9486010C94A1010C949001DF
:100140000C94C5020C94C601000021002400270075
:100150002A002D00300033000101000004010701D6
:100160000A0100002200250028002B002E0031008B
:10017000340002010000050108010B01000020000D
:100180002300260029002C002F003200000100006F
:10019000030106010901050505050705080808080A
:1001A000020202020A0A080804040404010101010F
:1001B000010101010303030303030303040707070A
:1001C0000C0C0C0C0C0C0C0C0202020206060606AF
:1001D000060606060B0B0B0B0B0B0B0B010210207C
:1001E000200808102040102040800201020108046D
:1001F0000201010204081020408080402010080401
:100200000201800402018040201008040201080459
:10021000020101020408102040800102040810209D
:10022000408000000A0B02090C0D0E0807030401B0
:1002300000000000000000000000000000000000BE
:10024000000000000000000000000000000012118B
:10025000100000000000000000000000000000008E
:1002600000000000000000001F0B11241FBECFEF94
:10027000D1E2DEBFCDBF00E00CBF12E0A0E0B2E0F3
:10028000ECE0FAE100E00BBF02C007900D92A83746
:10029000B107D9F723E0A8E7B2E001C01D92A93D5C
:1002A000B207E1F711E0C5E3D1E000E006C0219715
:1002B0000109802FFE010E94FC0CC433D10780E0AD
:1002C0000807A9F70E94A0070C94040D0C940000E5
:1002D0008150823108F05AC0E82FF0E08827EC58AE
:1002E000FE4F8F4F0C94FC0C9401980186018C01F9
:1002F0009001C6019B01A101A501AB01AF01B301B2
:10030000B901BD01C601C101C701CB0180918000C7
:100310008F77809380000895809180008F7DF9CF42
:1003200080918000877FF5CF84B58F7784BD089555
:1003300084B58F7DFBCF8091B0008F778093B00024
:1003400008958091B0008F7DF9CF809190008F77D4
:10035000809390000895809190008F7DF9CF8091D7
:100360009000877FF5CF8091A0008F778093A000C9
:1003700008958091A0008F7DF9CF8091A000877FA4
:10038000F5CF809120018F7780932001089580918F
:1003900020018F7DF9CF80912001877FF5CFCF930A
:1003A000DF93282F30E0F901EE5DFD4F8491F901D4
:1003B000E452FE4FD491F901EA56FE4FC491CC238A
:1003C000A1F081110E946801EC2FF0E0EE0FFF1FF9
:1003D000E458FE4FA591B491EC91ED2381E090E0BB
:1003E00009F480E0DF91CF91089580E090E0FACFAA
:1003F0001F93CF93DF93282F30E0F901EE5DFD4F7F
:100400008491F901E452FE4FD491F901EA56FE4F6E
:10041000C491CC23A9F0162F81110E946801EC2F02
:10042000F0E0EE0FFF1FEE59FE4FA591B4918FB78C
:10043000F894EC91111108C0D095DE23DC938FBFA6
:10044000DF91CF911F910895DE2BF8CFCF93DF93EB
:1004500090E0FC01E452FE4F24918A569E4FFC012D
:1004600084918823C9F090E0880F991FFC01E85B14
:10047000FE4FA591B491FC01EE59FE4FC591D49168
:1004800061110DC09FB7F8948C91209582238C93B5
:100490008881282328839FBFDF91CF910895623000
:1004A00051F49FB7F8943C91822F809583238C93CD
:1004B000E8812E2BEFCF8FB7F894EC912E2B2C9355
:1004C0008FBFEACF3FB7F8948091650390916603A0
:1004D000A0916703B091680326B5A89B05C02F3F84
:1004E00019F00196A11DB11D3FBFBA2FA92F982F5A
:1004F0008827BC01CD01620F711D811D911D42E055
:10050000660F771F881F991F4A95D1F708958F921C
:100510009F92AF92BF92CF92DF92EF92FF924B01E8
:100520005C010E9462026B017C010E9462026C19F4
:100530007D098E099F09683E734081059105A8F3E6
:1005400021E0821A9108A108B10888EEC80E83E064
:10055000D81EE11CF11C81149104A104B10429F7F7
:10056000FF90EF90DF90CF90BF90AF909F908F90D3
:1005700008952FB7F89460916103709162038091A0
:100580006303909164032FBF0895AF92BF92CF92FF
:10059000DF92EF92FF920F931F93CF93DF936C0143
:1005A0007B018B01040F151FEB015E01AE18BF0824
:1005B000C017D10759F06991D601ED91FC910190D6
:1005C000F081E02DC6011995892B79F7C501DF91DE
:1005D000CF911F910F91FF90EF90DF90CF90BF9040
:1005E000AF900895CF93DF93DC0126E0629FA00DCA
:1005F000B11D112490965C934E935F9721E09196E4
:100600002C939197FC01E359FF4F0190F081E02D6D
:10061000EC01C459DF4F2881222341F0309719F0B3
:10062000DC01662329F0DF91CF9108953097D9F34B
:100630005C968C91DF91CF911994CF92DF92EF92DB
:10064000FF920F931F93CF93DF93EC01162F042F8C
:10065000FC0186E0689FE00DF11D112411A2878D39
:1006600090A18130910509F180F08230910509F463
:1006700043C0039709F445C0DF91CF911F910F91BB
:10068000FF90EF90DF90CF9008954423A9F341E0CD
:1006900050E0CE010E94F2020E94B902C85ADF4F18
:1006A000688379838A839B83E7CF0E94B902FE0126
:1006B000E85AFF4FC080D180E280F380AB01BC01DB
:1006C0004C195D096E097F09729680819181B0E0B5
:1006D000A0E084179507A607B70770F442E050E042
:1006E000612FCE01DF91CF911F910F91FF90EF907D
:1006F000DF90CF900C94F20243E050E00111BCCFA8
:10070000EFCF50E040E0ECCF862F642F0C94260210
:10071000862F642F0C94F801862F0C94CF012F9212
:100720003F924F925F926F927F928F929F92AF9281
:10073000BF92CF92DF92EF92FF920F931F93CF93CE
:10074000DF93CDB7DEB72C970FB6F894DEBF0FBEA0
:10075000CDBF9C878B8784599F4F9A83898381E083
:10076000A981BA818C930E94B902EB85FC85E45A79
:10077000FF4FFC83EB830081118122813381AB0128
:10078000BC01401B510B620B730BEB85FC85E859D8
:10079000FF4F80819181B0E0A0E084179507A60704
:1007A000B70708F04FC110E0CB84DC84F6E6CF0E2B
:1007B000D11CEB84FC8422E6E20EF11CD6018C9164
:1007C000181758F4D701ED91FC91E10FF11D62E08B
:1007D00080810E9426021F5FF1CF312C4B845C8404
:1007E000B7E64B0E511CEB84FC84E4E6EE0EF11CE4
:1007F000812C912C540183942B853C852E593F4F9D
:100800003A872987D2018C91381608F063C0032DEE
:1008100010E0D701ED91FC91E00FF11F61E08081C4
:100820000E942602D701ED91FC91E00FF11F60E0DC
:1008300080810E94F801D501C401032C04C0880FF7
:10084000991FAA1FBB1F0A94D2F79E838D83FC01B8
:10085000E095F095F887EF83212CD6018C9128162E
:1008600020F5622C712CA985BA85ED91FC91E60DDD
:10087000F71D80810E94CF01660C771CEB85FC85FB
:10088000E60DF71D892B51F4808591852D813E81E0
:10089000822B932B918780872394DFCF808591854E
:1008A000AF81B8858A239B23F5CFD701ED91FC91C9
:1008B000E00FF11F61E080810E94F801F701808163
:1008C0009181080F191F60E0D8018C910E942602C7
:1008D000339498CF0B851C85C801CC9678012FEFF7
:1008E0003FEFF701478D50A1452B21F4148E368F31
:1008F000258F11A2F6E0EF0EF11CE816F90689F734
:10090000A12C8B849C8420E6820E911C96E0392ECB
:10091000D6018C91A81608F058C0B12C6A2C712C05
:10092000B4E06B0E711C660C771CEB85FC856E0EBB
:100930007F1ED2018C91B81608F045C0F3014081AA
:1009400051810B2C02C0569547950A94E2F7A89E58
:10095000C00111248B0D911DEB85FC8560E0258D78
:10096000368D8217930709F472C06F5F36966A302E
:10097000B1F740FF26C0EB85FC8570E060E0248D78
:10098000211119C0D401ED91FC91E80FF91F4081AC
:10099000369EF001379EF00D11242B853C85E20F29
:1009A000F31F448F968F858F10A2178E41E0C901E7
:1009B0000E941D0306C06F5F7F4F36966A30710537
:1009C000F1F6B394B6CFA394A3CFD12CD8019196CE
:1009D0008C918111D82E0A5F1F4FE016F106B1F7F6
:1009E0000E94B902EB81FC816083718382839383CF
:1009F000DD2041F1AB85BC8591968C919197882340
:100A000009F15F968D919C9190970197D9F45C962E
:100A10008C912C960FB6F894DEBF0FBECDBFDF9140
:100A2000CF911F910F91FF90EF90DF90CF90BF90EB
:100A3000AF909F908F907F906F905F904F903F907E
:100A40002F900895E981FA81108280E0E2CF417011
:100A50008B859C85ADCF089590E080E0089560E09F
:100A600081E30E94F80160E082E30C94F801CF92E8
:100A7000DF92EF92FF920F931F93CF93DF931F921A
:100A80001F92CDB7DEB769834A83880F991F009103
:100A9000BF031091C003000F111FE9E6F3E09F01AF
:100AA000295633402017310714F41192F8CF2981C9
:100AB000FC01E759FC4F21838A81808360E08091AB
:100AC000BD030E94F8011016110604F5015011092A
:100AD000F801E759FC4FE080D090BB03C090B90308
:100AE00088E0F82E6E2D661F6627661F8C2D0E94EB
:100AF000F801EE0C61E08D2D0E94F80160E08D2D73
:100B00000E94F801FA94F110EDCFDDCF61E0809101
:100B1000BD030F900F90DF91CF911F910F91FF9028
:100B2000EF90DF90CF900C94F801EF92FF920F932B
:100B30001F93CF937C018C0183E0000F111F8A95D6
:100B4000E1F707581C4FC1E0F80111928F0140E016
:100B50006C2FC7010E943705CF5FC930A9F7CF912D
:100B60001F910F91FF90EF900895E091BF03F091D6
:100B7000C0038E179F072CF56830710511F14830BE
:100B80005105F9F0E0E8F0E0DF0102C0B595A79566
:100B90004A95E2F7AD01FC0133E0EE0FFF1F3A95F5
:100BA000E1F7E60FF71FE759FC4F3089222331F0B8
:100BB000432B408B6F5F40890C943705409543234E
:100BC000F8CF0895CF93DF93EC0160E08E810E940F
:100BD000F80161E08E810E94F80160E08E810E9440
:100BE000F8018BE891E00197F1F7DF91CF9108953B
:100BF000CF92DF92EF92FF920F931F93CF93DF93E9
:100C00006C017C0187E0E80EF11CD0E0C0E0062F0B
:100C100010E0B8010C2E02C0759567950A94E2F7B2
:100C20006170F70181917F010E94F8012196C43023
:100C3000D10579F7C601DF91CF911F910F91FF90F8
:100C4000EF90DF90CF900C94E205CF92DF92EF927D
:100C5000FF920F931F93CF93DF93EC01F62E642F37
:100C60008C810E94F8018D818F3F19F060E00E9415
:100C7000F8010F2D10E08F8584FF25C06E0187E0FD
:100C8000C80ED11CF12CE12CB8010E2C02C07595B8
:100C900067950A94E2F76170F60181916F010E94F5
:100CA000F801FFEFEF1AFF0A88E0E816F10461F798
:100CB000CE01DF91CF911F910F91FF90EF90DF90C8
:100CC000CF900C94E205B80184E0759567958A95FC
:100CD000E1F7CE010E94F8056F2DCE01DF91CF9193
:100CE0001F910F91FF90EF90DF90CF900C94F8053B
:100CF00040E0682F81EC93E00C94250681E00E948F
:100D000078068BE39FE10197F1F708950E947E0634
:100D10000E942F0560E086E20E94F80160E085E213
:100D20000E94F80160E084E20E94F80160E083E242
:100D30000E94F80160E082E20E94F80160E081E236
:100D40000C94F801CF93DF93823029F49091D00373
:100D500098609093D0038093D4031092D50380E4DD
:100D60008093D60380E18093D70380E58093D803F6
:100D700061E08091C5030E9426028091C6038F3FE7
:100D800019F061E00E94260261E08091C7030E9491
:100D90002602C1ECD3E09E01215C33408091D00358
:100DA00084FD0BC084E090E021962817390744F4B5
:100DB00061E08E810E942602EECF88E090E0F4CFC1
:100DC0008BE39DE00197F1F760E08091C5030E94FD
:100DD000F80160E08091C7030E94F8018091C6038A
:100DE0008F3F19F060E00E94F8018091D00384FDEC
:100DF00034C063E081EC93E00E94F805CBE4D6E4D4
:100E0000CE010197F1F763E081EC93E00E94F805D1
:100E10002197F1F763E081EC93E00E94F80583E508
:100E200092E00197F1F762E081EC93E00E94F8050F
:100E30008091D00380620E94780684E08093D10381
:100E40008CE00E9478060E947E0682E08093D203A6
:100E500086E0DF91CF910C94780680620E9478063C
:100E60008BE496E40197F1F78091D00380620E94B1
:100E7000780683E592E00197F1F78091D0038062D4
:100E80000E947806D5CF41E00E94250681E090E0DF
:100E90000895FC0101900020E9F73197AF01481B4C
:100EA000590BBC0181EC93E00C94C5021F920F9288
:100EB0000FB60F9211242F933F938F939F93AF936D
:100EC000BF938091610390916203A0916303B091FD
:100ED00064033091600323E0230F2D3758F501960A
:100EE000A11DB11D20936003809361039093620361
:100EF000A0936303B09364038091650390916603AC
:100F0000A0916703B09168030196A11DB11D809364
:100F1000650390936603A0936703B0936803BF9142
:100F2000AF919F918F913F912F910F900FBE0F9096
:100F30001F90189526E8230F0296A11DB11DD2CF50
:100F4000789484B5826084BD84B5816084BD85B5A4
:100F5000826085BD85B5816085BD80916E008160B0
:100F600080936E0010928100809181008260809356
:100F70008100809181008160809381008091800058
:100F80008160809380008091B10084608093B10083
:100F90008091B00081608093B00080919100826068
:100FA0008093910080919100816080939100809165
:100FB00090008160809390008091A1008260809376
:100FC000A1008091A10081608093A1008091A00088
:100FD00081608093A0008091210182608093210133
:100FE00080912101816080932101809120018160A5
:100FF0008093200180917A00846080937A008091B0
:101000007A00826080937A0080917A008160809378
:101010007A0080917A00806880937A001092C100F3
:10102000D0E0C0E08091BF039091C003C817D907FA
:101030002CF441E06CE0CE010E9437058091BF03A3
:101040009091C003C817D9072CF44AE06AE0CE019A
:101050000E9437058091BF039091C003C817D9073C
:101060001CF4CE010E9495052196C830D105D1F619
:1010700061E081E30E94260261E082E30E94260291
:1010800082E00E94A20662E370E080E090E00E94AD
:1010900087020E947E0660E080E30E94260260E0F4
:1010A0008FE20E94260260E08EE20E94260261E04A
:1010B00086E20E94260261E085E20E94260261E04B
:1010C00084E20E94260261E083E20E94260261E03F
:1010D00082E20E94260261E081E20E9426020E94D2
:1010E0008606D1E040E6842E4AEE942EA12CB12C47
:1010F00053E0252E00E010E0C1E032E0332E80E323
:101100000E94CF0120915F03892B91F0822F8D27C0
:1011100080935F038111BDC010927E0210927D0208
:101120000E9486066CE271E080E090E00E948702F7
:1011300080915F03882309F4A5C08FE20E94CF014C
:10114000892BC1F0C0937E0210927D02109278022A
:101150000E94B9026093790270937A0280937B02B5
:1011600090937C020E947E066CE271E080E090E049
:101170000E94870280917E02882391F08EE20E9475
:10118000CF01892B69F080917D028D2780937D02AC
:101190000E942F056CE271E080E090E00E948702DF
:1011A00080EF92E00E948F03F82E81E892E00E9487
:1011B0008F035FE6F51281C090918002923018F49F
:1011C0009F5F9093800290917F02803709F07FC0EB
:1011D000923018F49F5F90937F02F090800261E05C
:1011E000F11060E086E20E94F80161E0F61260E032
:1011F00085E20E94F80161E032E0F31260E084E2EF
:101200000E94F801F0907F0261E0F11060E083E25B
:101210000E94F80161E0F61260E082E20E94F801AB
:1012200061E042E0F41260E081E20E94F801809106
:101230007E02882339F180917D02811123C00E94B2
:10124000B902C0907902D0907A02E0907B02F090CF
:101250007C029B01AC012C193D094E095F09690113
:101260007A0130E6C3163AEED306E104F104B8F190
:1012700010927E020E942F050E947E068EE292E06E
:101280000E9449070115110509F439CF0E94000099
:1012900034CF0E947E06E1E08091D4038111E0E02A
:1012A000E195F0E0EF53FC4F848980680E94780656
:1012B00080E292E00E94490735CF909180022BE6B0
:1012C000F21281CF992309F47ECF91507ACF8C36D8
:1012D00009F083CF992309F480CF91507CCFC701C7
:1012E000B6010E949B0C2B013C0120E030E64AE64F
:1012F00056E40E94960C87FFA9C010927802E1E0A4
:101300008091D4038111E0E0E195F0E0EF53FC4FD0
:10131000848980680E94780680917802813009F47F
:10132000B7C008F4B0C0823009F4B5C0833009F406
:10133000B5C0E091D403E23008F0B3C0E150F0E072
:10134000EF53FC4F848980680E947806C701B6017C
:1013500024E0660F771F881F991F2A95D1F7A501F2
:1013600094010E94550C6901F12CE12C6FEFEC14F3
:10137000FD040CF060E241E081EC93E00E94250660
:101380004FEFE41AF40A50E1E516F10479F7809181
:101390007F02811188C060E082E30E94F80161E071
:1013A00081E30E94F801D0E0C0E010E000E021E01D
:1013B000A801BE0187E090E00E94B50521E0A801E8
:1013C000BE0186E090E00E94B50587E090E07C01D8
:1013D000E01AF10A21E0A701BE0190E080E00E943E
:1013E000B50521E0A701BE0181E090E00E94B505AE
:1013F00060E570E080E090E00E94870220E0A801B4
:10140000BE0187E090E00E94B50520E0A801BE0182
:1014100086E090E00E94B50520E0A701BE0190E0C3
:1014200080E00E94B50520E0A701BE0181E090E0C8
:101430000E94B5050F5F1F4F0830110509F0B7CFA7
:101440002196C830D10509F0B0CFA5CF20E030E615
:101450004AEE56E4C301B2010E94960C87FF03C016
:10146000C09378024CCF20E038EC4FE257E4C30140
:10147000B2010E94960C87FF03C0309278023FCFE2
:10148000209278023CCF8BE392E00E94490751CF33
:101490008AE492E0FACF89E592E0F7CF88E692E01D
:1014A000F4CFE1E04CCF813009F077C061E082E316
:1014B0000E94F80160E081E30E94F801D0E0C0E002
:1014C00010E000E021E0A801BE0187E090E00E946A
:1014D000B50521E0A801BE0186E090E00E94B505B7
:1014E00021E0A801BE0185E090E00E94B50587E0FB
:1014F00090E07C01E01AF10A21E0A701BE0190E032
:1015000080E00E94B50521E0A701BE0181E090E0E6
:101510000E94B50521E0A701BE0182E090E00E9493
:10152000B50562E370E080E090E00E94870220E071
:10153000A801BE0187E090E00E94B50520E0A80167
:10154000BE0186E090E00E94B50520E0A801BE0142
:1015500085E090E00E94B50520E0A701BE0190E083
:1015600080E00E94B50520E0A701BE0181E090E087
:101570000E94B50520E0A701BE0182E090E00E9434
:10158000B5050F5F1F4F0830110509F09BCF21965D
:10159000C830D10509F094CF89CF823009F072CEDE
:1015A00087E0C82ED12C61E082E30E94F80161E05F
:1015B00081E30E94F801D0E0C0E007E010E05601AE
:1015C000A01AB10AF12CE12C21E0A501BE01C6014F
:1015D0008E199F090E94B50521E0A801BE01C7012F
:1015E0000E94B5058FEFE81AF80A94E0E916F104B5
:1015F00059F76EE170E080E090E00E948702F12CE4
:10160000E12C20E0A501BE01C6018E199F090E94B0
:10161000B50520E0A801BE01C7010E94B5052FEF66
:10162000E21AF20A34E0E316F10459F70150110905
:1016300030F62196C830D10509F0BFCFB4CFCF9393
:10164000DF93C3E3D0E0D093BA03C093B90384E33C
:1016500090E09093BC038093BB0385E390E090936C
:10166000BE038093BD0388E090E09093C003809315
:10167000BF0361E083E30E94260261E08091BB0327
:101680000E94260261E08091BD030E94260261E073
:101690008091BD030E94F801D093BA03C093B903AF
:1016A000E9E7F3E0119283E0E93BF807D9F7D0E0EE
:1016B000C0E08091BF039091C003C817D90774F5AB
:1016C00040E06FE0CE010E9437058091BF0390910A
:1016D000C003C817D9072CF447E06BE0CE010E9485
:1016E000370540E069E0CE010E9437058091BF03D5
:1016F0009091C003C817D9071CF4CE010E9495052C
:101700008091BF039091C003C817D9072CF440E023
:101710006CE0CE010E9437052196CBCF1092C40316
:101720001092C30388E192E09093C2038093C103B7
:1017300088E28093C5038FEF8093C60389E280938C
:10174000C7038AE28093C8038BE28093C9038CE2CB
:101750008093CA038DE28093CB031092CC03109246
:10176000CD031092CE031092CF031092D00381E0EC
:101770000E94A2061092F2021092F6021092F50256
:101780001092F7028EE092E09093F1028093F002C3
:10179000ECE0F3E088E493E0108214821382158277
:1017A00036968E179F07C1F786E092E09093530319
:1017B0008093520385E092E0909355038093540305
:1017C00082E08093560381E08093570388E092E0A3
:1017D00090935103809350038AE090E090935903D3
:1017E0008093580384EF91E090935B0380935A03B6
:1017F00010925E0310925D0310924C0310924D0301
:1018000010924E0310924F0310925C0310928302C9
:101810001092870210928602109288028EE092E067
:101820009093820280938102EDE9F2E089ED92E0EB
:10183000108214821382158236968E179F07C1F785
:1018400081E092E09093E4028093E30280E092E0F2
:101850009093E6028093E50282E08093E70281E0C4
:101860008093E80283E092E09093E2028093E102A9
:101870008AE090E09093EA028093E90284EF91E09D
:101880009093EC028093EB021092EF021092EE0222
:101890001092DD021092DE021092DF021092E0023E
:1018A0001092ED02DF91CF910895052E97FB1EF463
:1018B00000940E946C0C57FD07D00E94740C07FC2A
:1018C00003D04EF40C946C0C5095409530952195B6
:1018D0003F4F4F4F5F4F089590958095709561955C
:1018E0007F4F8F4F9F4F0895A1E21A2EAA1BBB1B5B
:1018F000FD010DC0AA1FBB1FEE1FFF1FA217B307DC
:10190000E407F50720F0A21BB30BE40BF50B661FF1
:10191000771F881F991F1A9469F7609570958095B5
:1019200090959B01AC01BD01CF0108950E94D80C98
:1019300008F481E00895E89409C097FB3EF490957F
:101940008095709561957F4F8F4F9F4F9923A9F098
:10195000F92F96E9BB279395F69587957795679527
:10196000B795F111F8CFFAF4BB0F11F460FF1BC06B
:101970006F5F7F4F8F4F9F4F16C0882311F096E9FE
:1019800011C0772321F09EE8872F762F05C06623AC
:1019900071F096E8862F70E060E02AF09A95660F65
:1019A000771F881FDAF7880F9695879597F908951E
:1019B000990F0008550FAA0BE0E8FEEF1616170660
:1019C000E807F907C0F012161306E407F50798F0C8
:1019D000621B730B840B950B39F40A2661F0232BE1
:1019E000242B252B21F408950A2609F4A140A6955D
:1019F0008FEF811D811D0895EE0FFF1F881F8BBF84
:101A00000790F691E02D1994F894FFCF1D1C1B70E0
:101A10006C201F1E6F6B00000000840388038C0382
:101A2000000000004307C5022C052B054C617661C0
:101A3000706C61746F73204F4E004C617661646FFF
:101A4000206C6973746F005052454C415641444FAD
:101A50002020202020004C415641444F20202020AF
:101A60002020202000454E4A554147554520202042
:101A70002020200053454341444F20202020202097
:041A80002020000022
:020000040003F7
:10E000000D9489F10D94B2F10D94B2F10D94B2F129
:10E010000D94B2F10D94B2F10D94B2F10D94B2F1F0
:10E020000D94B2F10D94B2F10D94B2F10D94B2F1E0
:10E030000D94B2F10D94B2F10D94B2F10D94B2F1D0
:10E040000D94B2F10D94B2F10D94B2F10D94B2F1C0
:10E050000D94B2F10D94B2F10D94B2F10D94B2F1B0
:10E060000D94B2F10D94B2F10D94B2F10D94B2F1A0
:10E070000D94B2F10D94B2F10D94B2F10D94B2F190
:10E080000D94B2F10D94B2F10D94B2F10D94B2F180
:10E090000D94B2F10D94B2F10D94B2F10D94B2F170
:10E0A0000D94B2F10D94B2F10D94B2F10D94B2F160
:10E0B0000D94B2F10D94B2F10D94B2F10D94B2F150
:10E0C0000D94B2F10D94B2F10D94B2F10D94B2F140
:10E0D0000D94B2F10D94B2F10D94B2F10D94B2F130
:10E0E0000D94B2F141546D656761323536300041AF
:10E0F000726475696E6F206578706C6F72657220DE
:10E1000073746B3530305632206279204D4C530099
:10E11000426F6F746C6F616465723E004875683F52
:10E1200000436F6D70696C6564206F6E203D200048
:10E130004350552054797065202020203D20005FF9
:10E140005F4156525F415243485F5F3D2000415658
:10E1500052204C696243205665723D20004743437C
:10E160002056657273696F6E203D20004350552024
:10E1700049442020202020203D20004C6F7720663D
:10E18000757365202020203D20004869676820665F
:10E190007573652020203D200045787420667573D6
:10E1A00065202020203D20004C6F636B2066757336
:10E1B000652020203D20004D617220203720323024
:10E1C000313300312E362E3800342E332E350056A2
:10E1D00023202020414444522020206F7020636F70
:10E1E00064652020202020696E73747275637469E1
:10E1F0006F6E2061646472202020496E74657272B3
:10E20000757074006E6F20766563746F7200726A49
:10E210006D702020006A6D70200057686174207056
:10E220006F72743A00506F7274206E6F7420737541
:10E2300070706F72746564004D7573742062652030
:10E2400061206C6574746572002000577269747483
:10E25000696E672045450052656164696E672045B7
:10E26000450045452065727220636E743D00504F35
:10E27000525400303D5A65726F2061646472003FF1
:10E280003D43505520737461747300403D454550C3
:10E29000524F4D207465737400423D426C696E6B41
:10E2A000204C454400453D44756D70204545505215
:10E2B0004F4D00463D44756D7020464C415348001B
:10E2C000483D48656C70004C3D4C69737420492F83
:10E2D0004F20506F72747300513D51756974005234
:10E2E0003D44756D702052414D00563D73686F7707
:10E2F00020696E7465727275707420566563746FF0
:10E30000727300593D506F727420626C696E6B00BD
:10E310002A0011241FBECFEFD1E2DEBFCDBF01E046
:10E320000CBF12E0A0E0B2E0EEE1FDEF03E00BBFB6
:10E3300002C007900D92A030B107D9F712E0A0E01B
:10E34000B2E001C01D92AE30B107E1F70F9460F367
:10E350000D948DFE01E20EBF0FEF0DBF11241FBE05
:10E360000D9460F30D9400F020E030E040ED57E0B4
:10E3700005C0FA013197F1F72F5F3F4F2817390792
:10E38000C0F308959C01260F311DC901A0E0B0E043
:10E390002F5F3F4FABBFFC018791882361F08093D3
:10E3A000C6008091C00086FFFCCF8091C0008064D1
:10E3B0008093C000EACF08958DE08093C6008091DD
:10E3C000C00086FFFCCF8091C00080648093C000B5
:10E3D0008AE08093C6008091C00086FFFCCF8091C8
:10E3E000C00080648093C00008950F94C2F10F9420
:10E3F000DCF10895FC019081992359F09093C600B7
:10E400008091C00086FFFCCF8091C0008064809323
:10E41000C0003196992379F70895282F982F929567
:10E420009F70892F805D8A3308F0895F8093C600D2
:10E430008091C00086FFFCCF8091C00080648093F3
:10E44000C000822F8F70982F905D9A3308F0995FEB
:10E450009093C6008091C00086FFFCCF8091C000E1
:10E4600080648093C00008959C01FB01853691056E
:10E470001CF46330710594F0C90164E670E00F94F8
:10E480002EFE605D7F4F6093C6008091C00086FFC6
:10E49000FCCF8091C00080648093C0002B30310598
:10E4A00014F43297B4F0C90164E670E00F942EFEC4
:10E4B0006AE070E00F942EFE605D7F4F6093C600AF
:10E4C0008091C00086FFFCCF8091C0008064809363
:10E4D000C000C9016AE070E00F942EFEC0968093E0
:10E4E000C6008091C00086FFFCCF8091C000806490
:10E4F0008093C00008951F93182F8EE692EE60E07F
:10E500000F94C2F11093C6008091C00086FFFCCF2B
:10E510008091C00080648093C0000F94DCF11F9153
:10E5200008952F923F924F925F926F927F928F92B7
:10E530009F92AF92BF92CF92DF92EF92FF920F9392
:10E540001F93DF93CF93CDB7DEB762970FB6F894E2
:10E55000DEBF0FBECDBF382E622ECA01DB015C01CB
:10E560006D01772420E2222E2E010894411C511CBB
:10E570008BC081E0A81680E0B80681E0C80680E084
:10E58000D80628F0C601AA27BB270F940DF2BB2797
:10E59000AD2D9C2D8B2D0F940DF28A2D0F940DF225
:10E5A0002092C6008091C00086FFFCCF8091C00001
:10E5B00080648093C0009DE29093C6008091C0006B
:10E5C00086FFFCCF8091C00080648093C0002092C1
:10E5D000C6008091C00086FFFCCF8091C00080649F
:10E5E0008093C00019828601750188249924A1E0D6
:10E5F0003A1651F03A1620F0B2E03B1661F409C029
:10E600000BBFF701779007C0C7010F9477FE782EF4
:10E6100002C0F7017080872D0F940DF22092C60082
:10E620008091C00086FFFCCF8091C0008064809301
:10E63000C000872D8052F401EF70F0708F3520F408
:10E64000E40DF51D708204C0E40DF51D8EE280839B
:10E650000894E11CF11C011D111D0894811C911CE2
:10E6600090E18916910409F0C2CF80E190E0A0E02A
:10E67000B0E0A80EB91ECA1EDB1E198AC2010F9493
:10E68000FAF10F94DCF16A94662009F072CF629679
:10E690000FB6F894DEBF0FBECDBFCF91DF911F91B3
:10E6A0000F91FF90EF90DF90CF90BF90AF909F9031
:10E6B0008F907F906F905F904F903F902F90089534
:10E6C0002F923F924F925F926F927F928F929F9282
:10E6D000AF92BF92CF92DF92EF92FF920F931F9370
:10E6E000DF93CF93CDB7DEB7CD53D1400FB6F894BB
:10E6F000DEBF0FBECDBF01E20EBF0FEF0DBF94B75F
:10E70000F894A89514BE80916000886180936000A1
:10E7100010926000789493FF05C0E0910002F091A0
:10E7200001021995279A2F9A8091C00082608093E8
:10E73000C00080E18093C40088E18093C1000000A4
:10E74000EE24FF24870144E0A42EB12CCC24DD2448
:10E7500024C0C5010197F1F70894E11CF11C011DCB
:10E76000111D21E2E2162EE4F20620E0020720E06D
:10E77000120718F031E0C32ED12CC801B70127ECE5
:10E780003BE140E050E00F9441FE611571058105C9
:10E79000910519F485B1805885B98091C00087FD35
:10E7A00003C0C114D104A9F2A6014F5F5F4FC25E3E
:10E7B000DE4F59834883CE51D140C25EDE4F8881FF
:10E7C0009981CE51D140019711F00D9410FEC05D9A
:10E7D000DE4F19821882C053D14060E0C15DDE4F28
:10E7E0001882CF52D14088249924C35DDE4F19820C
:10E7F0001882CD52D140C05EDE4F188219821A8233
:10E800001B82C052D140CE5CDE4F188219821A8220
:10E810001B82C253D140EE24FF2487010BBFF701B6
:10E8200007911691C45CDE4F19830883CC53D14005
:10E830000D940BFEC25EDE4F28813981CE51D1404E
:10E840002130310509F52091C600C25EDE4F1982E4
:10E850001882CE51D14022C02F5F3F4F4F4F5F4FA4
:10E86000213082E138078AE7480780E0580780F0C6
:10E87000C45CDE4FE881F981CC53D140EF5FFF4F9C
:10E8800019F0EE27FF27099420E030E040E050E047
:10E890008091C00087FFE0CF2091C600C35DDE4FAE
:10E8A00048815981CD52D1404F5F5F4FC35DDE4FEC
:10E8B00059834883CD52D140213209F063C64A3092
:10E8C000510508F05FC60894811C911C53E0851621
:10E8D000910409F059C600E010E018C081E280936D
:10E8E000C6008091C00086FFFCCF8091C00080648C
:10E8F0008093C0002F5F3F4F2931310579F70F9486
:10E90000DCF10F5F1F4F0530110519F020E030E0FA
:10E91000E5CF10920A0210920B0210920C02109294
:10E920000D02109206021092070210920802109235
:10E930000902109202021092030210920402109235
:10E9400005028FEE90EE60E00F94F5F180E191EE1C
:10E9500060E00F94C2F18091C00087FFFCCF9091DE
:10E96000C600903608F09F759032B8F09093C600BC
:10E970008091C00086FFFCCF8091C00080648093AE
:10E98000C000A0E2A093C6008091C00086FFFCCF2B
:10E990008091C00080648093C000983409F4D7C18E
:10E9A0009934B8F4923409F459C1933458F490333B
:10E9B00019F1903308F4E3C59F33A1F1903409F0C5
:10E9C000DEC5BDC0953409F470C1963409F0D7C5D1
:10E9D00098C1923509F42BC2933538F49C3409F46C
:10E9E000F5C1913509F0CBC518C2963509F445C279
:10E9F000993509F0C4C567C483E792EE62E00F94CD
:10EA0000F5F110920602109207021092080210927D
:10EA1000090210920A0210920B0210920C0210923C
:10EA20000D0213C18FE792EE62E00F94F5F18FEEC5
:10EA300090EE60E00F94F5F181E291EE60E00F94CA
:10EA4000C2F187EB91EE60E00F94F5F180E391EE77
:10EA500060E00F94C2F184EE90EE60E00F94F5F167
:10EA60008FE391EE60E00F94C2F186E090E061E008
:10EA700070E00F9434F20F94DCF18DE591EE60E0DC
:10EA80000F94C2F189EC91EE60E00F94F5F18EE401
:10EA900091EE60E00F94C2F183EC91EE60E00F9490
:10EAA000F5F18CE691EE60E00F94C2F18EE10F94E7
:10EAB0000DF288E90F940DF281E00F940DF20F949E
:10EAC000DCF18BE791EE60E00F94C2F119E0E0E039
:10EAD000F0E010935700E4918E2F0F940DF20F94F5
:10EAE000DCF18AE891EE60E00F94C2F1E3E0F0E03F
:10EAF00010935700E4918E2F0F940DF20F94DCF1D8
:10EB000089E991EE60E00F94C2F1E2E0F0E0109349
:10EB10005700E4918E2F0F940DF20F94DCF188EAE8
:10EB200091EE60E00F94C2F1E1E0F0E01093570045
:10EB30001491812F0F940DF20F94DCF107CF8BE825
:10EB400092EE62E00F94F5F18BE492EE60E00F94A8
:10EB5000F5F10F94DCF100E010E019C0C8016F2D51
:10EB60000F947FFEFF2031F489E492EE60E00F9471
:10EB7000C2F10BC0F092C6008091C00086FFFCCFAE
:10EB80008091C00080648093C0000F5F1F4FC80158
:10EB900081519F41A0E0B0E0ABBFFC01F790BAE229
:10EBA000FB1621F0E2E000301E07C1F60F94DCF105
:10EBB0000F94DCF187E592EE60E00F94F5F10F948D
:10EBC000DCF1CC24DD2400E010E01EC0C8010F946D
:10EBD00077FEF82E882331F489E492EE60E00F94FA
:10EBE000C2F10BC08093C6008091C00086FFFCCFAD
:10EBF0008091C00080648093C000FE1419F00894D6
:10EC0000C11CD11C0F5F1F4FC80181519F41A0E063
:10EC1000B0E0ABBFFC01E790FAE2EF1621F022E092
:10EC20000030120799F60F94DCF10F94DCF182E6C4
:10EC300092EE60E00F94C2F1C60161E070E00F94C3
:10EC400034F20F94DCF10F94DCF110920202109276
:10EC50000302109204021092050278CE89E992EE26
:10EC600062E00F94F5F1279A2F9A16C02F9880E052
:10EC700090E0E0EDF7E03197F1F7019684369105E9
:10EC8000C1F72F9A80E090E0E0EDF7E03197F1F7DF
:10EC9000019684369105C1F78091C00087FFE6CFC9
:10ECA0008091C00087FFFCCF64C485EA92EE62E0E9
:10ECB0000F94F5F140910202509103026091040219
:10ECC0007091050281E020E10F9491F2809102029F
:10ECD00090910302A0910402B091050280509F4FD1
:10ECE000AF4FBF4F8093020290930302A0930402A0
:10ECF000B093050280509041A040B04008F426CE69
:10ED0000A4CF83EB92EE62E00F94F5F140910602FE
:10ED100050910702609108027091090280E020E1A1
:10ED20000F9491F28091060290910702A09108023F
:10ED3000B091090280509F4FAF4FBF4F80930602A2
:10ED400090930702A0930802B0930902FFCD80ECD4
:10ED500092EE62E00F94F5F183E792EE60E00F949B
:10ED6000F5F18FE792EE60E00F94F5F18BE892EE0B
:10ED700060E00F94F5F189E992EE60E00F94F5F10F
:10ED800085EA92EE60E00F94F5F183EB92EE60E09D
:10ED90000F94F5F180EC92EE60E00F94F5F187ECC2
:10EDA00092EE60E00F94F5F188ED92EE60E00F9442
:10EDB000F5F18FED92EE60E00F94F5F18AEE92EEB0
:10EDC00060E00F94F5F183E093EEBDCD87EC92EE19
:10EDD00062E00F94F5F181E40F947BF282E40F94EA
:10EDE0007BF283E40F947BF284E40F947BF285E45E
:10EDF0000F947BF286E40F947BF287E40F947BF20E
:10EE000088E40F947BF28AE40F947BF28BE40F94F6
:10EE10007BF28CE40F947BF299CD88ED92EE62E068
:10EE20000F94F5F1772473948824992409C48FED05
:10EE300092EE62E00F94F5F140910A0250910B02BC
:10EE400060910C0270910D0282E020E10F9491F22A
:10EE500080910A0290910B02A0910C02B0910D02D8
:10EE600080509F4FAF4FBF4F80930A0290930B0289
:10EE7000A0930C02B0930D0269CD8AEE92EE62E08F
:10EE80000F94F5F184EE90EE60E00F94F5F18FECC5
:10EE900091EE60E00F94F5F1662477244301CC5D98
:10EEA000DE4F19821882C452D140D401C301B695F5
:10EEB000A79597958795CA5DDE4F88839983AA8326
:10EEC000BB83C652D140CC5DDE4FA881B981C4520C
:10EED000D1401196CC5DDE4FB983A883C452D14096
:10EEE000CD0162E070E00F9434F2B0E2B093C6005E
:10EEF0008091C00086FFFCCF8091C0008064809329
:10EF0000C000EDE2E093C6008091C00086FFFCCF18
:10EF10008091C00080648093C000F0E2F093C6004E
:10EF20008091C00086FFFCCF8091C00080648093F8
:10EF3000C000CA5DDE4FE880F9800A811B81C6529D
:10EF4000D140BB27A12F902F8F2D0F940DF2CA5DBA
:10EF5000DE4F8881C652D1400F940DF2B0E2FB2EF5
:10EF6000F092C6008091C00086FFFCCF8091C00067
:10EF700080648093C0000DE30093C6008091C000C0
:10EF800086FFFCCF8091C00080648093C00010E2B7
:10EF90001093C6008091C00086FFFCCF8091C00016
:10EFA00080648093C0008BBEF3012791C65DDE4F65
:10EFB0002883CA52D140A22EBB24CC24DD2408943D
:10EFC000611C711C811C911C8BBEF3018791282E42
:10EFD0003324442455240894611C711C811C911C09
:10EFE0008BBEF3013791C55DDE4F3883CB52D140E4
:10EFF0000894611C711C811C911C8BBEF30147910C
:10F00000C45DDE4F4883CC52D140ADEFEA2EAFEF66
:10F01000FA2EAFEF0A2FAFEF1A2F6E0C7F1C801E57
:10F02000911E142D032DF22CEE24EA0CFB1C0C1D5A
:10F030001D1D0F940DF220E22093C6008091C000A8
:10F0400086FFFCCF8091C00080648093C000C65DC5
:10F05000DE4F8881CA52D1400F940DF230E23093D6
:10F06000C6008091C00086FFFCCF8091C000806404
:10F070008093C000C45DDE4F8881CC52D1400F9494
:10F080000DF240E24093C6008091C00086FFFCCFA5
:10F090008091C00080648093C000C55DDE4F888190
:10F0A000CB52D1400F940DF250E25093C6008091A4
:10F0B000C00086FFFCCF8091C00080648093C000B8
:10F0C0008FEFE8168FEFF80680E0080780E018075A
:10F0D00031F484E092EE60E00F94C2F1DFC0D80119
:10F0E000C7018070907CA070B0708050904CA040A0
:10F0F000B040D1F52FEF3FE340E050E0E222F322B1
:10F1000004231523CA5DDE4FA880B980CA80DB8046
:10F11000C652D140AE0CBF1CC01ED11EAA0CBB1CD7
:10F12000CC1CDD1C8EE092EE60E00F94C2F1BB2798
:10F13000A12F902F8F2D0F940DF28E2D0F940DF285
:10F1400030E23093C6008091C00086FFFCCF8091F2
:10F15000C00080648093C0004EE34093C60080915D
:10F16000C00086FFFCCF87C08EE09EEFA0E0B0E03D
:10F17000E822F9220A231B239CE0E91694E9F90608
:10F1800090E0090790E0190709F088C0C45DDE4FE0
:10F19000A881CC52D140EA2EFF2400E010E0102FCD
:10F1A0000F2DFE2CEE24C55DDE4FB881CB52D14031
:10F1B000EB0EF11C011D111DD601C501817090706F
:10F1C000A070B070DC0199278827E80EF91E0A1F8D
:10F1D0001B1F20EF30E040E050E0A222B322C42207
:10F1E000D52241E1AA0CBB1CCC1CDD1C4A95D1F7F1
:10F1F000EA0CFB1C0C1D1D1D81E090E0A0E0B0E0BE
:10F20000282239224A225B2235E1220C331C441C7D
:10F21000551C3A95D1F7E20CF31C041D151D57013E
:10F220006801AA0CBB1CCC1CDD1C85E192EE60E0E1
:10F230000F94C2F1C801AA27BB270F940DF2BB2778
:10F24000A12F902F8F2D0F940DF28E2D0F940DF274
:10F2500090E29093C6008091C00086FFFCCF809121
:10F26000C00080648093C000AEE3A093C60080918C
:10F27000C00086FFFCCF8091C00080648093C000F6
:10F28000C601AA27BB270F940DF2BB27AD2D9C2DDD
:10F290008B2D0F940DF28A2D0F940DF20F94DCF14B
:10F2A000CC5DDE4FE881F981C452D140F99709F471
:10F2B0004DCBF4E0EF2EF12C012D112D6E0C7F1CA7
:10F2C000801E911EF2CD83E093EE62E00F94F5F183
:10F2D0008AE192EE60E00F94C2F18091C00087FF56
:10F2E000FCCF1091C6001F751093C6008091C0001E
:10F2F00086FFFCCF8091C00080648093C0000F9493
:10F30000DCF1812F81548A3108F036C1163409F4BA
:10F3100095C0173490F4133409F44EC0143430F40B
:10F320001134F1F0123409F01DC130C0143409F465
:10F3300059C0153409F016C16BC01A3409F4C4C0A1
:10F340001B3438F4173409F48FC0183409F00AC19B
:10F35000A1C01B3409F4D2C01C3409F003C1E8C0B9
:10F360008FEF81B90DC082B1809582B980E090E0C5
:10F37000E0EDF7E03197F1F70196883C9105C1F790
:10F380008091C00087FFEFCF12B8EFC08FEF84B934
:10F390000DC085B1809585B980E090E0E0EDF7E0A3
:10F3A0003197F1F70196883C9105C1F78091C00033
:10F3B00087FFEFCF15B8D9C08FEF87B90DC088B1DF
:10F3C000809588B980E090E0E0EDF7E03197F1F7C3
:10F3D0000196883C9105C1F78091C00087FFEFCF6F
:10F3E00018B8C3C08FEF8AB90DC08BB180958BB9A7
:10F3F00080E090E0E0EDF7E03197F1F70196883C8E
:10F400009105C1F78091C00087FFEFCF1BB8ADC059
:10F410008FEF8DB90DC08EB180958EB980E090E0F0
:10F42000E0EDF7E03197F1F70196883C9105C1F7DF
:10F430008091C00087FFEFCF1EB897C08FEF80BBD1
:10F440000DC081B3809581BB80E090E0E0EDF7E0F6
:10F450003197F1F70196883C9105C1F78091C00082
:10F4600087FFEFCF11BA81C08FEF83BB0DC084B38C
:10F47000809584BB80E090E0E0EDF7E03197F1F714
:10F480000196883C9105C1F78091C00087FFEFCFBE
:10F4900014BA6BC08FEF809301010FC080910201FD
:10F4A00080958093020180E090E0E0EDF7E03197F5
:10F4B000F1F70196883C9105C1F78091C00087FF64
:10F4C000EDCF1092020151C08FEF809304010FC065
:10F4D0008091050180958093050180E090E0E0ED4A
:10F4E000F7E03197F1F70196883C9105C1F78091DB
:10F4F000C00087FFEDCF1092050137C08FEF8093DA
:10F5000007010FC08091080180958093080180E079
:10F5100090E0E0EDF7E03197F1F70196883C910536
:10F52000C1F78091C00087FFEDCF109208011DC088
:10F530008FEF80930A010FC080910B01809580931B
:10F540000B0180E090E0E0EDF7E03197F1F70196F4
:10F55000883C9105C1F78091C00087FFEDCF1092E4
:10F560000B0103C085E292EEEEC98091C00087FFD7
:10F57000FCCF8091C600EAC988E392EEE4C98CE131
:10F5800091EEE1C988249924933011F1943028F444
:10F59000913089F09230B8F408C0953061F195301F
:10F5A000F0F0963009F048C043C02B3109F042C951
:10F5B00091E06BE13FC96227C15DDE4F2883CF52E6
:10F5C000D14092E037C9B22FA0E0622793E032C960
:10F5D000822F90E0A82BB92B622794E02BC92E3004
:10F5E00009F039C3622795E0C05DDE4F19821882A9
:10F5F000C053D1401FC9E1E0F0E0EC0FFD1FC05D3A
:10F60000DE4F08811981C053D140E00FF11F2083E4
:10F610000F5F1F4FC05DDE4F19830883C053D14079
:10F6200062270A171B0709F005C9D80196E002C92D
:10F63000261709F010C303C0973009F0FBC87724E0
:10F640009981933109F412C19431C8F4963009F4C8
:10F65000D8C0973050F4923009F406C1933009F4C1
:10F660006DC0913009F059C253C0913109F477C08F
:10F67000923108F0BBC0903109F04FC2F5C098310B
:10F6800009F487C0993150F4953109F4EFC09531F0
:10F6900008F4C6C1963109F040C2C2C19A3109F4DA
:10F6A0006CC09A3108F491C09B3109F45BC09D3164
:10F6B00009F033C29D81903359F48F81882311F46E
:10F6C0009EE11CC0813011F091E018C098E916C08D
:10F6D000892F807591F0903539F4E0E0F0E089E011
:10F6E0008093570094910AC0983539F4E3E0F0E034
:10F6F00089E080935700949101C090E01A821B82A8
:10F700008D818C831D829E831F8227E030E009C299
:10F710001A8288E08B8381E48C8386E58D8382E581
:10F720008E8389E48F8383E5888780E589878FE5E9
:10F730008A8782E38B872BE030E0F3C18A818139AD
:10F7400041F0823941F0803911F48FE005C080E04A
:10F7500003C082E001C08AE01A828B8344C0772410
:10F76000739482C08D81882311F48EE12CC0813086
:10F7700011F081E028C088E926C01A82E1E0F0E0BB
:10F7800089E08093570084918B831C8224E030E0D1
:10F79000C8C18B81803589F48C81883039F4E2E0EE
:10F7A000F0E089E08093570084910DC0E0E0F0E044
:10F7B00089E080935700849106C0E3E0F0E089E09F
:10F7C0008093570084911A82DFCF8D81836C99E0FA
:10F7D000E1E0F0E0082E90935700E89507B600FCB2
:10F7E000FDCF1A821B8223E030E09BC180EC8A832C
:10F7F000CE5CDE4F188219821A821B82C253D1401E
:10F800008EC18A8190E0A0E0B0E0582F44273327D2
:10F8100022278B8190E0A0E0B0E0DC0199278827C7
:10F82000282B392B4A2B5B2B8D8190E0A0E0B0E098
:10F83000282B392B4A2B5B2B8C8190E0A0E0B0E089
:10F84000BA2FA92F982F8827282B392B4A2B5B2BCF
:10F85000220F331F441F551FC05EDE4F288339839C
:10F860004A835B83C052D1401A8259C13A81C95C34
:10F87000DE4F3883C753D140CA5CDE4F1882C6536F
:10F88000D1408B81C82EDD24CA5CDE4F488159816E
:10F89000C653D140C42AD52A933109F082C0CE5C28
:10F8A000DE4F88819981AA81BB81C253D1408050AB
:10F8B000904CA340B04030F583E0CE5CDE4FE88052
:10F8C000F9800A811B81C253D140F70100935B008C
:10F8D00080935700E89507B600FCFDCFCE5CDE4F65
:10F8E000088119812A813B81C253D14000501F4FAA
:10F8F0002F4F3F4FCE5CDE4F088319832A833B8313
:10F90000C253D140C05EDE4F488159816A817B81FC
:10F91000C052D140DE011B9631E08C9111962C91A2
:10F9200011971296C75CDE4F2883C953D140C85C3B
:10F93000DE4F1882C853D14090E0C85CDE4FE881AA
:10F94000F981C853D1408E2B9F2B0C01FA01609393
:10F950005B0030935700E89511244E5F5F4F6F4F67
:10F960007F4F0EEFE02E0FEFF02ECE0CDF1CC114F8
:10F97000D10499F685E0C05EDE4F088119812A81A5
:10F980003B81C052D140F80120935B008093570027
:10F99000E89507B600FCFDCF81E180935700E8951C
:10F9A00035C0C05EDE4F88819981AA81BB81C0527B
:10F9B000D140B695A795979587957C018601ABE0D8
:10F9C000AA2EB12CAC0EBD1E0BC0D5016D915D01F0
:10F9D000C7010F947FFE0894E11CF11C01501040F8
:10F9E0000115110591F7A60160E070E0440F551F65
:10F9F000661F771FC05EDE4FE880F9800A811B8199
:10FA0000C052D1404E0D5F1D601F711F1A82C05E33
:10FA1000DE4F488359836A837B83C052D1407FC0C5
:10FA2000FA80C55CDE4FF882CB53D140C65CDE4F16
:10FA30001882CA53D1408B81C82EDD24C65CDE4FAC
:10FA400008811981CA53D140C02AD12A1A828981DA
:10FA5000BE016D5F7F4F843121F59601C05EDE4FA0
:10FA6000E880F9800A811B81C052D1400BBFF701A9
:10FA700087919691DB018C9311969C936E5F7F4FDB
:10FA8000D801C7010296A11DB11DC05EDE4F88835B
:10FA90009983AA83BB83C052D14022503040F1F6F3
:10FAA00036C0C05EDE4F288139814A815B81C052F9
:10FAB000D1400894C108D108760100E010E0089414
:10FAC000C11CD11C0894E11CF11C011D111DE20E8A
:10FAD000F31E041F151F21BDBB27A52F942F832FB5
:10FAE00082BD2F5F3F4F4F4F5F4FF89A80B5DB01CC
:10FAF0008D93BD012E153F054007510761F7C05E8C
:10FB0000DE4F288339834A835B83C052D1409601FC
:10FB10002D5F3F4FFB01108204C080EC8A8322E0FE
:10FB200030E08BE18093C6008091C00086FFFCCF5F
:10FB30008091C00080648093C000C15DDE4FF88179
:10FB4000CF52D140F093C6008091C00086FFFCCF19
:10FB50008091C00080648093C000432F3093C60022
:10FB60008091C00086FFFCCF8091C00080648093AC
:10FB7000C000922F2093C6008091C00086FFFCCF6A
:10FB80008091C00080648093C0008EE08093C600A6
:10FB90008091C00086FFFCCF8091C000806480937C
:10FBA000C00065E1C15DDE4FE880CF52D1406E25D7
:10FBB00069276427FE01319610C090819093C6009A
:10FBC0008091C00086FFFCCF31968091C000806498
:10FBD0008093C0006927215030402115310569F715
:10FBE0006093C6008091C00086FFFCCF8091C0006A
:10FBF00080648093C00085B1805885B9772081F4F6
:10FC0000C15DDE4F0881CF52D1400F5FC15DDE4F35
:10FC10000883CF52D14090E0A0E0B0E00D941AF4F8
:10FC200027982F9880E090E020ED37E0F901319798
:10FC3000F1F7019684369105C9F700008091C00064
:10FC40008D7F8093C00081E180935700E895EE2777
:10FC5000FF270994FFCF90E00D941AF497FB092E2B
:10FC600007260AD077FD04D02ED006D000201AF443
:10FC7000709561957F4F0895F6F7909581959F4F08
:10FC80000895A1E21A2EAA1BBB1BFD010DC0AA1FDD
:10FC9000BB1FEE1FFF1FA217B307E407F50720F0F5
:10FCA000A21BB30BE40BF50B661F771F881F991F70
:10FCB0001A9469F760957095809590959B01AC01B9
:10FCC000BD01CF010895AA1BBB1B51E107C0AA1FAC
:10FCD000BB1FA617B70710F0A61BB70B881F991FED
:10FCE0005A95A9F780959095BC01CD010895F99991
:10FCF000FECF92BD81BDF89A992780B50895262F31
:10FD0000F999FECF1FBA92BD81BD20BD0FB6F89400
:0EFD1000FA9AF99A0FBE01960895F894FFCF63
:00000001FF
