:100000000C942F010C9460010C9460010C9460011D
:100010000C9460010C9460010C9460010C946001DC
:100020000C9460010C9460010C9460010C946001CC
:100030000C9460010C9460010C9460010C946001BC
:100040000C9460010C9460010C9460010C946001AC
:100050000C9460010C9460010C9460010C94A00459
:100060000C9460010C9460010C9460010C9460018C
:100070000C9460010C9460010C9460010C9460017C
:100080000C9460010C9460010C9460010C9460016C
:100090000C9460010C9460010C9460010C9460015C
:1000A0000C9460010C9460010C9460010C9460014C
:1000B0000C9460010C9460010C9460010C9460013C
:1000C0000C9460010C9460010C9460010C9460012C
:1000D0000C9460010C9460010C9460010C9460011C
:1000E0000C9460010C94B7010C948A010C949A044E
:1000F0000C9480010C94EC020C94BF020C94AD01A2
:100100000C94A5010C9486010C948E010C9495011D
:100110000C94ED020C94C5010C94C1010C94A9013E
:100120000C949F010C949B010C94BB010C949201C4
:100130000C941A060C94C0010C94B3010000210029
:10014000240027002A002D003000330001010000A8
:10015000040107010A0100002200250028002B00ED
:100160002E003100340002010000050108010B01DE
:10017000000020002300260029002C002F00320060
:100180000001000003010601090105050505070539
:1001900008080808020202020A0A08080404040403
:1001A000010101010101010103030303030303032F
:1001B000040707070C0C0C0C0C0C0C0C02020202BE
:1001C00006060606060606060B0B0B0B0B0B0B0BA7
:1001D0000102102020080810204010204080020159
:1001E000020108040201010204081020408080403E
:1001F000201008040201800402018040201008043D
:1002000002010804020101020408102040800102DA
:1002100004081020408000000A0B02090C0D0E0893
:1002200007030401000000000000000000000000BF
:1002300000000000000000000000000000000000BE
:10024000000012111000000000000000000000007B
:100250000000000000000000000000001A06112449
:100260001FBECFEFD1E2DEBFCDBF00E00CBF12E07A
:10027000A0E0B2E0E4E8FCE000E00BBF02C00790C1
:100280000D92A639B107D9F722E0A6E9B2E001C084
:100290001D92A73BB207E1F711E0CFE2D1E000E009
:1002A00006C021970109802FFE010E943806CE3238
:1002B000D10780E00807A9F70E94EA040C944006E1
:1002C0000C9400008150823108F05AC0E82FF0E011
:1002D0008827E259FE4F8F4F0C9438068E01920109
:1002E000800186018A01C00195019B019F01A50142
:1002F000A901AD01B301B701C001BB01C101C50135
:10030000809180008F778093800008958091800095
:100310008F7DF9CF80918000877FF5CF84B58F776F
:1003200084BD089584B58F7DFBCF8091B0008F7719
:100330008093B00008958091B0008F7DF9CF8091B7
:1003400090008F77809390000895809190008F7D2A
:10035000F9CF80919000877FF5CF8091A0008F77B3
:100360008093A00008958091A0008F7DF9CF8091A7
:10037000A000877FF5CF809120018F7780932001A7
:100380000895809120018F7DF9CF80912001877F92
:10039000F5CFCF93DF93282F30E0F901EA5EFD4FD0
:1003A0008491F901E053FE4FD491F901E657FE4FD5
:1003B000C491CC23A1F081110E946201EC2FF0E0E6
:1003C000EE0FFF1FE059FE4FA591B491EC91ED2384
:1003D00081E090E009F480E0DF91CF91089580E022
:1003E00090E0FACF1F93CF93DF93282F30E0F901ED
:1003F000EA5EFD4F8491F901E053FE4FD491F9017B
:10040000E657FE4FC491CC23A9F0162F81110E940C
:100410006201EC2FF0E0EE0FFF1FEA5AFE4FA591AC
:10042000B4918FB7F894EC91111108C0D095DE23E8
:10043000DC938FBFDF91CF911F910895DE2BF8CF12
:10044000CF93DF9390E0FC01E053FE4F2491865759
:100450009E4FFC0184918823D1F090E0880F991F72
:10046000FC01E45CFE4FA591B491FC01EA5AFE4FF9
:10047000C591D491623071F49FB7F8943C91822F6A
:10048000809583238C93E8812E2B28839FBFDF9157
:10049000CF9108958FB7F894EC912E2B2C938FBFAA
:1004A000F6CF90917B00977F90937B00865380647A
:1004B00080937C0080917A00806480937A008091A0
:1004C0007A0086FDFCCF80917800909179000895A4
:1004D0003FB7F89480919B0290919C02A0919D025D
:1004E000B0919E0226B5A89B05C02F3F19F001963A
:1004F000A11DB11D3FBFBA2FA92F982F8827BC017E
:10050000CD01620F711D811D911D42E0660F771FA5
:10051000881F991F4A95D1F708958F929F92AF92A5
:10052000BF92CF92DF92EF92FF924B015C010E944B
:1005300068026B017C010E9468026C197D098E09BA
:100540009F09683E734081059105A8F321E0821A56
:100550009108A108B10888EEC80E83E0D81EE11CFE
:10056000F11C81149104A104B10429F7FF90EF90CC
:10057000DF90CF90BF90AF909F908F900895AF92F3
:10058000BF92CF92DF92EF92FF920F931F93CF9380
:10059000DF936C017B018B01040F151FEB015E01E2
:1005A000AE18BF08C017D10759F06991D601ED9177
:1005B000FC910190F081E02DC6011995892B79F706
:1005C000C501DF91CF911F910F91FF90EF90DF90C8
:1005D000CF90BF90AF900895089590E080E0089587
:1005E00060E08FE10E94F20160E080E20E94F2018F
:1005F00060E081E20E94F20160E082E20C94F2018C
:10060000CF93C82F0E94F00261E08FE10E94F201B7
:1006100061E08C2FCF910C94F201FC01019000203D
:10062000E9F73197AF01481B590BBC018FE992E004
:100630000C94BF02CF93DF93EC0160E08E810E94A7
:10064000F20161E08E810E94F20160E08E810E94E1
:10065000F2018BE891E00197F1F7DF91CF910895D6
:10066000CF92DF92EF92FF920F931F93CF93DF937E
:100670006C017C0187E0E80EF11CD0E0C0E0062FA1
:1006800010E0B8010C2E02C0759567950A94E2F748
:100690006170F70181917F010E94F2012196C430BF
:1006A000D10579F7C601DF91CF911F910F91FF908E
:1006B000EF90DF90CF900C941A03CF92DF92EF92DD
:1006C000FF920F931F93CF93DF93EC01F62E642FCD
:1006D0008C810E94F2018D818F3F19F060E00E94B1
:1006E000F2010F2D10E08F8584FF25C06E0187E099
:1006F000C80ED11CF12CE12CB8010E2C02C075954E
:1007000067950A94E2F76170F60181916F010E948A
:10071000F201FFEFEF1AFF0A88E0E816F10461F733
:10072000CE01DF91CF911F910F91FF90EF90DF905D
:10073000CF900C941A03B80184E0759567958A955B
:10074000E1F7CE010E9430036F2DCE01DF91CF91F2
:100750001F910F91FF90EF90DF90CF900C9430039A
:1007600040E0682F8FE992E00C945D0381E00E94E5
:10077000B0038BE39FE10197F1F708950E94B60360
:100780008CE092E00E940D0381E290E00E94000361
:1007900060EA7FE080E090E00E948D020C94F0021D
:1007A0000E94B60385E192E00E940D0361E08EE1B4
:1007B0000E94F20186E30E945102883592403CF487
:1007C00068EC70E080E090E00E948D02F3CF60E082
:1007D0008EE10C94F201CF93DF93823029F4909153
:1007E000AE0298609093AE028093B2021092B30270
:1007F00080E48093B40280E18093B50280E5809329
:10080000B60261E08091A3020E9420028091A402BE
:100810008F3F19F061E00E94200261E08091A50203
:100820000E942002CFE9D2E09E012F5932408091F0
:10083000AE0284FD0BC084E090E0219628173907B2
:1008400044F461E08E810E942002EECF88E090E0C7
:10085000F4CF8BE39DE00197F1F760E08091A30274
:100860000E94F20160E08091A5020E94F201809155
:10087000A4028F3F19F060E00E94F2018091AE0265
:1008800084FD34C063E08FE992E00E943003CBE442
:10089000D6E4CE010197F1F763E08FE992E00E9480
:1008A00030032197F1F763E08FE992E00E94300373
:1008B00083E592E00197F1F762E08FE992E00E9410
:1008C00030038091AE0280620E94B00384E0809386
:1008D000AF028CE00E94B0030E94B60382E08093D6
:1008E000B00286E0DF91CF910C94B00380620E9449
:1008F000B0038BE496E40197F1F78091AE02806239
:100900000E94B00383E592E00197F1F78091AE0277
:1009100080620E94B003D5CFE091B202E23040F491
:10092000E150F0E0E156FD4F848980680C94B003FB
:10093000E1E0F7CF41E00E945D0381E090E008959F
:100940001F920F920FB60F9211242F933F938F9304
:100950009F93AF93BF938091970290919802A0913B
:100960009902B0919A023091960223E0230F2D371D
:1009700058F50196A11DB11D209396028093970210
:1009800090939802A0939902B0939A0280919B024F
:1009900090919C02A0919D02B0919E020196A11D92
:1009A000B11D80939B0290939C02A0939D02B093F3
:1009B0009E02BF91AF919F918F913F912F910F9088
:1009C0000FBE0F901F90189526E8230F0296A11DC9
:1009D000B11DD2CF789484B5826084BD84B5816026
:1009E00084BD85B5826085BD85B5816085BD8091FA
:1009F0006E00816080936E00109281008091810072
:100A00008260809381008091810081608093810069
:100A1000809180008160809380008091B10084602B
:100A20008093B1008091B00081608093B00080918C
:100A30009100826080939100809191008160809309
:100A40009100809190008160809390008091A1003E
:100A500082608093A1008091A10081608093A100B9
:100A60008091A00081608093A0008091210182602C
:100A700080932101809121018160809321018091E7
:100A8000200181608093200180917A0084608093AE
:100A90007A0080917A00826080937A0080917A0057
:100AA000816080937A0080917A00806880937A00D8
:100AB0001092C10062E086E10E94200262E087E1BC
:100AC0000E94200261E08EE10E94200261E08FE13D
:100AD0000E94200261E080E20E94200261E081E247
:100AE0000E94200261E082E20E94200282E00E94D5
:100AF000EB0383E292E00E940D030E948C048EE2DD
:100B000092E00E940D030E94F002C0E0D0E087E175
:100B10000E94C901019769F40E948C0484E392E069
:100B20000E940D030E94F002209789F30E940000AA
:100B3000EECF0E948C0484E492E00E940D0386E1D3
:100B40000E94C901892B81F70E94B60383E592E0D8
:100B50000E940D0368EE73E080E090E00E948D0239
:100B60000E94D0030E94B60380E692E00E940D032B
:100B700087E30E945102843F91403CF468EC70E0AE
:100B800080E090E00E948D02F3CF0E94B6038BE6D6
:100B900092E00E940D0380E290E00E94000368E86A
:100BA00073E180E090E00E948D020E94F0020E94BA
:100BB000BE030E94B60383E792E00E940D030E94E9
:100BC000D00380E290E00E94000368EB7BE080E0CD
:100BD00090E00E948D020E94F0020E94BE030E94DB
:100BE000B6038EE792E00E940D0382E290E00E943D
:100BF000000360EA7FE080E090E00E948D020E94A6
:100C0000F0020E94B60386E892E00E940D0368E8B5
:100C100073E180E090E00E948D020E94B60383E2BF
:100C200092E00E940D030E948C048EE292E00E94EA
:100C30000D037ACFEFE9F2E01382128284E092E0B2
:100C40009183808387E084838FEF858386E086832A
:100C500085E0878384E0808783E0818782E08287E4
:100C60001386148615861686178681E00C94EB038E
:100C7000EE0FFF1F881F8BBF0790F691E02D199490
:040C8000F894FFCF16
:100C8400000000009A04BF02ED02EC024472656E9B
:100C9400616E646F004C6C656E616E646F20616799
:100CA4007561004C617661706C61746F73004C699E
:100CB40073746F0050756572746120616269657246
:100CC4007461200050726573696F6E6520535441DE
:100CD400525400496E696369616E646F2E2E2E0052
:100CE40043616C656E74616E646F004C6176616E15
:100CF400646F00456E6A756167616E646F00536569
:100D040063616E646F004369636C6F207465726D18
:060D1400696E61646F00CE
:00000001FF
