:100000000C9436010C9467010C9467010C94670101
:100010000C9467010C9467010C9467010C946701C0
:100020000C9467010C9467010C9467010C946701B0
:100030000C9467010C94F30C0C9467010C94670109
:100040000C9467010C9467010C9467010C94670190
:100050000C9467010C9467010C9467010C94A90C33
:100060000C9467010C9467010C9467010C94670170
:100070000C9467010C9467010C9467010C94670160
:100080000C9467010C9467010C9467010C94670150
:100090000C9467010C9467010C9467010C94670140
:1000A0000C9467010C9467010C9467010C94670130
:1000B0000C9467010C9467010C9467010C94670120
:1000C0000C9467010C9467010C9467010C94670110
:1000D0000C9467010C9467010C9467010C94670100
:1000E0000C9467010C94DA050C94C2010C949901EC
:1000F0000C94CC010C94C8010C9487010C948D01D4
:100100000C94A2010C94C7010C942F140C949C0124
:100110000C94D6050C9495010C94BE010C947907AF
:100120000C9413050C94D2050C94BA010C947A0724
:100130000C94B0010C94A6010C94AC010C949101A8
:100140000C94B4010C948F0A0000210024002700B5
:100150002A002D00300033000101000004010701D6
:100160000A01000020002300260029002C002F0097
:1001700032000001000003010601090100000A0B22
:1001800002090C0D0E080703040100000000000026
:10019000000000000000000000000000000000005F
:1001A000000000000000000012111000000000001C
:1001B000000000000000000000000000000000003F
:1001C000000001021020200808102040102040806C
:1001D000020102010804020101020408102040800B
:1001E0008040201008040201800402018040201099
:1001F00008040201080402010102040810204080E2
:100200000102040810204080000022002500280080
:100210002B002E003100340002010000050108010E
:100220000B0105050505070508080808020202027A
:100230000A0A080804040404010101010101010182
:100240000303030303030303040707070C0C0C0C4D
:100250000C0C0C0C02020202060606060606060636
:100260000B0B0B0B0B0B0B0B02002F1411241FBEDF
:10027000CFEFD1E2DEBFCDBF00E00CBF12E0A0E0C7
:10028000B2E0E6E3FDE200E00BBF02C007900D9292
:10029000AE3EB107D9F724E0AEEEB2E001C01D9248
:1002A000A43EB207E1F711E0C6E3D1E000E006C0EA
:1002B00021970109802FFE010E947D16C533D107C9
:1002C00080E00807A9F70E94920D0C9499160C94EF
:1002D00000008150823108F05AC0E82FF0E08827F2
:1002E000EB58FE4F8F4F0C947D16950199018701B5
:1002F0008D019101C7019C01A201A601AC01B001D1
:10030000B401BA01BE01C701C201C801CC0180918C
:1003100080008F77809380000895809180008F7D8A
:10032000F9CF80918000877FF5CF84B58F7784BD2A
:10033000089584B58F7DFBCF8091B0008F77809337
:10034000B00008958091B0008F7DF9CF809190002A
:100350008F77809390000895809190008F7DF9CFE2
:1003600080919000877FF5CF8091A0008F77809358
:10037000A00008958091A0008F7DF9CF8091A0000A
:10038000877FF5CF809120018F778093200108959A
:10039000809120018F7DF9CF80912001877FF5CF5B
:1003A000CF93DF93282F30E0F901E458FE4F84917A
:1003B000F901EE53FE4FD491F901EE5DFD4FC4916A
:1003C000CC23A1F081110E946901EC2FF0E0EE0F27
:1003D000FF1FEE59FE4FA591B491EC91ED2381E002
:1003E00090E009F480E0DF91CF91089580E090E003
:1003F000FACF1F93CF93DF93282F30E0F901E45811
:10040000FE4F8491F901EE53FE4FD491F901EE5D58
:10041000FD4FC491CC23A9F0162F81110E946901D0
:10042000EC2FF0E0EE0FFF1FE85FFD4FA591B491B8
:100430008FB7F894EC91111108C0D095DE23DC93AE
:100440008FBFDF91CF911F910895DE2BF8CFCF930F
:10045000DF9390E0FC01EE53FE4F24918E5D9D4FA3
:10046000FC0184918823C9F090E0880F991FFC015A
:10047000E85BFE4FA591B491FC01E85FFD4FC5918B
:10048000D49161110DC09FB7F8948C91209582236F
:100490008C938881282328839FBFDF91CF91089573
:1004A000623051F49FB7F8943C91822F809583235A
:1004B0008C93E8812E2BEFCF8FB7F894EC912E2BF5
:1004C0002C938FBFEACF4F925F926F927F928F9261
:1004D0009F92AF92BF92CF92DF92EF92FF920F93D3
:1004E0001F93CF938C014A015B01809110028A31E6
:1004F00099F08F3F09F46FC0CF911F910F91FF903A
:10050000EF90DF90CF90BF90AF909F908F907F90B3
:100510006F905F904F900895E8E6F2E0C491C7FDB8
:10052000EBCF61E08AE10E9427022801712C612C47
:10053000CC23E9F0980150E040E0C23009F01FC13F
:1005400028013A0160E970ED83E090E00E94A8156F
:1005500069017A0181E0C81AD108E108F1088FEF3A
:10056000C816D104E104F10409F00CF495C168E463
:1005700078EE81E090E0A30192010E94A815690144
:100580007A0181E0C81AD108E108F108CC2309F406
:10059000A1C1C23009F094C18FEFC816D104E104A3
:1005A000F10409F00CF494C164E274EF80E090E08F
:1005B000A30192010E94A81569017A0181E0C81A7D
:1005C000D108E108F10885E09091B100987F892B6E
:1005D0008093B1009BC18AE180931002E8E6F2E0CB
:1005E000C4918C2FCF3F09F487CFC23009F468C083
:1005F00060F4CC2379F1C13009F444C087FD7CCF8D
:1006000061E08AE10E94270295CFC43009F499C0C5
:1006100008F478C0C53091F71092200110922101A2
:100620008091210188608093210180912101816066
:1006300080932101ECE3F2E0E491F0E0EE0FFF1F84
:10064000E85FFD4F85919491ECEDF1E0E491E0934A
:10065000540467CF14BC15BC84B5826084BD85B5D5
:10066000816085BDECE3F2E0E491F0E0EE0FFF1F66
:10067000E85FFD4F85919491ECEDF1E0E491E0931A
:100680005B044FCF10928000109281008091810016
:1006900088608093810080918100816080938100D7
:1006A000ECE3F2E0E491F0E0EE0FFF1FE85FFD4FB6
:1006B00085919491ECEDF1E0E491E0935A0431CF0F
:1006C0001092B0001092B1008091B00082608093CF
:1006D000B0008091B10081608093B100ECE3F2E062
:1006E000E491F0E0EE0FFF1FE85FFD4F85919491DC
:1006F0009093590480935804ECEDF1E0E491E09379
:1007000057040FCF109290001092910080919100A9
:100710008860809391008091910081608093910026
:10072000ECE3F2E0E491F0E0EE0FFF1FE85FFD4F35
:1007300085919491ECEDF1E0E491E0935604C3E0EF
:10074000F0CE1092A0001092A1008091A1008860CC
:100750008093A1008091A10081608093A100ECE3CF
:10076000F2E0E491F0E0EE0FFF1FE85FFD4F8591AE
:100770009491ECEDF1E0E491E0935504D2CE60E089
:1007800072E18AE790E00E94A81569017A0181E090
:10079000C81AD108E108F108C13039F4809181000C
:1007A000887F816080938100B1C0C33039F480912B
:1007B0009100887F816080939100A8C0C43039F493
:1007C0008091A100887F81608093A1009FC0C53087
:1007D00009F09CC080912101887F81608093210174
:1007E00095C0C7BC20937004309371044093720489
:1007F0005093730480916E00826080936E007CCE73
:10080000C092B300209368043093690440936A0453
:1008100050936B04809170008260809370006CCE66
:10082000D0929900C092980020936404309365049C
:1008300040936604509367048091710082608093B6
:1008400071005ACED092A900C092A80020936004F3
:10085000309361044093620450936304809172006A
:1008600082608093720048CEC43061F3CCF2C53010
:1008700009F042CED0922901C092280120935C0455
:1008800030935D0440935E0450935F048091730045
:1008900082608093730030CE83E096CE62E17AE787
:1008A00080E090E0A30192010E94A81569017A01FD
:1008B00081E0C81AD108E108F108C1E086E084CEE1
:1008C0008FEFC816D104E104F10409F03CF7C1E050
:1008D00084E07ACE93E08FEFC816D104E104F104EE
:1008E00089F084F062E17AE780E090E0A301920170
:1008F0000E94A81569017A0181E0C81AD108E108AF
:10090000F10894E085B5887F892B85BDD801AA0FB1
:10091000BB1FA50194010E94C71528EE33E040E0FB
:1009200050E00E94D215C23009F46ACF0CF09CCF7F
:10093000CC2309F456CFC13009F0DECDD092890026
:10094000C092880020936C0430936D0440936E0431
:1009500050936F0480916F00826080936F00CCCDC4
:100960003FB7F8948091500490915104A0915204A3
:10097000B091530426B5A89B05C02F3F19F00196EE
:10098000A11DB11D3FBFBA2FA92F982F8827BC01E9
:10099000CD01620F711D811D911D42E0660F771F11
:1009A000881F991F4A95D1F708958F929F92AF9211
:1009B000BF92CF92DF92EF92FF924B015C010E94B7
:1009C000B0046B017C010E94B0046C197D098E0992
:1009D0009F09683E734081059105A8F321E0821AC2
:1009E0009108A108B10888EEC80E83E0D81EE11C6A
:1009F000F11C81149104A104B10429F7FF90EF9038
:100A0000DF90CF90BF90AF909F908F9008952FB7B9
:100A1000F89460914C0470914D0480914E04909133
:100A20004F042FBF0895AF92BF92CF92DF92EF9203
:100A3000FF920F931F93CF93DF936C017B018B0188
:100A4000040F151FEB015E01AE18BF08C017D107D8
:100A500059F06991D601ED91FC910190F081E02D62
:100A6000C6011995892B79F7C501DF91CF911F91A7
:100A70000F91FF90EF90DF90CF90BF90AF900895CF
:100A8000CF93DF93DC0126E0629FA00DB11D1124FE
:100A900090965C934E935F9721E091962C9391975B
:100AA000FC01E359FF4F0190F081E02DEC01C459A6
:100AB000DF4F2881222341F0309719F0DC016623B3
:100AC00029F0DF91CF9108953097D9F35C968C91FE
:100AD000DF91CF911994CF92DF92EF92FF920F9313
:100AE0001F93CF93DF93EC01162F042FFC0186E0B8
:100AF000689FE00DF11D112411A2878D90A1813016
:100B0000910509F180F08230910509F443C0039703
:100B100009F445C0DF91CF911F910F91FF90EF90A5
:100B2000DF90CF9008954423A9F341E050E0CE0137
:100B30000E9440050E940705C85ADF4F68837983E9
:100B40008A839B83E7CF0E940705FE01E85AFF4F87
:100B5000C080D180E280F380AB01BC014C195D09FB
:100B60006E097F09729680819181B0E0A0E08417C0
:100B70009507A607B70770F442E050E0612FCE0159
:100B8000DF91CF911F910F91FF90EF90DF90CF9069
:100B90000C94400543E050E00111BCCFEFCF50E092
:100BA00040E0ECCF862F642F0C942702862F642F11
:100BB0000C94F901862F0C94D0012F923F924F9202
:100BC0005F926F927F928F929F92AF92BF92CF92DD
:100BD000DF92EF92FF920F931F93CF93DF93CDB7E6
:100BE000DEB72C970FB6F894DEBF0FBECDBF9C8743
:100BF0008B8784599F4F9A83898381E0A981BA8129
:100C00008C930E940705EB85FC85E45AFF4FFC831B
:100C1000EB830081118122813381AB01BC01401B38
:100C2000510B620B730BEB85FC85E859FF4F8081FC
:100C30009181B0E0A0E084179507A607B70708F0F8
:100C40004FC110E0CB84DC84F6E6CF0ED11CEB84E0
:100C5000FC8422E6E20EF11CD6018C91181758F4A0
:100C6000D701ED91FC91E10FF11D62E080810E94BE
:100C700027021F5FF1CF312C4B845C84B7E64B0E0B
:100C8000511CEB84FC84E4E6EE0EF11C812C912CCB
:100C9000540183942B853C852E593F4F3A872987F1
:100CA000D2018C91381608F063C0032D10E0D701F3
:100CB000ED91FC91E00FF11F61E080810E9427021D
:100CC000D701ED91FC91E00FF11F60E080810E945F
:100CD000F901D501C401032C04C0880F991FAA1F74
:100CE000BB1F0A94D2F79E838D83FC01E095F0959B
:100CF000F887EF83212CD6018C91281620F5622CE1
:100D0000712CA985BA85ED91FC91E60DF71D8081C6
:100D10000E94D001660C771CEB85FC85E60DF71D63
:100D2000892B51F4808591852D813E81822B932BD7
:100D3000918780872394DFCF80859185AF81B885A7
:100D40008A239B23F5CFD701ED91FC91E00FF11F92
:100D500061E080810E94F901F70180819181080F93
:100D6000191F60E0D8018C910E942702339498CF1C
:100D70000B851C85C801CC9678012FEF3FEFF7015A
:100D8000478D50A1452B21F4148E368F258F11A24B
:100D9000F6E0EF0EF11CE816F90689F7A12C8B841A
:100DA0009C8420E6820E911C96E0392ED6018C910F
:100DB000A81608F058C0B12C6A2C712CB4E06B0E48
:100DC000711C660C771CEB85FC856E0E7F1ED201B4
:100DD0008C91B81608F045C0F301408151810B2C6D
:100DE00002C0569547950A94E2F7A89EC0011124C7
:100DF0008B0D911DEB85FC8560E0258D368D82176E
:100E0000930709F472C06F5F36966A30B1F740FFFE
:100E100026C0EB85FC8570E060E0248D211119C0AF
:100E2000D401ED91FC91E80FF91F4081369EF0014D
:100E3000379EF00D11242B853C85E20FF31F448F64
:100E4000968F858F10A2178E41E0C9010E946B0515
:100E500006C06F5F7F4F36966A307105F1F6B39426
:100E6000B6CFA394A3CFD12CD80191968C918111A8
:100E7000D82E0A5F1F4FE016F106B1F70E94070552
:100E8000EB81FC816083718382839383DD2041F158
:100E9000AB85BC8591968C919197882309F15F96DB
:100EA0008D919C9190970197D9F45C968C912C969A
:100EB0000FB6F894DEBF0FBECDBFDF91CF911F916B
:100EC0000F91FF90EF90DF90CF90BF90AF909F90E9
:100ED0008F907F906F905F904F903F902F900895EC
:100EE000E981FA81108280E0E2CF41708B859C8598
:100EF000ADCF089590E080E0089560E081E30E9426
:100F0000F90160E082E30C94F901CF9360E086E29E
:100F10000E94F90160E085E20E94F90160E084E24C
:100F20000E94F901C091670361E086E2CC2341F0A1
:100F300061E085E2C13021F0C23021F461E084E259
:100F40000E94F90160E083E20E94F90160E082E220
:100F50000E94F90160E081E20E94F9018091F702AC
:100F6000811127C061E083E20E94F90160E089E11C
:100F70000E94F90160E088E10E94F90160E087E1E8
:100F80000E94F901809149048823E9F08091480486
:100F9000811119C061E089E1CC2341F061E088E171
:100FA000C13021F0C23079F461E087E1CF910C9437
:100FB000F901813019F461E082E2D6CF8230B1F6D6
:100FC00061E081E2D1CFCF9108958091D703813044
:100FD00049F020F0823019F00C94850781E080936D
:100FE000F70202C01092F70210926703F5CF833028
:100FF000910511F184309105A1F10297B1F044E619
:1010000050E060E070E088EE93E00E94630266E9E1
:1010100070E080E090E00E94D5044CE251E060E096
:1010200070E08CED95E00C94630242E350E060E0E8
:1010300070E080ED97E0F7CF44E650E060E070E0CC
:1010400080E293E00E94630264E670E080E090E05A
:101050000E94D50444E650E060E070E080E293E056
:10106000E2CF4CE251E060E070E084EF91E00E945A
:1010700063026CE271E080E090E00E94D50440E9F8
:1010800051E060E070E08CE291E0CDCFCF92DF9252
:10109000EF92FF920F931F93CF93DF931F921F92B4
:1010A000CDB7DEB769834A83880F991F0091CA04C0
:1010B0001091CB04000F111FE4E7F4E09F012457C7
:1010C00034402017310714F41192F8CF2981FC0124
:1010D000EC58FB4F21838A81808360E08091C804B3
:1010E0000E94F9011016110604F501501109F801CA
:1010F000EC58FB4FE080D090C604C090C40488E058
:10110000F82E6E2D661F6627661F8C2D0E94F90132
:10111000EE0C61E08D2D0E94F90160E08D2D0E94A2
:10112000F901FA94F110EDCFDDCF61E08091C804B0
:101130000F900F90DF91CF911F910F91FF90EF9043
:10114000DF90CF900C94F901EF92FF921F93CF9311
:10115000DF932091CA043091CB0482179307B4F433
:10116000EC0123E0880F991F2A95E1F79C012C5789
:101170003B4F790111E0F70111927F0140E0612FAF
:10118000CE010E9446081F5F1930A9F7DF91CF9169
:101190001F91FF90EF900895CF93DF93D0E0C0E0D0
:1011A000CE010E94A4082196C830D105C9F7DF916D
:1011B000CF910895E091CA04F091CB048E179F0758
:1011C0003CF56830710520F557FD22C048305105C7
:1011D000F9F0E0E8F0E0DF0102C0B595A7954A9587
:1011E000E2F7AD01FC0133E0EE0FFF1F3A95E1F7A6
:1011F000E60FF71FEC58FB4F3089222331F0432BC9
:10120000408B6F5F40890C94460840954323F8CF8C
:101210000895CF93DF93EC0160E08E810E94F90185
:1012200061E08E810E94F90160E08E810E94F901E7
:101230008BE891E00197F1F7DF91CF910895CF927C
:10124000DF92EF92FF920F931F93CF93DF936C0186
:101250007C0187E0E80EF11CD0E0C0E0062F10E032
:10126000B8010C2E02C0759567950A94E2F761707B
:10127000F70181917F010E94F9012196C430D105C7
:1012800079F7C601DF91CF911F910F91FF90EF90F9
:10129000DF90CF900C940909CF92DF92EF92FF92EA
:1012A0000F931F93CF93DF93EC01F62E642F8C8165
:1012B0000E94F9018D818F3F19F060E00E94F901D1
:1012C0000F2D10E08F8584FF25C06E0187E0C80ECA
:1012D000D11CF12CE12CB8010E2C02C0759567953C
:1012E0000A94E2F76170F60181916F010E94F901A1
:1012F000FFEFEF1AFF0A88E0E816F10461F7CE016C
:10130000DF91CF911F910F91FF90EF90DF90CF90E1
:101310000C940909B80184E0759567958A95E1F701
:10132000CE010E941F096F2DCE01DF91CF911F9139
:101330000F91FF90EF90DF90CF900C941F0940E049
:10134000682F8CEC94E00C944C0981E00E949F097A
:101350008BE39FE10197F1F70895CF93DF938230FC
:1013600029F49091DB0498609093DB048093DF0470
:101370001092E00480E48093E10480E18093E20431
:1013800080E58093E30461E08091D0040E9427020D
:101390008091D1048F3F19F061E00E94270261E043
:1013A0008091D2040E942702CCECD4E09E012C5CF8
:1013B00034408091DB0484FD0BC084E090E02196F2
:1013C0002817390744F461E08E810E942702EECF8E
:1013D00088E090E0F4CF8BE39DE00197F1F760E0C7
:1013E0008091D0040E94F90160E08091D2040E94B3
:1013F000F9018091D1048F3F19F060E00E94F9015A
:101400008091DB0484FD34C063E08CEC94E00E94A6
:101410001F09CBE4D6E4CE010197F1F763E08CEC31
:1014200094E00E941F092197F1F763E08CEC94E0AF
:101430000E941F0983E592E00197F1F762E08CECCE
:1014400094E00E941F098091DB0480620E949F0942
:1014500084E08093DC048CE00E949F090E94A5092F
:1014600082E08093DD0486E0DF91CF910C949F09A8
:1014700080620E949F098BE496E40197F1F78091C6
:10148000DB0480620E949F0983E592E00197F1F7F7
:101490008091DB0480620E949F09D5CF9091DF0488
:1014A000691710F06FEF690FE62FF0E0E453FB4F80
:1014B0009489890F80680C949F090E94A509ECEC1F
:1014C000F4E080898B7F808B88600E949F090E9456
:1014D0007D070E94CC0860E086E20E94F90160E08E
:1014E00085E20E94F90160E084E20E94F90160E077
:1014F00083E20E94F90160E082E20E94F90160E06B
:1015000081E20E94F901109249041092480481E09E
:1015100080930002109267031092F702089541E051
:101520000E944C0981E090E008958F929F92AF92C3
:10153000BF920F931F93CF93DF93CDB7DEB7A197E1
:101540000FB6F894DEBF0FBECDBF19A2423008F42B
:101550004AE08E010F5D1F4F842E912CB12CA12CDF
:10156000A50194010E94D215E62FB901CA01EA3003
:1015700044F5E05DD801EE938D01232B242B252B20
:1015800079F790E080E0109769F0FD01019000206C
:10159000E9F73197AF014A1B5B0BBD018CEC94E07E
:1015A0000E941305A1960FB6F894DEBF0FBECDBF03
:1015B000DF91CF911F910F91BF90AF909F908F902F
:1015C0000895E95CD7CF009769F0FC0101900020F5
:1015D000E9F73197AF01481B590BBC018CEC94E043
:1015E0000C94130590E080E00895809147048823CF
:1015F000C1F061E080E00E944E0A8FE292E00E941A
:10160000E30A8091D703811104C086E392E00C9431
:10161000E30A813019F482E492E0F9CF8EE492E09B
:10162000F6CF8091000281113EC080914904882349
:1016300021F0809148048823B1F161E080E00E94AC
:101640004E0A8AE592E00E94E30A809167038111C5
:101650001AC08DE592E00E94E30A8CE692E00E94B7
:10166000E30A8091F702811116C08DE592E00E9495
:10167000E30A80914904811116C060E00E944E0A7D
:101680008FE692E0C4CF813019F482E692E0E3CF96
:1016900087E692E0E0CF813019F482E692E0E7CF6E
:1016A00087E692E0E4CF08950F931F93CF938EE2E5
:1016B0000E94D001892B99F180914A04882379F105
:1016C00080914904882321F080914804882339F1CE
:1016D00062E370E080E090E00E94D5048EE20E9418
:1016E000D001892BE1F0C091470481E0C827C09365
:1016F000470482E090E00E94F707CC2309F48AC0F7
:101700000E94A50980E892E00E94E30A0E94E50792
:101710000E94F50A8EE20E94D001892BD9F780E35E
:101720000E94D001892B09F444C062E370E080E09C
:1017300090E00E94D50480E30E94D001892BC9F17A
:1017400080914A0481116DC081E080934A0481E058
:1017500090E00E94F7078091DC04982F94609093AA
:10176000DC048C600E949F090E94A5098AE992E02E
:101770000E94E30A61E085E00E944E0A87EA92E057
:101780000E94E30A6CED75E080E090E00E94D504D1
:10179000109200020E94A5098FE692E00E94E30ADF
:1017A0000E94F50A0E94850780E30E94D001892BE0
:1017B000D9F78FE20E94D001892B09F46BC0809188
:1017C0004A04882309F466C062E370E080E090E098
:1017D0000E94D5048FE20E94D001892B09F45AC0DF
:1017E00083E090E00E94F7078091490481112BC0AB
:1017F00081E080934904109248040E940705609399
:10180000F3027093F4028093F5029093F6020E9423
:10181000A5093BC00E94A5098CE892E00E94E30A5A
:1018200077CF80914904882329F080914804882348
:1018300009F4BACF84E090E00E94F70710924A04BE
:101840000E945D0AB1CF8091480491E0892780937E
:101850004804882319F10E947D070E94CC080E9449
:1018600007056093EE027093EF028093F00290936D
:10187000F1020E94A50960E080E00E944E0A8DEA14
:1018800092E00E94E30A0E94F50A8FE20E94D001D2
:10189000892BD9F7CF911F910F9108950E940705C9
:1018A000AB01BC018091F3029091F402A091F5028A
:1018B000B091F6020091EE021091EF022091F00239
:1018C0003091F102801B910BA20BB30B840F951F7B
:1018D000A61FB71F8093F3029093F402A093F50222
:1018E000B093F60294CF8F929F92AF92BF92CF9215
:1018F000DF92EF92FF924B015C010E9407056B01A2
:101900007C010E9407056C197D098E099F096815E5
:1019100079058A059B0588F40E94540B8091480440
:10192000811115C080914A04882341F061E070E084
:1019300080E090E00E94D504E4CF81E0FF90EF903A
:10194000DF90CF90BF90AF909F908F90089580E0F0
:10195000F5CF1F920F920FB60F9211242F933F9342
:101960008F939F93AF93BF9380914C0490914D04BC
:10197000A0914E04B0914F0430914B0423E0230F0B
:101980002D3758F50196A11DB11D20934B0480936E
:101990004C0490934D04A0934E04B0934F04809157
:1019A000500490915104A0915204B09153040196B7
:1019B000A11DB11D8093500490935104A093520433
:1019C000B0935304BF91AF919F918F913F912F910D
:1019D0000F900FBE0F901F90189526E8230F0296C8
:1019E000A11DB11DD2CF1F920F920FB60F921124DD
:1019F0000BB60F922F933F934F935F936F937F9309
:101A00008F939F93AF93BF93EF93FF93809168045D
:101A100090916904A0916A04B0916B04892B8A2B80
:101A20008B2BE1F190915704E0915804F091590407
:101A30008081892780838091680490916904A091B6
:101A40006A04B0916B04181619061A061B069CF45A
:101A50008091680490916904A0916A04B0916B042C
:101A60000197A109B1098093680490936904A09338
:101A70006A04B0936B04FF91EF91BF91AF919F9176
:101A80008F917F916F915F914F913F912F910F9027
:101A90000BBE0F900FBE0F901F90189580911002F3
:101AA000E8E6F2E0E4919FEF90931002E230E9F073
:101AB00040F4EE2389F0E13091F060E00E94F901FA
:101AC000DACFE43049F110F1E530B9F790917300C5
:101AD0009D7F90937300F1CF10926E00EECF9091A6
:101AE0006F009D7F90936F00E8CF909170009D7F75
:101AF0009093700091E09093B0009091B100987F26
:101B000094609093B1001092B300D7CF9091710080
:101B10009D7F90937100D1CF909172009D7F9093A3
:101B20007200CBCFCF93DF93CDB7DEB764970FB6FC
:101B3000F894DEBF0FBECDBF789484B5826084BDBB
:101B400084B5816084BD85B5826085BD85B58160C1
:101B500085BD80916E00816080936E00109281003F
:101B600080918100826080938100809181008160FA
:101B700080938100809180008160809380008091BB
:101B8000B10084608093B1008091B0008160809347
:101B9000B0008091910082608093910080919100CB
:101BA000816080939100809190008160809390008B
:101BB0008091A10082608093A1008091A10081604A
:101BC0008093A1008091A00081608093A00080910B
:101BD00021018260809321018091210181608093A5
:101BE00021018091200181608093200180917A0001
:101BF000846080937A0080917A00826080937A007A
:101C000080917A00816080937A0080917A00806868
:101C100080937A001092C10061E089E10E9427025E
:101C200061E088E10E94270261E087E10E942702CB
:101C300010E000E08091CA049091CB0408171907C6
:101C40002CF441E06CE0C8010E9446088091CA046F
:101C50009091CB04081719072CF44AE06AE0C801F8
:101C60000E944608C8010E94A4080F5F1F4F083059
:101C7000110501F761E081E30E94270261E082E340
:101C80000E94270282E00E94AD0960E080E30E948A
:101C9000270260E08FE20E94270261E08AE10E9451
:101CA000270261E086E20E94270261E085E20E944D
:101CB000270261E084E20E94270261E083E20E9441
:101CC000270261E082E20E94270261E081E20E9435
:101CD00027020E945D0A0E94540B80914A048823C7
:101CE00009F47DC080914904882321F08091480443
:101CF000882331F180914704882309F480C088ED5E
:101D000093E00E94DD058823D9F0893609F06FC081
:101D10008091D70390E0019663E070E00E9469161D
:101D20008093D7030E94E50782E090E00E94F707C6
:101D30000E94F50A68EC70E080E090E00E94D50413
:101D40000E94850780914904882309F448C0809146
:101D50004804811144C00E9407050091F3021091CC
:101D6000F4022091F5023091F6026B017C01C01A59
:101D7000D10AE20AF30A20E6C2162AEED206E104EC
:101D8000F10408F485C0109249040E947D070E9466
:101D9000CC0884E090E00E94F7070E94A5098EEB32
:101DA00092E00E94E30A60ED77E080E090E00E941C
:101DB000D5040E945D0A81E080934A048091DC048E
:101DC000982F94609093DC048C600E949F098FE6AA
:101DD00092E00E94E30A0E94F50A0E94850780E0D3
:101DE00090E0892B09F477CF0E94000074CF8A36E7
:101DF00009F098CF8091D70390E002968DCF88E6C6
:101E000093E00E94DD058823B9F08F3671F580914B
:101E10006703823040F58F5F8093670382E090E034
:101E20000E94F7070E9485070E94F50A68EC70E09F
:101E300080E090E00E94D50488EF92E00E94DD05EA
:101E4000882309F47DCF8037D1F48091F702823066
:101E5000A0F48F5F8093F70282E090E00E94F70782
:101E60000E94850765CF82E0D7CF8B3629F7809116
:101E70006703882399F28150CFCF82E0EBCF8C3675
:101E800009F05ECF8091F702882331F38150E2CFD1
:101E9000C701B6010E9408164B015C0120E030E644
:101EA0004AE656E40E94031687FFE2C01092F2024F
:101EB00060E080E00E944E0A88E0E1E1F2E0DE01AD
:101EC000119601900D928A95E1F78091F20290E0CF
:101ED000880F991FE1E0F0E0EC0FFD1F8E0F9F1FB0
:101EE000FC01808191810E94E30A85EB92E00E94CF
:101EF000E30A60E08CE00E944E0A60E67AEE80E041
:101F000090E06C197D098E099F0928EE33E040E0CE
:101F100050E00E94D21549015A012A30310524F4BB
:101F20008FEC92E00E94E30A4AE0C501B4010E94EE
:101F3000950A81ED92E00E94E30A61E080E00E9450
:101F40004E0AC701B60124E0660F771F881F991F4C
:101F50002A95D1F720E63AEE40E050E00E94A8151D
:101F60008901F12CE12C6FE5E016F1060CF46FEF1E
:101F700041E08CEC94E00E944C092FEFE21AF20A47
:101F800030E1E316F10479F78091F702811122C064
:101F900060E082E30E94F90161E081E30E94F901BF
:101FA0001AEFE12EFF24FA940CEFC02EDD24DA9410
:101FB0000EEF1FEF580182E0A80EB11C809148047B
:101FC000811104C080914A0481116EC00E947D0776
:101FD0000E94CC088091F702813011F561E082E324
:101FE0000E94F90160E081E30E94F901EAEFEE2E20
:101FF000FF24FA94FCEFCF2EDD24DA940EEF1FEFCE
:10200000580192E0A90EB11C80914804811104C0CE
:1020100080914A04811181C10E947D070E94CC08F1
:102020008091F702823009F0DACE61E082E30E940B
:10203000F90161E081E30E94F9014AEFC42EDD2439
:10204000DA945CEFA52EBB24BA940EEF1FEF2801A3
:10205000F2E04F0E511C80914804811104C0809120
:102060004A0481110CC30E947D070E94CC08B7CEA0
:1020700020E030E64AEE56E4C501B4010E940316A2
:1020800087FF04C081E08093F20212CF20E038EC99
:102090004FE257E4C501B4010E94031687FF02C056
:1020A00082E0F1CF83E0EFCF312C212C80914804E6
:1020B00081118CCF80914A04882309F487CF21E0D5
:1020C000A101B50187E090E00E94DA08410193E0A8
:1020D000891A910821E0A401B80187E090E00E94EC
:1020E000DA08F1013697FC87EB8721E0AF01B601F2
:1020F00087E090E00E94DA08910129503109388B7D
:102100002F8721E04F855889B70187E090E00E9432
:10211000DA0821E0A101B50186E090E00E94DA082A
:1021200021E0A401B80186E090E00E94DA0821E0F5
:102130004B855C85B60186E090E00E94DA0821E0DC
:102140004F855889B70186E090E00E94DA08A7E041
:102150006A2E712C6218730821E0A301B50190E08A
:1021600080E00E94DA08B4E04B2E512C421853084C
:1021700021E0A201B80190E080E00E94DA0881E04D
:1021800090E0821993099E878D8721E0AC01B6010A
:1021900090E080E00E94DA08EEEFFFEFE219F30929
:1021A000FA87E98721E0AF01B70190E080E00E9463
:1021B000DA0821E0A301B50181E090E00E94DA088D
:1021C00021E0A201B80181E090E00E94DA0821E05C
:1021D0004D855E85B60181E090E00E94DA0821E03D
:1021E00049855A85B70181E090E00E94DA0860E5F0
:1021F00070E080E090E00E94730C882309F4E6CE42
:1022000020E0A101B50187E090E00E94DA0820E01B
:10221000A401B80187E090E00E94DA0820E04B8535
:102220005C85B60187E090E00E94DA0820E04F85E7
:102230005889B70187E090E00E94DA0820E0A10108
:10224000B50186E090E00E94DA0820E0A401B80120
:1022500086E090E00E94DA0820E04B855C85B601BC
:1022600086E090E00E94DA0820E04F855889B701A7
:1022700086E090E00E94DA0820E0A301B50190E03A
:1022800080E00E94DA0820E0A201B80190E080E03E
:102290000E94DA0820E04D855E85B60190E080E07E
:1022A0000E94DA0820E049855A85B70190E080E075
:1022B0000E94DA0820E0A301B50181E090E00E94CD
:1022C000DA0820E0A201B80181E090E00E94DA087B
:1022D00020E04D855E85B60181E090E00E94DA083D
:1022E00020E049855A85B70181E090E00E94DA0834
:1022F000FFEF2F1A3F0A28E02216310409F0D6CE4C
:102300000F5F1F4F3FEFC31AD30A8FEFE81AF80A87
:102310000630110509F04ECE5DCE312C212C809176
:102320004804811179CE80914A04882309F474CE3F
:1023300021E0A101B50187E090E00E94DA084101A7
:10234000E3E08E1A910821E0A401B80187E090E053
:102350000E94DA089101265031093A87298721E045
:1023600049855A85B60187E090E00E94DA08C101EC
:102370000997988B8F8721E0AC01B70187E090E047
:102380000E94DA0821E0A101B50186E090E00E94F8
:10239000DA0821E0A401B80186E090E00E94DA08A2
:1023A00021E049855A85B60186E090E00E94DA086E
:1023B00021E04F855889B70186E090E00E94DA0855
:1023C00021E0A101B50185E090E00E94DA0821E05A
:1023D000A401B80185E090E00E94DA0821E0498577
:1023E0005A85B60185E090E00E94DA0821E04F8529
:1023F0005889B70185E090E00E94DA0867E0662E10
:10240000712C6218730821E0A301B50190E080E00F
:102410000E94DA0874E0472E512C4218530821E03C
:10242000A201B80190E080E00E94DA08E1E0F0E06B
:10243000E219F309FE87ED8721E0AF01B60190E0D4
:1024400080E00E94DA082EEF3FEF221933093C8723
:102450002B8721E04B855C85B70190E080E00E94EE
:10246000DA0821E0A301B50181E090E00E94DA08DA
:1024700021E0A201B80181E090E00E94DA0821E0A9
:102480004D855E85B60181E090E00E94DA0821E08A
:102490004B855C85B70181E090E00E94DA0821E07D
:1024A000A301B50182E090E00E94DA0821E0A201D8
:1024B000B80182E090E00E94DA0821E04D855E8557
:1024C000B60182E090E00E94DA0821E04B855C854D
:1024D000B70182E090E00E94DA0862E370E080E0F9
:1024E00090E00E94730C882309F496CD20E0A101AE
:1024F000B50187E090E00E94DA0820E0A401B8016D
:1025000087E090E00E94DA0820E049855A85B6010C
:1025100087E090E00E94DA0820E04F855889B701F3
:1025200087E090E00E94DA0820E0A101B50186E092
:1025300090E00E94DA0820E0A401B80186E090E073
:102540000E94DA0820E049855A85B60186E090E0CD
:102550000E94DA0820E04F855889B70186E090E0B4
:102560000E94DA0820E0A101B50185E090E00E9418
:10257000DA0820E0A401B80185E090E00E94DA08C2
:1025800020E049855A85B60185E090E00E94DA088E
:1025900020E04F855889B70185E090E00E94DA0875
:1025A00020E0A301B50190E080E00E94DA0820E07D
:1025B000A201B80190E080E00E94DA0820E04D8599
:1025C0005E85B60190E080E00E94DA0820E04B854D
:1025D0005C85B70190E080E00E94DA0820E0A3016A
:1025E000B50181E090E00E94DA0820E0A201B80184
:1025F00081E090E00E94DA0820E04D855E85B6011A
:1026000081E090E00E94DA0820E04B855C85B7010C
:1026100081E090E00E94DA0820E0A301B50182E0A9
:1026200090E00E94DA0820E0A201B80182E090E088
:102630000E94DA0820E04D855E85B60182E090E0D8
:102640000E94DA0820E04B855C85B70182E090E0CB
:102650000E94DA083FEF231A330A88E02816310473
:1026600009F05DCE0F5F1F4F9FEFC91AD90AEFEF38
:10267000EE1AFE0A0630110509F0C2CCD1CC2EEFBD
:10268000222E33243A9421E030E0388B2F8784E0E7
:1026900090E09A8B898BE7EFFFEFFA87E9872AEFC3
:1026A0003FEF3C872B878DEF9FEF9E878D8737E02D
:1026B000632E712CE7E0F0E0E619F709FC8BEB8B59
:1026C000809148048111CFCC80914A04882309F479
:1026D000CACCF12CE12C97E0892E912C8E189F0802
:1026E00021E04B895C89B201C4010E94DA0821E033
:1026F0004D855E85B801C4010E94DA0821E04B8552
:102700005C85B501C4010E94DA0821E049855A853B
:10271000B601C4010E94DA0821E0A301B201C70199
:102720000E94DA0821E049895A89B801C7010E944C
:10273000DA0821E04F855889B501C7010E94DA08FF
:1027400021E0A101B601C7010E94DA08FFEFEF1AEC
:10275000FF0A24E0E216F10409F0BDCF6EE170E05B
:1027600080E090E00E94730C882309F47CCCF12C6B
:10277000E12C87E0882E912C8E189F0820E04B8951
:102780005C89B201C4010E94DA0820E04D855E85B3
:10279000B801C4010E94DA0820E04B855C85B501D0
:1027A000C4010E94DA0820E049855A85B601C401B7
:1027B0000E94DA0820E0A301B201C7010E94DA08F2
:1027C00020E049895A89B801C7010E94DA0820E04F
:1027D0004F855889B501C7010E94DA0820E0A101A0
:1027E000B601C7010E94DA083FEFE31AF30A84E05A
:1027F000E816F10409F0BDCF91E0691A7108ED8582
:10280000FE853196FE87ED872B853C852F5F3F4FF8
:102810003C872B8789859A8501969A878987E989DC
:10282000FA893197FA8BE98B2F8538892150310944
:10283000388B2F8731E0231A31088FEF681678061E
:1028400009F038CF0F5F1F4F9FEFA91AB90AEFEFBA
:10285000CE1ADE0A0630110509F0F9CBC0CACF93B3
:10286000DF93C3E3D0E0D093C504C093C40484E3F2
:1028700090E09093C7048093C60485E390E0909322
:10288000C9048093C80488E090E09093CB048093BF
:10289000CA0461E083E30E94270261E08091C604DC
:1028A0000E94270261E08091C8040E94270261E033
:1028B0008091C8040E94F901D093C504C093C40458
:1028C000E4E8F4E0119284E0E43CF807D9F7D0E0C2
:1028D000C0E08091CA049091CB04C817D9073CF599
:1028E00040E06FE0CE010E9446088091CA049091BA
:1028F000CB04C817D9072CF447E06BE0CE010E9447
:10290000460840E069E0CE010E944608CE010E94E0
:10291000A4088091CA049091CB04C817D9072CF45D
:1029200040E06CE0CE010E9446082196D2CF109282
:10293000CF041092CE0487E292E09093CD0480936E
:10294000CC0488E28093D0048FEF8093D10489E295
:102950008093D2048AE28093D3048BE28093D404E0
:102960008CE28093D5048DE28093D6041092D70434
:102970001092D8041092D9041092DA041092DB0459
:1029800081E00E94AD0910926A0310926E031092CA
:102990006D0310926F038DE192E090936903809331
:1029A0006803E4E8F3E010821482138215823696FD
:1029B00083E0E03CF807B9F78CE092E09093CB031A
:1029C0008093CA038BE092E09093CD038093CC0375
:1029D00082E08093CE0381E08093CF038EE092E08B
:1029E0009093C9038093C8038AE090E09093D10349
:1029F0008093D00384EF91E09093D3038093D2032C
:102A00001092D6031092D5031092C4031092C503FE
:102A10001092C6031092C7031092D4031092FA02C8
:102A20001092FE021092FD021092FF028DE192E0E0
:102A30009093F9028093F802E4E1F3E080E593E0FB
:102A4000108214821382158236968E179F07C1F763
:102A500087E092E090935B0380935A0386E092E0D4
:102A600090935D0380935C0382E080935E0381E03A
:102A700080935F0389E092E0909359038093580319
:102A80008AE090E0909361038093600384EF91E08B
:102A90009093630380936203109266031092650320
:102AA000109254031092550310925603109257033C
:102AB000109264031092DA031092DE031092DD0389
:102AC0001092DF038DE192E09093D9038093D803B5
:102AD000E4EFF3E01082148213821582369684E0CC
:102AE000E033F807B9F782E092E090933B048093DB
:102AF0003A0481E092E090933D0480933C0482E0AC
:102B000080933E0481E080933F0484E092E09093C0
:102B10003904809338048AE090E0909341048093D4
:102B2000400484EF91E09093430480934204109218
:102B30004604109245041092340410923504109209
:102B400036041092370410924404DF91CF91089517
:102B5000052E97FB1EF400940E94BF1557FD07D069
:102B60000E94D21507FC03D04EF40C94BF1550956B
:102B70004095309521953F4F4F4F5F4F0895909569
:102B80008095709561957F4F8F4F9F4F08950E945C
:102B9000F415A59F900DB49F900DA49F800D911DDD
:102BA00011240895A1E21A2EAA1BBB1BFD010DC022
:102BB000AA1FBB1FEE1FFF1FA217B307E407F507ED
:102BC00020F0A21BB30BE40BF50B661F771F881FC9
:102BD000991F1A9469F760957095809590959B015F
:102BE000AC01BD01CF010895A29FB001B39FC00108
:102BF000A39F700D811D1124911DB29F700D811D29
:102C00001124911D08950E94451608F481E008954D
:102C1000E89409C097FB3EF4909580957095619576
:102C20007F4F8F4F9F4F9923A9F0F92F96E9BB272C
:102C30009395F695879577956795B795F111F8CFA8
:102C4000FAF4BB0F11F460FF1BC06F5F7F4F8F4F13
:102C50009F4F16C0882311F096E911C0772321F009
:102C60009EE8872F762F05C0662371F096E8862FA1
:102C700070E060E02AF09A95660F771F881FDAF7F8
:102C8000880F9695879597F90895990F0008550F25
:102C9000AA0BE0E8FEEF16161706E807F907C0F0E2
:102CA00012161306E407F50798F0621B730B840BEA
:102CB000950B39F40A2661F0232B242B252B21F4C4
:102CC00008950A2609F4A140A6958FEF811D811D64
:102CD000089597FB072E16F4009407D077FD09D0CE
:102CE0000E94851607FC05D03EF4909581959F4F74
:102CF0000895709561957F4F0895EE0FFF1F881F0F
:102D00008BBF0790F691E02D1994AA1BBB1B51E1D4
:102D100007C0AA1FBB1FA617B70710F0A61BB70B4B
:102D2000881F991F5A95A9F780959095BC01CD01F0
:062D30000895F894FFCFA6
:102D360001151413696A1D1C1B706C201F1E6F6B16
:102D4600FFD3028502DD02E60200000000D205D6AE
:102D560005DA05000000008F0A13057A0779074D8A
:102D66004F444F3A20004E4F524D414C20202020D8
:102D7600200045434F4C4F4749434F2020005052B7
:102D86004553494F4E2020202000543A0042414AE4
:102D960020004D45442000414C542000413A004C4F
:102DA6004953544F20502F20494E49434941520020
:102DB6004D4F444F204C415641444F00434F4E46E1
:102DC6004947204D414E55414C004C4156415641D4
:102DD6004A494C4C415300554C54524100504155C0
:102DE60053412E2E2E2020202020202020004C4132
:102DF6005641444F205445524D494E41444F0030B0
:102E06000073005052454C415641444F00454E4ACE
:0E2E160055414755450053454341444F000088
:00000001FF
