:100000000C9436010C9467010C9467010C94670101
:100010000C9467010C9467010C9467010C946701C0
:100020000C9467010C9467010C9467010C946701B0
:100030000C9467010C94480C0C9467010C946701B4
:100040000C9467010C9467010C9467010C94670190
:100050000C9467010C9467010C9467010C94FE0BDF
:100060000C9467010C9467010C9467010C94670170
:100070000C9467010C9467010C9467010C94670160
:100080000C9467010C9467010C9467010C94670150
:100090000C9467010C9467010C9467010C94670140
:1000A0000C9467010C9467010C9467010C94670130
:1000B0000C9467010C9467010C9467010C94670120
:1000C0000C9467010C9467010C9467010C94670110
:1000D0000C9467010C9467010C9467010C94670100
:1000E0000C9467010C94BE010C94090A0C949501C0
:1000F0000C947A070C94C2010C9499010C94B001F1
:100100000C94D6050C94A6010C94D2050C94BA015B
:100110000C9487010C94AC010C94CC010C947907DD
:100120000C94B4010C9413050C94A2010C94DA0500
:100130000C94AE100C94C7010C948D010C949C018E
:100140000C94C8010C9491010000210024002700A8
:100150002A002D00300033000101000004010701D6
:100160000A01000020002300260029002C002F0097
:1001700032000001000003010601090100000A0B22
:1001800002090C0D0E080703040100000000000026
:10019000000000000000000000000000000000005F
:1001A000000000000000000012111000000000001C
:1001B000000000000000000000000000000000003F
:1001C000000001021020200808102040102040806C
:1001D000020102010804020101020408102040800B
:1001E0008040201008040201800402018040201099
:1001F00008040201080402010102040810204080E2
:100200000102040810204080000022002500280080
:100210002B002E003100340002010000050108010E
:100220000B0105050505070508080808020202027A
:100230000A0A080804040404010101010101010182
:100240000303030303030303040707070C0C0C0C4D
:100250000C0C0C0C02020202060606060606060636
:100260000B0B0B0B0B0B0B0B0200AE1011241FBE64
:10027000CFEFD1E2DEBFCDBF00E00CBF12E0A0E0C7
:10028000B2E0E0E5F5E200E00BBF02C007900D929E
:10029000A43AB107D9F724E0A4EAB2E001C01D9264
:1002A000A932B207E1F711E0C6E3D1E000E006C0F1
:1002B00021970109802FFE010E949E12C533D107AC
:1002C00080E00807A9F70E94E70C0C94A6120C9492
:1002D00000008150823108F05AC0E82FF0E08827F2
:1002E000EB58FE4F8F4F0C949E1295019901870198
:1002F0008D019101C7019C01A201A601AC01B001D1
:10030000B401BA01BE01C701C201C801CC0180918C
:1003100080008F77809380000895809180008F7D8A
:10032000F9CF80918000877FF5CF84B58F7784BD2A
:10033000089584B58F7DFBCF8091B0008F77809337
:10034000B00008958091B0008F7DF9CF809190002A
:100350008F77809390000895809190008F7DF9CFE2
:1003600080919000877FF5CF8091A0008F77809358
:10037000A00008958091A0008F7DF9CF8091A0000A
:10038000877FF5CF809120018F778093200108959A
:10039000809120018F7DF9CF80912001877FF5CF5B
:1003A000CF93DF93282F30E0F901E458FE4F84917A
:1003B000F901EE53FE4FD491F901EE5DFD4FC4916A
:1003C000CC23A1F081110E946901EC2FF0E0EE0F27
:1003D000FF1FEE59FE4FA591B491EC91ED2381E002
:1003E00090E009F480E0DF91CF91089580E090E003
:1003F000FACF1F93CF93DF93282F30E0F901E45811
:10040000FE4F8491F901EE53FE4FD491F901EE5D58
:10041000FD4FC491CC23A9F0162F81110E946901D0
:10042000EC2FF0E0EE0FFF1FE85FFD4FA591B491B8
:100430008FB7F894EC91111108C0D095DE23DC93AE
:100440008FBFDF91CF911F910895DE2BF8CFCF930F
:10045000DF9390E0FC01EE53FE4F24918E5D9D4FA3
:10046000FC0184918823C9F090E0880F991FFC015A
:10047000E85BFE4FA591B491FC01E85FFD4FC5918B
:10048000D49161110DC09FB7F8948C91209582236F
:100490008C938881282328839FBFDF91CF91089573
:1004A000623051F49FB7F8943C91822F809583235A
:1004B0008C93E8812E2BEFCF8FB7F894EC912E2BF5
:1004C0002C938FBFEACF4F925F926F927F928F9261
:1004D0009F92AF92BF92CF92DF92EF92FF920F93D3
:1004E0001F93CF938C014A015B0180910B028A31EB
:1004F00099F08F3F09F46FC0CF911F910F91FF903A
:10050000EF90DF90CF90BF90AF909F908F907F90B3
:100510006F905F904F900895E8E6F2E0C491C7FDB8
:10052000EBCF61E08AE10E9427022801712C612C47
:10053000CC23E9F0980150E040E0C23009F01FC13F
:1005400028013A0160E970ED83E090E00E94DD113E
:1005500069017A0181E0C81AD108E108F1088FEF3A
:10056000C816D104E104F10409F00CF495C168E463
:1005700078EE81E090E0A30192010E94DD11690113
:100580007A0181E0C81AD108E108F108CC2309F406
:10059000A1C1C23009F094C18FEFC816D104E104A3
:1005A000F10409F00CF494C164E274EF80E090E08F
:1005B000A30192010E94DD1169017A0181E0C81A4C
:1005C000D108E108F10885E09091B100987F892B6E
:1005D0008093B1009BC18AE180930B02E8E6F2E0D0
:1005E000C4918C2FCF3F09F487CFC23009F468C083
:1005F00060F4CC2379F1C13009F444C087FD7CCF8D
:1006000061E08AE10E94270295CFC43009F499C0C5
:1006100008F478C0C53091F71092200110922101A2
:100620008091210188608093210180912101816066
:1006300080932101ECE3F2E0E491F0E0EE0FFF1F84
:10064000E85FFD4F85919491ECEDF1E0E491E0934A
:10065000990367CF14BC15BC84B5826084BD85B591
:10066000816085BDECE3F2E0E491F0E0EE0FFF1F66
:10067000E85FFD4F85919491ECEDF1E0E491E0931A
:10068000A0034FCF109280001092810080918100D2
:1006900088608093810080918100816080938100D7
:1006A000ECE3F2E0E491F0E0EE0FFF1FE85FFD4FB6
:1006B00085919491ECEDF1E0E491E0939F0331CFCB
:1006C0001092B0001092B1008091B00082608093CF
:1006D000B0008091B10081608093B100ECE3F2E062
:1006E000E491F0E0EE0FFF1FE85FFD4F85919491DC
:1006F00090939E0380939D03ECEDF1E0E491E093F1
:100700009C030FCF10929000109291008091910065
:100710008860809391008091910081608093910026
:10072000ECE3F2E0E491F0E0EE0FFF1FE85FFD4F35
:1007300085919491ECEDF1E0E491E0939B03C3E0AB
:10074000F0CE1092A0001092A1008091A1008860CC
:100750008093A1008091A10081608093A100ECE3CF
:10076000F2E0E491F0E0EE0FFF1FE85FFD4F8591AE
:100770009491ECEDF1E0E491E0939A03D2CE60E045
:1007800072E18AE790E00E94DD1169017A0181E05F
:10079000C81AD108E108F108C13039F4809181000C
:1007A000887F816080938100B1C0C33039F480912B
:1007B0009100887F816080939100A8C0C43039F493
:1007C0008091A100887F81608093A1009FC0C53087
:1007D00009F09CC080912101887F81608093210174
:1007E00095C0C7BC2093B5033093B6034093B703BD
:1007F0005093B80380916E00826080936E007CCE2F
:10080000C092B3002093AD033093AE034093AF0387
:100810005093B003809170008260809370006CCE22
:10082000D0929900C09298002093A9033093AA0314
:100830004093AB035093AC0380917100826080932E
:1008400071005ACED092A900C092A8002093A503AF
:100850003093A6034093A7035093A803809172009E
:1008600082608093720048CEC43061F3CCF2C53010
:1008700009F042CED0922901C09228012093A10311
:100880003093A2034093A3035093A4038091730079
:1008900082608093730030CE83E096CE62E17AE787
:1008A00080E090E0A30192010E94DD1169017A01CC
:1008B00081E0C81AD108E108F108C1E086E084CEE1
:1008C0008FEFC816D104E104F10409F03CF7C1E050
:1008D00084E07ACE93E08FEFC816D104E104F104EE
:1008E00089F084F062E17AE780E090E0A301920170
:1008F0000E94DD1169017A0181E0C81AD108E1087E
:10090000F10894E085B5887F892B85BDD801AA0FB1
:10091000BB1FA50194010E94FC1128EE33E040E0CA
:1009200050E00E940712C23009F46ACF0CF09CCF4D
:10093000CC2309F456CFC13009F0DECDD092890026
:10094000C09288002093B1033093B2034093B30365
:100950005093B40380916F00826080936F00CCCD80
:100960003FB7F8948091950390919603A0919703D7
:10097000B091980326B5A89B05C02F3F19F00196AA
:10098000A11DB11D3FBFBA2FA92F982F8827BC01E9
:10099000CD01620F711D811D911D42E0660F771F11
:1009A000881F991F4A95D1F708958F929F92AF9211
:1009B000BF92CF92DF92EF92FF924B015C010E94B7
:1009C000B0046B017C010E94B0046C197D098E0992
:1009D0009F09683E734081059105A8F321E0821AC2
:1009E0009108A108B10888EEC80E83E0D81EE11C6A
:1009F000F11C81149104A104B10429F7FF90EF9038
:100A0000DF90CF90BF90AF909F908F9008952FB7B9
:100A1000F894609191037091920380919303909167
:100A200094032FBF0895AF92BF92CF92DF92EF92BF
:100A3000FF920F931F93CF93DF936C017B018B0188
:100A4000040F151FEB015E01AE18BF08C017D107D8
:100A500059F06991D601ED91FC910190F081E02D62
:100A6000C6011995892B79F7C501DF91CF911F91A7
:100A70000F91FF90EF90DF90CF90BF90AF900895CF
:100A8000CF93DF93DC0126E0629FA00DB11D1124FE
:100A900090965C934E935F9721E091962C9391975B
:100AA000FC01E359FF4F0190F081E02DEC01C459A6
:100AB000DF4F2881222341F0309719F0DC016623B3
:100AC00029F0DF91CF9108953097D9F35C968C91FE
:100AD000DF91CF911994CF92DF92EF92FF920F9313
:100AE0001F93CF93DF93EC01162F042FFC0186E0B8
:100AF000689FE00DF11D112411A2878D90A1813016
:100B0000910509F180F08230910509F443C0039703
:100B100009F445C0DF91CF911F910F91FF90EF90A5
:100B2000DF90CF9008954423A9F341E050E0CE0137
:100B30000E9440050E940705C85ADF4F68837983E9
:100B40008A839B83E7CF0E940705FE01E85AFF4F87
:100B5000C080D180E280F380AB01BC014C195D09FB
:100B60006E097F09729680819181B0E0A0E08417C0
:100B70009507A607B70770F442E050E0612FCE0159
:100B8000DF91CF911F910F91FF90EF90DF90CF9069
:100B90000C94400543E050E00111BCCFEFCF50E092
:100BA00040E0ECCF862F642F0C942702862F642F11
:100BB0000C94F901862F0C94D0012F923F924F9202
:100BC0005F926F927F928F929F92AF92BF92CF92DD
:100BD000DF92EF92FF920F931F93CF93DF93CDB7E6
:100BE000DEB72C970FB6F894DEBF0FBECDBF9C8743
:100BF0008B8784599F4F9A83898381E0A981BA8129
:100C00008C930E940705EB85FC85E45AFF4FFC831B
:100C1000EB830081118122813381AB01BC01401B38
:100C2000510B620B730BEB85FC85E859FF4F8081FC
:100C30009181B0E0A0E084179507A607B70708F0F8
:100C40004FC110E0CB84DC84F6E6CF0ED11CEB84E0
:100C5000FC8422E6E20EF11CD6018C91181758F4A0
:100C6000D701ED91FC91E10FF11D62E080810E94BE
:100C700027021F5FF1CF312C4B845C84B7E64B0E0B
:100C8000511CEB84FC84E4E6EE0EF11C812C912CCB
:100C9000540183942B853C852E593F4F3A872987F1
:100CA000D2018C91381608F063C0032D10E0D701F3
:100CB000ED91FC91E00FF11F61E080810E9427021D
:100CC000D701ED91FC91E00FF11F60E080810E945F
:100CD000F901D501C401032C04C0880F991FAA1F74
:100CE000BB1F0A94D2F79E838D83FC01E095F0959B
:100CF000F887EF83212CD6018C91281620F5622CE1
:100D0000712CA985BA85ED91FC91E60DF71D8081C6
:100D10000E94D001660C771CEB85FC85E60DF71D63
:100D2000892B51F4808591852D813E81822B932BD7
:100D3000918780872394DFCF80859185AF81B885A7
:100D40008A239B23F5CFD701ED91FC91E00FF11F92
:100D500061E080810E94F901F70180819181080F93
:100D6000191F60E0D8018C910E942702339498CF1C
:100D70000B851C85C801CC9678012FEF3FEFF7015A
:100D8000478D50A1452B21F4148E368F258F11A24B
:100D9000F6E0EF0EF11CE816F90689F7A12C8B841A
:100DA0009C8420E6820E911C96E0392ED6018C910F
:100DB000A81608F058C0B12C6A2C712CB4E06B0E48
:100DC000711C660C771CEB85FC856E0E7F1ED201B4
:100DD0008C91B81608F045C0F301408151810B2C6D
:100DE00002C0569547950A94E2F7A89EC0011124C7
:100DF0008B0D911DEB85FC8560E0258D368D82176E
:100E0000930709F472C06F5F36966A30B1F740FFFE
:100E100026C0EB85FC8570E060E0248D211119C0AF
:100E2000D401ED91FC91E80FF91F4081369EF0014D
:100E3000379EF00D11242B853C85E20FF31F448F64
:100E4000968F858F10A2178E41E0C9010E946B0515
:100E500006C06F5F7F4F36966A307105F1F6B39426
:100E6000B6CFA394A3CFD12CD80191968C918111A8
:100E7000D82E0A5F1F4FE016F106B1F70E94070552
:100E8000EB81FC816083718382839383DD2041F158
:100E9000AB85BC8591968C919197882309F15F96DB
:100EA0008D919C9190970197D9F45C968C912C969A
:100EB0000FB6F894DEBF0FBECDBFDF91CF911F916B
:100EC0000F91FF90EF90DF90CF90BF90AF909F90E9
:100ED0008F907F906F905F904F903F902F900895EC
:100EE000E981FA81108280E0E2CF41708B859C8598
:100EF000ADCF089590E080E0089560E081E30E9426
:100F0000F90160E082E30C94F90160E086E20E945E
:100F1000F90160E085E20E94F90160E084E20E944C
:100F2000F90180911D03811118C061E086E20E94E1
:100F3000F90160E083E20E94F90160E082E20E9430
:100F4000F90160E081E20E94F9018091AD02811116
:100F50000EC061E083E20C94F901813019F461E084
:100F600085E2E5CF823029F761E084E2E0CF81308D
:100F700019F461E082E2EFCF823019F461E081E29E
:100F8000EACF0895CF92DF92EF92FF920F931F93D3
:100F9000CF93DF931F921F92CDB7DEB769834A8349
:100FA000880F991F00910F0410911004000F111F5A
:100FB000E9EBF3E09F01295B33402017310714F47C
:100FC0001192F8CF2981FC01E754FC4F21838A81DB
:100FD000808360E080910D040E94F90110161106D3
:100FE00004F501501109F801E754FC4FE080D0905E
:100FF0000B04C090090488E0F82E6E2D661F66274A
:10100000661F8C2D0E94F901EE0C61E08D2D0E946F
:10101000F90160E08D2D0E94F901FA94F110EDCFF5
:10102000DDCF61E080910D040F900F90DF91CF91A3
:101030001F910F91FF90EF90DF90CF900C94F901EA
:10104000EF92FF921F93CF93DF9320910F04309183
:10105000100482179307B4F4EC0123E0880F991F62
:101060002A95E1F79C0127533C4F790111E0F701E4
:1010700011927F0140E0612FCE010E94C2071F5FE5
:101080001930A9F7DF91CF911F91FF90EF9008954C
:10109000CF93DF93D0E0C0E0CE010E9420082196DC
:1010A000C830D105C9F7DF91CF910895E0910F04C1
:1010B000F09110048E179F072CF56830710511F11F
:1010C00048305105F9F0E0E8F0E0DF0102C0B595E5
:1010D000A7954A95E2F7AD01FC0133E0EE0FFF1F43
:1010E0003A95E1F7E60FF71FE754FC4F30892223CA
:1010F00031F0432B408B6F5F40890C94C2074095C1
:101100004323F8CF0895CF93DF93EC0160E08E8105
:101110000E94F90161E08E810E94F90160E08E81F8
:101120000E94F9018BE891E00197F1F7DF91CF91EF
:101130000895CF92DF92EF92FF920F931F93CF9378
:10114000DF936C017C0187E0E80EF11CD0E0C0E089
:10115000062F10E0B8010C2E02C0759567950A9411
:10116000E2F76170F70181917F010E94F9012196F8
:10117000C430D10579F7C601DF91CF911F910F914E
:10118000FF90EF90DF90CF900C948308CF92DF9286
:10119000EF92FF920F931F93CF93DF93EC01F62E04
:1011A000642F8C810E94F9018D818F3F19F060E0DE
:1011B0000E94F9010F2D10E08F8584FF25C06E017C
:1011C00087E0C80ED11CF12CE12CB8010E2C02C016
:1011D000759567950A94E2F76170F60181916F0148
:1011E0000E94F901FFEFEF1AFF0A88E0E816F10408
:1011F00061F7CE01DF91CF911F910F91FF90EF909A
:10120000DF90CF900C948308B80184E075956795C2
:101210008A95E1F7CE010E9499086F2DCE01DF91EA
:10122000CF911F910F91FF90EF90DF90CF900C9492
:10123000990840E0682F81E194E00C94C60881E0B1
:101240000E9419098BE39FE10197F1F70895CF936D
:10125000DF93823029F490912004986090932004C9
:10126000809324041092250480E48093260480E176
:101270008093270480E58093280461E08091150421
:101280000E942702809116048F3F19F061E00E94AE
:10129000270261E0809117040E942702C1E1D4E097
:1012A0009E01215134408091200484FD0BC084E0D4
:1012B00090E021962817390744F461E08E810E945E
:1012C0002702EECF88E090E0F4CF8BE39DE001971A
:1012D000F1F760E0809115040E94F90160E08091CF
:1012E00017040E94F901809116048F3F19F060E005
:1012F0000E94F9018091200484FD34C063E081E103
:1013000094E00E949908CBE4D6E4CE010197F1F76E
:1013100063E081E194E00E9499082197F1F763E08E
:1013200081E194E00E94990883E592E00197F1F74A
:1013300062E081E194E00E9499088091200480623B
:101340000E94190984E0809321048CE00E9419090D
:101350000E941F0982E08093220486E0DF91CF91F2
:101360000C94190980620E9419098BE496E4019794
:10137000F1F78091200480620E94190983E592E0D0
:101380000197F1F78091200480620E941909D5CF5E
:1013900090912404691710F06FEF690FE62FF0E0C9
:1013A000EF5EFB4F9489890F80680C9419090E94A5
:1013B0001F09E1E1F4E080898B7F808B88600E94C7
:1013C00019090E947D070E94480860E086E20E9499
:1013D000F90160E085E20E94F90160E084E20E9488
:1013E000F90160E083E20E94F90160E082E20E947C
:1013F000F90160E081E20E94F90110928E031092DF
:101400008D0381E08093000210921D031092AD02C3
:10141000089541E00E94C60881E090E008958F920F
:101420009F92AF92BF920F931F93CF93DF93CDB74D
:10143000DEB7A1970FB6F894DEBF0FBECDBF19A2DD
:10144000423008F44AE08E010F5D1F4F842E912C2C
:10145000B12CA12CA50194010E940712E62FB9011D
:10146000CA01EA3044F5E05DD801EE938D01232BEB
:10147000242B252B79F790E080E0109769F0FD018F
:1014800001900020E9F73197AF014A1B5B0BBD01CA
:1014900081E194E00E941305A1960FB6F894DEBF97
:1014A0000FBECDBFDF91CF911F910F91BF90AF9035
:1014B0009F908F900895E95CD7CF009769F0FC0169
:1014C00001900020E9F73197AF01481B590BBC018F
:1014D00081E194E00C94130590E080E00895809100
:1014E000000281113FC080918E03882321F08091FA
:1014F0008D038823B9F161E080E00E94C8098AE287
:1015000092E00E945D0A80911D0381111BC08DE253
:1015100092E00E945D0A8CE392E00E945D0A809155
:10152000AD02811117C08DE292E00E945D0A8091A8
:101530008E03811117C060E00E94C8098FE392E01A
:101540000C945D0A813019F482E392E0E2CF87E3E4
:1015500092E0DFCF813019F482E392E0E6CF87E3B7
:1015600092E0E3CF08950F931F9380E30E94D00190
:10157000892B09F457C062E370E080E090E00E949C
:10158000D50480E30E94D001892B09F44BC08091DF
:101590008F0381118AC081E080938F0344E650E07D
:1015A00060E070E088EE93E00E94630266E970E01C
:1015B00080E090E00E94D5044CE251E060E070E0F1
:1015C0008CED95E00E94630280912104982F946035
:1015D000909321048C600E9419090E941F0980E5E4
:1015E00092E00E945D0A61E085E00E94C8098DE5F5
:1015F00092E00E945D0A6CED75E080E090E00E9450
:10160000D504109200020E941F098FE392E00E940D
:101610005D0A0E946F0A0E94850780E30E94D00144
:10162000892BD9F78FE20E94D001892B09F488C059
:1016300080918F03882309F483C062E370E080E027
:1016400090E00E94D5048FE20E94D001892B09F41A
:1016500077C044E650E060E070E080E293E00E94F2
:10166000630264E670E080E090E00E94D50444E606
:1016700050E060E070E080E293E00E9463028091BD
:101680008E03811136C081E080938E0310928D030A
:101690000E9407056093A9027093AA028093AB028F
:1016A0009093AC020E941F0946C080918E0388234C
:1016B00029F080918D03882309F4AFCF4CE251E0EB
:1016C00060E070E084EF91E00E9463026CE271E000
:1016D00080E090E00E94D50440E951E060E070E0D5
:1016E0008CE291E00E94630210928F030E94D7095E
:1016F00094CF80918D0391E0892780938D03882377
:1017000011F10E947D070E9448080E94070560931E
:10171000A4027093A5028093A6029093A7020E9450
:101720001F0960E080E00E94C80983E692E00E9401
:101730005D0A0E946F0A8FE20E94D001892BD9F7BF
:101740001F910F9108950E940705AB01BC01809184
:10175000A9029091AA02A091AB02B091AC020091B3
:10176000A4021091A5022091A6023091A702801B2D
:10177000910BA20BB30B840F951FA61FB71F80936D
:10178000A9029093AA02A093AB02B093AC028ACFB5
:101790008F929F92AF92BF92CF92DF92EF92FF9281
:1017A0004B015C010E9407056B017C010E9407054B
:1017B0006C197D098E099F09681579058A059B05B5
:1017C00088F40E94B30A80918D03811115C0809125
:1017D0008F03882341F061E070E080E090E00E9498
:1017E000D504E4CF81E0FF90EF90DF90CF90BF90E1
:1017F000AF909F908F90089580E0F5CF1F920F9249
:101800000FB60F9211242F933F938F939F93AF9313
:10181000BF938091910390919203A0919303B09113
:1018200094033091900323E0230F2D3758F5019650
:10183000A11DB11D20939003809391039093920377
:10184000A0939303B0939403809195039091960392
:10185000A0919703B09198030196A11DB11D8093AB
:10186000950390939603A0939703B0939803BF9129
:10187000AF919F918F913F912F910F900FBE0F903D
:101880001F90189526E8230F0296A11DB11DD2CFF7
:101890001F920F920FB60F9211240BB60F922F9337
:1018A0003F934F935F936F937F938F939F93AF93E8
:1018B000BF93EF93FF938091AD039091AE03A091FE
:1018C000AF03B091B003892B8A2B8B2BE1F1909160
:1018D0009C03E0919D03F0919E0380818927808382
:1018E0008091AD039091AE03A091AF03B091B0038E
:1018F000181619061A061B069CF48091AD039091E8
:10190000AE03A091AF03B091B0030197A109B10953
:101910008093AD039093AE03A093AF03B093B00355
:10192000FF91EF91BF91AF919F918F917F916F91B7
:101930005F914F913F912F910F900BBE0F900FBE73
:101940000F901F90189580910B02E8E6F2E0E49169
:101950009FEF90930B02E230E9F040F4EE2389F020
:10196000E13091F060E00E94F901DACFE43049F112
:1019700010F1E530B9F7909173009D7F909373005B
:10198000F1CF10926E00EECF90916F009D7F9093FB
:101990006F00E8CF909170009D7F9093700091E070
:1019A0009093B0009091B100987F94609093B100B3
:1019B0001092B300D7CF909171009D7F90937100EA
:1019C000D1CF909172009D7F90937200CBCFCF9337
:1019D000DF93CDB7DEB72C970FB6F894DEBF0FBEFE
:1019E000CDBF789484B5826084BD84B5816084BDA8
:1019F00085B5826085BD85B5816085BD80916E00AD
:101A0000816080936E0010928100809181008260DD
:101A1000809381008091810081608093810080911A
:101A200080008160809380008091B1008460809309
:101A3000B1008091B00081608093B00080919100EE
:101A400082608093910080919100816080939100E9
:101A5000809190008160809390008091A1008260CD
:101A60008093A1008091A10081608093A10080916A
:101A7000A00081608093A00080912101826080930A
:101A800021018091210181608093210180912001B9
:101A900081608093200180917A00846080937A0035
:101AA00080917A00826080937A0080917A008160D0
:101AB00080937A0080917A00806880937A001092F7
:101AC000C10010E000E080910F049091100408170D
:101AD00019072CF441E06CE0C8010E94C207809114
:101AE0000F0490911004081719072CF44AE06AE0DB
:101AF000C8010E94C207C8010E9420080F5F1F4F43
:101B00000830110501F761E081E30E94270261E0DE
:101B100082E30E94270282E00E94270960E080E3BE
:101B20000E94270260E08FE20E94270261E08AE1C2
:101B30000E94270261E086E20E94270261E085E2BE
:101B40000E94270261E084E20E94270261E083E2B2
:101B50000E94270261E082E20E94270261E081E2A6
:101B60000E9427020E94D709E0E64E2EEAEE5E2E82
:101B7000612C712C63E0262E72E0372E0E94B30A8E
:101B800080918F03882309F4BBC080918E03882342
:101B900029F080918D03882309F451C08EE193E0F0
:101BA0000E94DD058823F1F08F3669F580911D03D1
:101BB000823020F48F5F80931D0302C030921D039A
:101BC00042E350E060E070E080ED97E00E94630245
:101BD0000E9485070E946F0A68EC70E080E090E048
:101BE0000E94D5048EEA92E00E94DD05882339F137
:101BF000803709F08DC08091AD02823060F48F5F34
:101C00008093AD020AC08B3669F780911D0388234B
:101C1000B9F28150D0CF3092AD0242E350E060E0A3
:101C200070E080ED97E00E9463020E9485070E94A9
:101C30006F0A68EC70E080E090E00E94D5040E949A
:101C4000850780918E03882309F45AC080918D0303
:101C5000811156C00E9407050091A9021091AA02A5
:101C60002091AB023091AC024B015C01801A910AC9
:101C7000A20AB30A80E688168AEE9806A104B10487
:101C800008F450C010928E030E947D070E944808FD
:101C90004CE251E060E070E084EF91E00E9463026A
:101CA0006CE271E080E090E00E94D50440E951E0F0
:101CB00060E070E08CE291E00E9463020E941F09E4
:101CC00084E792E00E945D0A60ED77E080E090E0BA
:101CD0000E94D5040E94D70981E080938F038091F0
:101CE0002104982F9460909321048C600E9419091C
:101CF0008FE392E00E945D0A0E946F0A0E948507AE
:101D000080E090E0892B09F439CF0E94000032CFA7
:101D10008C3609F094CF8091AD02882309F47DCFF1
:101D200081506ECFC501B4010E943D126B017C0150
:101D300020E030E64AE656E40E94381287FFBEC033
:101D40001092A80260E080E00E94C80988E0ECE000
:101D5000F2E0DE01119601900D928A95E1F7E09193
:101D6000A802F0E0EE0FFF1F81E090E08C0F9D1FB6
:101D7000E80FF91F808191810E945D0A8BE692E055
:101D80000E945D0A60E08CE00E94C809C301B201B4
:101D9000681979098A099B0928EE33E040E050E090
:101DA0000E94071229873A874B875C8789859A8525
:101DB0000A9724F485E892E00E945D0A4AE069856A
:101DC0007A858B859C850E940F0A87E892E00E94A5
:101DD0005D0A61E080E00E94C809C501B40144E0E9
:101DE000660F771F881F991F4A95D1F7A3019201AB
:101DF0000E94DD118901F12CE12C6FE5E016F1065E
:101E00000CF46FEF41E081E194E00E94C6089FEF7F
:101E1000E91AF90A80E1E816F10479F78091AD0238
:101E2000811116C060E082E30E94F90161E081E364
:101E30000E94F90110E000E080918D03811104C03F
:101E400080918F03811158C00E947D070E9448082D
:101E50008091AD028130B1F461E082E30E94F9012A
:101E600060E081E30E94F90110E000E080918D03C1
:101E7000811104C080918F0381119EC00E947D0753
:101E80000E9448088091AD02823009F039CF61E0AC
:101E900082E30E94F90161E081E30E94F90110E010
:101EA00000E080918D03811104C080918F03811126
:101EB000FFC00E947D070E94480822CF20E030E644
:101EC0004AEE56E4C701B6010E94381287FF04C0EB
:101ED00081E08093A80236CF20E038EC4FE257E44F
:101EE000C701B6010E94381287FF03C03092A802D2
:101EF00029CF2092A80226CFF12CE12C80918D03CE
:101F00008111A2CF80918F03882309F49DCF21E016
:101F1000A701B80187E090E00E94560821E0A701E0
:101F2000B80186E090E00E94560837E0A32EB12C5D
:101F3000AE18BF0821E0A501B80190E080E00E9442
:101F4000560821E0A501B80181E090E00E94560802
:101F500060E570E080E090E00E94C80B882309F4FF
:101F600073CF20E0A701B80187E090E00E945608F7
:101F700020E0A701B80186E090E00E94560820E02A
:101F8000A501B80190E080E00E94560820E0A5017C
:101F9000B80181E090E00E9456089FEFE91AF90A23
:101FA00088E0E816F10409F0A9CF0F5F1F4F083051
:101FB000110509F041CF4CCFF12CE12C80918D031C
:101FC00081115CCF80918F03882309F457CF21E0E2
:101FD000A701B80187E090E00E94560821E0A70120
:101FE000B80186E090E00E94560821E0A701B80100
:101FF00085E090E00E94560827E0A22EB12CAE1892
:10200000BF0821E0A501B80190E080E00E945608D9
:1020100021E0A501B80181E090E00E94560821E08E
:10202000A501B80182E090E00E94560862E370E0EA
:1020300080E090E00E94C80B882309F41FCF20E0C5
:10204000A701B80187E090E00E94560820E0A701B0
:10205000B80186E090E00E94560820E0A701B80190
:1020600085E090E00E94560820E0A501B80190E0CC
:1020700080E00E94560820E0A501B80181E090E0D0
:102080000E94560820E0A501B80182E090E00E947D
:1020900056089FEFE91AF90A88E0E816F10409F0FA
:1020A0008DCF0F5F1F4F0830110509F0DFCEEACE4C
:1020B00097E0E92EF12C87E0882E912C8E189F084E
:1020C00080918D038111F5CE80918F03882309F4CF
:1020D000F0CEB12CA12C21E0A401B80187E090E062
:1020E0008A199B090E94560821E0A701B801C50181
:1020F0000E9456089FEFA91AB90A84E0A816B104F5
:1021000051F76EE170E080E090E00E94C80B8823F8
:1021100009F4CFCEB12CA12C20E0A401B80187E0B6
:1021200090E08A199B090E94560820E0A701B80197
:10213000C5010E9456089FEFA91AB90A84E0A816A3
:10214000B10451F791E0E91AF10808F0B4CF0F5F3C
:102150001F4F0830110509F0A4CED2CDCF93DF93E5
:10216000C3E3D0E0D0930A04C093090484E390E071
:1021700090930C0480930B0485E390E090930E04FD
:1021800080930D0488E090E09093100480930F04F6
:1021900061E083E30E94270261E080910B040E94CA
:1021A000270261E080910D040E94270261E0809186
:1021B0000D040E94F901D0930A04C0930904E9ECCC
:1021C000F3E0119284E0E930F807D9F7D0E0C0E0FD
:1021D00080910F0490911004C817D9073CF540E096
:1021E0006FE0CE010E94C20780910F04909110040D
:1021F000C817D9072CF447E06BE0CE010E94C20754
:1022000040E069E0CE010E94C207CE010E94200892
:1022100080910F0490911004C817D9072CF440E066
:102220006CE0CE010E94C2072196D2CF1092140416
:102230001092130482E292E09093120480931104AE
:1022400088E2809315048FEF8093160489E28093CF
:1022500017048AE2809318048BE2809319048CE2BD
:1022600080931A048DE280931B0410921C04109238
:102270001D0410921E0410921F041092200481E08D
:102280000E94270910922003109224031092230326
:102290001092250388E192E090931F0380931E0320
:1022A000EAE3F3E086E793E010821482138215825A
:1022B00036968E179F07C1F787E092E090938103CF
:1022C0008093800386E092E090938303809382035F
:1022D00082E08093840381E08093850389E092E02B
:1022E00090937F0380937E038AE090E0909387032E
:1022F0008093860384EF91E0909389038093880311
:1023000010928C0310928B0310927A0310927B032D
:1023100010927C0310927D0310928A031092B002F7
:102320001092B4021092B3021092B50288E192E0CA
:102330009093AF028093AE02EAECF2E086E093E085
:10234000108214821382158236968E179F07C1F76A
:1023500082E092E0909311038093100381E092E079
:10236000909313038093120382E08093140381E01F
:102370008093150384E092E090930F0380930E0303
:102380008AE090E0909317038093160384EF91E026
:10239000909319038093180310921C0310921B034F
:1023A00010920A0310920B0310920C0310920D036B
:1023B00010921A03DF91CF910895052E97FB1EF41A
:1023C00000940E94F41157FD07D00E94071207FCE9
:1023D00003D04EF40C94F41150954095309521950E
:1023E0003F4F4F4F5F4F0895909580957095619541
:1023F0007F4F8F4F9F4F08950E942912A59F900DE8
:10240000B49F900DA49F800D911D11240895A1E209
:102410001A2EAA1BBB1BFD010DC0AA1FBB1FEE1F5E
:10242000FF1FA217B307E407F50720F0A21BB30BA9
:10243000E40BF50B661F771F881F991F1A9469F725
:1024400060957095809590959B01AC01BD01CF0181
:102450000895A29FB001B39FC001A39F700D811D7D
:102460001124911DB29F700D811D1124911D08959D
:102470000E947A1208F481E00895E89409C097FB5D
:102480003EF490958095709561957F4F8F4F9F4F4B
:102490009923A9F0F92F96E9BB279395F69587958F
:1024A00077956795B795F111F8CFFAF4BB0F11F452
:1024B00060FF1BC06F5F7F4F8F4F9F4F16C08823F9
:1024C00011F096E911C0772321F09EE8872F762F2F
:1024D00005C0662371F096E8862F70E060E02AF070
:1024E0009A95660F771F881FDAF7880F969587955C
:1024F00097F90895990F0008550FAA0BE0E8FEEF31
:1025000016161706E807F907C0F012161306E407B7
:10251000F50798F0621B730B840B950B39F40A26B0
:1025200061F0232B242B252B21F408950A2609F48E
:10253000A140A6958FEF811D811D0895EE0FFF1F0D
:10254000881F8BBF0790F691E02D1994F894FFCF68
:10255000011D1C1B706C201F1E6F6BFF89028C02FB
:1025600093029C0200000000D205D605DA050000A7
:102570000000090A13057A077907543A0042414AD4
:1025800020004D45442000414C542000413A004C6D
:102590004953544F20502F20494E4943494152003E
:1025A0004C41564156414A494C4C415300554C54BC
:1025B00052410050415553412E2E2E2020202020E4
:1025C000202020004C415641444F205445524D4953
:1025D0004E41444F00300073005052454C4156412B
:1025E000444F00454E4A55414755450053454341E8
:0425F000444F000054
:00000001FF
