:100000000C942F010C9460010C9460010C9460011D
:100010000C9460010C9460010C9460010C946001DC
:100020000C9460010C9460010C9460010C946001CC
:100030000C9460010C9460010C9460010C946001BC
:100040000C9460010C9460010C9460010C946001AC
:100050000C9460010C9460010C9460010C94850474
:100060000C9460010C9460010C9460010C9460018C
:100070000C9460010C9460010C9460010C9460017C
:100080000C9460010C9460010C9460010C9460016C
:100090000C9460010C9460010C9460010C9460015C
:1000A0000C9460010C9460010C9460010C9460014C
:1000B0000C9460010C9460010C9460010C9460013C
:1000C0000C9460010C9460010C9460010C9460012C
:1000D0000C9460010C9460010C9460010C9460011C
:1000E0000C9460010C94AD010C94B7010C94EC02DB
:1000F0000C94C0010C9492010C94A5010C949B01EA
:100100000C94B3010C94BB010C94C1010C948A01B2
:100110000C94C5010C9486010C94A9010C949F01C8
:100120000C94BF020C948E010C9409060C947F046D
:100130000C94ED020C9480010C94950100002100B8
:10014000240027002A002D003000330001010000A8
:10015000040107010A0100002200250028002B00ED
:100160002E003100340002010000050108010B01DE
:10017000000020002300260029002C002F00320060
:100180000001000003010601090105050505070539
:1001900008080808020202020A0A08080404040403
:1001A000010101010101010103030303030303032F
:1001B000040707070C0C0C0C0C0C0C0C02020202BE
:1001C00006060606060606060B0B0B0B0B0B0B0BA7
:1001D0000102102020080810204010204080020159
:1001E000020108040201010204081020408080403E
:1001F000201008040201800402018040201008043D
:1002000002010804020101020408102040800102DA
:1002100004081020408000000A0B02090C0D0E0893
:1002200007030401000000000000000000000000BF
:1002300000000000000000000000000000000000BE
:10024000000012111000000000000000000000007B
:10025000000000000000000000000000090611245A
:100260001FBECFEFD1E2DEBFCDBF00E00CBF12E07A
:10027000A0E0B2E0E2E6FCE000E00BBF02C00790C5
:100280000D92AA39B107D9F722E0AAE9B2E001C07C
:100290001D92AB3BB207E1F711E0CFE2D1E000E005
:1002A00006C021970109802FFE010E942706CE3249
:1002B000D10780E00807A9F70E94CF040C942F060D
:1002C0000C9400008150823108F05AC0E82FF0E011
:1002D0008827E259FE4F8F4F0C9427068E0192011A
:1002E000800186018A01C00195019B019F01A50142
:1002F000A901AD01B301B701C001BB01C101C50135
:10030000809180008F778093800008958091800095
:100310008F7DF9CF80918000877FF5CF84B58F776F
:1003200084BD089584B58F7DFBCF8091B0008F7719
:100330008093B00008958091B0008F7DF9CF8091B7
:1003400090008F77809390000895809190008F7D2A
:10035000F9CF80919000877FF5CF8091A0008F77B3
:100360008093A00008958091A0008F7DF9CF8091A7
:10037000A000877FF5CF809120018F7780932001A7
:100380000895809120018F7DF9CF80912001877F92
:10039000F5CFCF93DF93282F30E0F901EA5EFD4FD0
:1003A0008491F901E053FE4FD491F901E657FE4FD5
:1003B000C491CC23A1F081110E946201EC2FF0E0E6
:1003C000EE0FFF1FE059FE4FA591B491EC91ED2384
:1003D00081E090E009F480E0DF91CF91089580E022
:1003E00090E0FACF1F93CF93DF93282F30E0F901ED
:1003F000EA5EFD4F8491F901E053FE4FD491F9017B
:10040000E657FE4FC491CC23A9F0162F81110E940C
:100410006201EC2FF0E0EE0FFF1FEA5AFE4FA591AC
:10042000B4918FB7F894EC91111108C0D095DE23E8
:10043000DC938FBFDF91CF911F910895DE2BF8CF12
:10044000CF93DF9390E0FC01E053FE4F2491865759
:100450009E4FFC0184918823D1F090E0880F991F72
:10046000FC01E45CFE4FA591B491FC01EA5AFE4FF9
:10047000C591D491623071F49FB7F8943C91822F6A
:10048000809583238C93E8812E2B28839FBFDF9157
:10049000CF9108958FB7F894EC912E2B2C938FBFAA
:1004A000F6CF90917B00977F90937B00865380647A
:1004B00080937C0080917A00806480937A008091A0
:1004C0007A0086FDFCCF80917800909179000895A4
:1004D0003FB7F89480919F029091A002A091A10251
:1004E000B091A20226B5A89B05C02F3F19F0019636
:1004F000A11DB11D3FBFBA2FA92F982F8827BC017E
:10050000CD01620F711D811D911D42E0660F771FA5
:10051000881F991F4A95D1F708958F929F92AF92A5
:10052000BF92CF92DF92EF92FF924B015C010E944B
:1005300068026B017C010E9468026C197D098E09BA
:100540009F09683E734081059105A8F321E0821A56
:100550009108A108B10888EEC80E83E0D81EE11CFE
:10056000F11C81149104A104B10429F7FF90EF90CC
:10057000DF90CF90BF90AF909F908F900895AF92F3
:10058000BF92CF92DF92EF92FF920F931F93CF9380
:10059000DF936C017B018B01040F151FEB015E01E2
:1005A000AE18BF08C017D10759F06991D601ED9177
:1005B000FC910190F081E02DC6011995892B79F706
:1005C000C501DF91CF911F910F91FF90EF90DF90C8
:1005D000CF90BF90AF900895089590E080E0089587
:1005E000FC0101900020E9F73197AF01481B590B3E
:1005F000BC0183EA92E00C94BF02CF93DF93EC013D
:1006000060E08E810E94F20161E08E810E94F20121
:1006100060E08E810E94F2018BE891E00197F1F792
:10062000DF91CF910895CF92DF92EF92FF920F93D7
:100630001F93CF93DF936C017C0187E0E80EF11CE0
:10064000D0E0C0E0062F10E0B8010C2E02C0759576
:1006500067950A94E2F76170F70181917F010E942A
:10066000F2012196C430D10579F7C601DF91CF910F
:100670001F910F91FF90EF90DF90CF900C94FD02AF
:10068000CF92DF92EF92FF920F931F93CF93DF935E
:10069000EC01F62E642F8C810E94F2018D818F3F38
:1006A00019F060E00E94F2010F2D10E08F8584FFA9
:1006B00025C06E0187E0C80ED11CF12CE12CB801D9
:1006C0000E2C02C0759567950A94E2F76170F601E9
:1006D00081916F010E94F201FFEFEF1AFF0A88E09B
:1006E000E816F10461F7CE01DF91CF911F910F91D0
:1006F000FF90EF90DF90CF900C94FD02B80184E062
:10070000759567958A95E1F7CE010E9413036F2DC9
:10071000CE01DF91CF911F910F91FF90EF90DF906D
:10072000CF900C94130340E0682F83EA92E00C947E
:10073000400381E00E9493038BE39FE10197F1F76F
:1007400008950E9499038CE092E00E94F00261E01B
:1007500080E20E94F20160EA7FE080E090E00E9487
:100760008D0260E080E20C94F2010E94990385E121
:1007700092E00E94F00261E08EE10E94F20186E3C5
:100780000E945102883592403CF468EC70E080E0B1
:1007900090E00E948D02F3CF60E08EE10C94F201B4
:1007A000CF93DF93823029F49091B20298609093B6
:1007B000B2028093B6021092B70280E48093B8022E
:1007C00080E18093B90280E58093BA0261E0809174
:1007D000A7020E9420028091A8028F3F19F061E0D9
:1007E0000E94200261E08091A9020E942002C3EAD7
:1007F000D2E09E01235A32408091B20284FD0BC0A8
:1008000084E090E021962817390744F461E08E8156
:100810000E942002EECF88E090E0F4CF8BE39DE0D1
:100820000197F1F760E08091A7020E94F20160E079
:100830008091A9020E94F2018091A8028F3F19F0D5
:1008400060E00E94F2018091B20284FD34C063E056
:1008500083EA92E00E941303CBE4D6E4CE01019731
:10086000F1F763E083EA92E00E9413032197F1F726
:1008700063E083EA92E00E94130383E592E001972C
:10088000F1F762E083EA92E00E9413038091B202E2
:1008900080620E94930384E08093B3028CE00E9404
:1008A00093030E94990382E08093B40286E0DF9173
:1008B000CF910C94930380620E9493038BE496E49F
:1008C0000197F1F78091B20280620E94930383E561
:1008D00092E00197F1F78091B20280620E94930347
:1008E000D5CFE091B602E23040F4E150F0E0ED55B2
:1008F000FD4F848980680C949303E1E0F7CF41E0D9
:100900000E94400381E090E008951F920F920FB67D
:100910000F9211242F933F938F939F93AF93BF9385
:1009200080919B0290919C02A0919D02B0919E02A9
:1009300030919A0223E0230F2D3758F50196A11D1F
:10094000B11D20939A0280939B0290939C02A093E6
:100950009D02B0939E0280919F029091A002A0916F
:10096000A102B091A2020196A11DB11D80939F0228
:100970009093A002A093A102B093A202BF91AF9165
:100980009F918F913F912F910F900FBE0F901F90CD
:10099000189526E8230F0296A11DB11DD2CF789499
:1009A00084B5826084BD84B5816084BD85B5826074
:1009B00085BD85B5816085BD80916E008160809325
:1009C0006E0010928100809181008260809381008E
:1009D000809181008160809381008091800081609E
:1009E000809380008091B10084608093B1008091F9
:1009F000B00081608093B00080919100826080930C
:100A0000910080919100816080939100809190008D
:100A10008160809390008091A10082608093A1000A
:100A20008091A10081608093A1008091A0008160ED
:100A30008093A000809121018260809321018091A8
:100A40002101816080932101809120018160809348
:100A5000200180917A00846080937A0080917A00EE
:100A6000826080937A0080917A00816080937A001E
:100A700080917A00806880937A001092C10062E0D1
:100A800086E10E94200262E087E10E94200261E08C
:100A90008EE10E94200261E08FE10E94200261E06D
:100AA00080E20E94200261E081E20E94200261E077
:100AB00082E20E94200282E00E94D0030E949903F9
:100AC00083E292E00E94F0020E9471048EE292E0C2
:100AD0000E94F002C0E0D0E087E10E94C9010197C6
:100AE00059F40E94710484E392E00E94F00220977E
:100AF00099F30E940000F0CF0E94710484E492E018
:100B00000E94F00286E10E94C901892B81F70E94B0
:100B1000990383E592E00E94F00268EE73E080E0C2
:100B200090E00E948D020E94B5030E94990380E626
:100B300092E00E94F00261E081E20E94F20187E30C
:100B40000E945102843F91403CF468EC70E080E0E8
:100B500090E00E948D02F3CF60E081E20E94F201FA
:100B60000E9499038BE692E00E94F00261E08FE11F
:100B70000E94F20168E873E180E090E00E948D023B
:100B800060E08FE10E94F2010E94A1030E9499039C
:100B900086E792E00E94F0020E94B50361E08FE1D7
:100BA0000E94F20168EB7BE080E090E00E948D0201
:100BB00060E08FE10E94F2010E94A1030E9499036C
:100BC00081E892E00E94F00261E082E20E94F2017C
:100BD00060EA7FE080E090E00E948D0260E082E2C7
:100BE0000E94F2010E94990389E892E00E94F002BB
:100BF00068E873E180E090E00E948D020E94990312
:100C000083E292E00E94F0020E9471048EE292E080
:100C10006CCFE3EAF2E01382128284E092E09183E7
:100C2000808387E084838FEF858386E0868385E0F9
:100C3000878384E0808783E0818782E082871386D0
:100C4000148615861686178681E00C94D003EE0F65
:100C5000FF1F881F8BBF0790F691E02D1994F89421
:020C6000FFCFC4
:100C6200000000007F04BF02ED02EC024472656ED8
:100C7200616E646F004C6C656E616E646F206167BB
:100C82007561004C617661706C61746F73004C69C0
:100C920073746F0050756572746120616269657268
:100CA2007461200050726573696F6E652053544100
:100CB200525400496E696369616E646F2E2E2E0074
:100CC20043616C656E74616E646F004C6176616E37
:100CD200646F2E2E2E00456E6A756167616E646FB9
:100CE20000536563616E646F004369636C6F2066D5
:0A0CF200696E616C697A61646F003D
:00000001FF
